{
  "_format": "hh-sol-artifact-1",
  "contractName": "MIDI",
  "sourceName": "contracts/MIDI.sol",
  "abi": [
    {
      "inputs": [],
      "stateMutability": "nonpayable",
      "type": "constructor"
    },
    {
      "anonymous": false,
      "inputs": [
        {
          "indexed": true,
          "internalType": "address",
          "name": "account",
          "type": "address"
        },
        {
          "indexed": true,
          "internalType": "address",
          "name": "operator",
          "type": "address"
        },
        {
          "indexed": false,
          "internalType": "bool",
          "name": "approved",
          "type": "bool"
        }
      ],
      "name": "ApprovalForAll",
      "type": "event"
    },
    {
      "anonymous": false,
      "inputs": [
        {
          "indexed": true,
          "internalType": "address",
          "name": "operator",
          "type": "address"
        },
        {
          "indexed": true,
          "internalType": "address",
          "name": "from",
          "type": "address"
        },
        {
          "indexed": true,
          "internalType": "address",
          "name": "to",
          "type": "address"
        },
        {
          "indexed": false,
          "internalType": "uint256[]",
          "name": "ids",
          "type": "uint256[]"
        },
        {
          "indexed": false,
          "internalType": "uint256[]",
          "name": "values",
          "type": "uint256[]"
        }
      ],
      "name": "TransferBatch",
      "type": "event"
    },
    {
      "anonymous": false,
      "inputs": [
        {
          "indexed": true,
          "internalType": "address",
          "name": "operator",
          "type": "address"
        },
        {
          "indexed": true,
          "internalType": "address",
          "name": "from",
          "type": "address"
        },
        {
          "indexed": true,
          "internalType": "address",
          "name": "to",
          "type": "address"
        },
        {
          "indexed": false,
          "internalType": "uint256",
          "name": "id",
          "type": "uint256"
        },
        {
          "indexed": false,
          "internalType": "uint256",
          "name": "value",
          "type": "uint256"
        }
      ],
      "name": "TransferSingle",
      "type": "event"
    },
    {
      "anonymous": false,
      "inputs": [
        {
          "indexed": false,
          "internalType": "string",
          "name": "value",
          "type": "string"
        },
        {
          "indexed": true,
          "internalType": "uint256",
          "name": "id",
          "type": "uint256"
        }
      ],
      "name": "URI",
      "type": "event"
    },
    {
      "inputs": [
        {
          "internalType": "address",
          "name": "account",
          "type": "address"
        },
        {
          "internalType": "uint256",
          "name": "id",
          "type": "uint256"
        }
      ],
      "name": "balanceOf",
      "outputs": [
        {
          "internalType": "uint256",
          "name": "",
          "type": "uint256"
        }
      ],
      "stateMutability": "view",
      "type": "function"
    },
    {
      "inputs": [
        {
          "internalType": "address[]",
          "name": "accounts",
          "type": "address[]"
        },
        {
          "internalType": "uint256[]",
          "name": "ids",
          "type": "uint256[]"
        }
      ],
      "name": "balanceOfBatch",
      "outputs": [
        {
          "internalType": "uint256[]",
          "name": "",
          "type": "uint256[]"
        }
      ],
      "stateMutability": "view",
      "type": "function"
    },
    {
      "inputs": [
        {
          "internalType": "uint256",
          "name": "id",
          "type": "uint256"
        }
      ],
      "name": "exists",
      "outputs": [
        {
          "internalType": "bool",
          "name": "",
          "type": "bool"
        }
      ],
      "stateMutability": "view",
      "type": "function"
    },
    {
      "inputs": [
        {
          "internalType": "address",
          "name": "account",
          "type": "address"
        },
        {
          "internalType": "address",
          "name": "operator",
          "type": "address"
        }
      ],
      "name": "isApprovedForAll",
      "outputs": [
        {
          "internalType": "bool",
          "name": "",
          "type": "bool"
        }
      ],
      "stateMutability": "view",
      "type": "function"
    },
    {
      "inputs": [
        {
          "internalType": "address",
          "name": "to",
          "type": "address"
        },
        {
          "internalType": "uint256",
          "name": "amount",
          "type": "uint256"
        },
        {
          "internalType": "string",
          "name": "tokenURI",
          "type": "string"
        },
        {
          "internalType": "bytes",
          "name": "data",
          "type": "bytes"
        }
      ],
      "name": "mint",
      "outputs": [],
      "stateMutability": "nonpayable",
      "type": "function"
    },
    {
      "inputs": [
        {
          "internalType": "address",
          "name": "from",
          "type": "address"
        },
        {
          "internalType": "address",
          "name": "to",
          "type": "address"
        },
        {
          "internalType": "uint256[]",
          "name": "ids",
          "type": "uint256[]"
        },
        {
          "internalType": "uint256[]",
          "name": "amounts",
          "type": "uint256[]"
        },
        {
          "internalType": "bytes",
          "name": "data",
          "type": "bytes"
        }
      ],
      "name": "safeBatchTransferFrom",
      "outputs": [],
      "stateMutability": "nonpayable",
      "type": "function"
    },
    {
      "inputs": [
        {
          "internalType": "address",
          "name": "from",
          "type": "address"
        },
        {
          "internalType": "address",
          "name": "to",
          "type": "address"
        },
        {
          "internalType": "uint256",
          "name": "id",
          "type": "uint256"
        },
        {
          "internalType": "uint256",
          "name": "amount",
          "type": "uint256"
        },
        {
          "internalType": "bytes",
          "name": "data",
          "type": "bytes"
        }
      ],
      "name": "safeTransferFrom",
      "outputs": [],
      "stateMutability": "nonpayable",
      "type": "function"
    },
    {
      "inputs": [
        {
          "internalType": "address",
          "name": "operator",
          "type": "address"
        },
        {
          "internalType": "bool",
          "name": "approved",
          "type": "bool"
        }
      ],
      "name": "setApprovalForAll",
      "outputs": [],
      "stateMutability": "nonpayable",
      "type": "function"
    },
    {
      "inputs": [
        {
          "internalType": "bytes4",
          "name": "interfaceId",
          "type": "bytes4"
        }
      ],
      "name": "supportsInterface",
      "outputs": [
        {
          "internalType": "bool",
          "name": "",
          "type": "bool"
        }
      ],
      "stateMutability": "view",
      "type": "function"
    },
    {
      "inputs": [
        {
          "internalType": "uint256",
          "name": "id",
          "type": "uint256"
        }
      ],
      "name": "totalSupply",
      "outputs": [
        {
          "internalType": "uint256",
          "name": "",
          "type": "uint256"
        }
      ],
      "stateMutability": "view",
      "type": "function"
    },
    {
      "inputs": [
        {
          "internalType": "uint256",
          "name": "tokenId",
          "type": "uint256"
        }
      ],
      "name": "uri",
      "outputs": [
        {
          "internalType": "string",
          "name": "",
          "type": "string"
        }
      ],
      "stateMutability": "view",
      "type": "function"
    }
  ],
  "bytecode": "0x60806040523480156200001157600080fd5b506040518060200160405280600081525062000033816200003a60201b60201c565b506200016b565b80600290805190602001906200005292919062000056565b5050565b828054620000649062000135565b90600052602060002090601f016020900481019282620000885760008555620000d4565b82601f10620000a357805160ff1916838001178555620000d4565b82800160010185558215620000d4579182015b82811115620000d3578251825591602001919060010190620000b6565b5b509050620000e39190620000e7565b5090565b5b8082111562000102576000816000905550600101620000e8565b5090565b7f4e487b7100000000000000000000000000000000000000000000000000000000600052602260045260246000fd5b600060028204905060018216806200014e57607f821691505b6020821081141562000165576200016462000106565b5b50919050565b612d52806200017b6000396000f3fe608060405234801561001057600080fd5b50600436106100a85760003560e01c80634f558e79116100715780634f558e7914610189578063a22cb465146101b9578063bd85b039146101d5578063d2b04fd614610205578063e985e9c514610221578063f242432a14610251576100a8565b8062fdd58e146100ad57806301ffc9a7146100dd5780630e89341c1461010d5780632eb2c2d61461013d5780634e1273f414610159575b600080fd5b6100c760048036038101906100c29190611974565b61026d565b6040516100d491906119c3565b60405180910390f35b6100f760048036038101906100f29190611a36565b610336565b6040516101049190611a7e565b60405180910390f35b61012760048036038101906101229190611a99565b610418565b6040516101349190611b5f565b60405180910390f35b61015760048036038101906101529190611d7e565b6104bd565b005b610173600480360381019061016e9190611f10565b61055e565b6040516101809190612046565b60405180910390f35b6101a3600480360381019061019e9190611a99565b610677565b6040516101b09190611a7e565b60405180910390f35b6101d360048036038101906101ce9190612094565b61068b565b005b6101ef60048036038101906101ea9190611a99565b6106a1565b6040516101fc91906119c3565b60405180910390f35b61021f600480360381019061021a9190612175565b6106be565b005b61023b60048036038101906102369190612214565b6106f3565b6040516102489190611a7e565b60405180910390f35b61026b60048036038101906102669190612254565b610787565b005b60008073ffffffffffffffffffffffffffffffffffffffff168373ffffffffffffffffffffffffffffffffffffffff1614156102de576040517f08c379a00000000000000000000000000000000000000000000000000000000081526004016102d59061235d565b60405180910390fd5b60008083815260200190815260200160002060008473ffffffffffffffffffffffffffffffffffffffff1673ffffffffffffffffffffffffffffffffffffffff16815260200190815260200160002054905092915050565b60007fd9b67a26000000000000000000000000000000000000000000000000000000007bffffffffffffffffffffffffffffffffffffffffffffffffffffffff1916827bffffffffffffffffffffffffffffffffffffffffffffffffffffffff1916148061040157507f0e89341c000000000000000000000000000000000000000000000000000000007bffffffffffffffffffffffffffffffffffffffffffffffffffffffff1916827bffffffffffffffffffffffffffffffffffffffffffffffffffffffff1916145b80610411575061041082610828565b5b9050919050565b6060600560008381526020019081526020016000208054610438906123ac565b80601f0160208091040260200160405190810160405280929190818152602001828054610464906123ac565b80156104b15780601f10610486576101008083540402835291602001916104b1565b820191906000526020600020905b81548152906001019060200180831161049457829003601f168201915b50505050509050919050565b6104c5610892565b73ffffffffffffffffffffffffffffffffffffffff168573ffffffffffffffffffffffffffffffffffffffff16148061050b575061050a85610505610892565b6106f3565b5b61054a576040517f08c379a000000000000000000000000000000000000000000000000000000000815260040161054190612450565b60405180910390fd5b610557858585858561089a565b5050505050565b606081518351146105a4576040517f08c379a000000000000000000000000000000000000000000000000000000000815260040161059b906124e2565b60405180910390fd5b6000835167ffffffffffffffff8111156105c1576105c0611b86565b5b6040519080825280602002602001820160405280156105ef5781602001602082028036833780820191505090505b50905060005b845181101561066c5761063c85828151811061061457610613612502565b5b602002602001015185838151811061062f5761062e612502565b5b602002602001015161026d565b82828151811061064f5761064e612502565b5b6020026020010181815250508061066590612560565b90506105f5565b508091505092915050565b600080610683836106a1565b119050919050565b61069d610696610892565b8383610bbc565b5050565b600060036000838152602001908152602001600020549050919050565b6106c86004610d29565b60006106d46004610d3f565b90506106e08184610d4d565b6106ec85828685610d79565b5050505050565b6000600160008473ffffffffffffffffffffffffffffffffffffffff1673ffffffffffffffffffffffffffffffffffffffff16815260200190815260200160002060008373ffffffffffffffffffffffffffffffffffffffff1673ffffffffffffffffffffffffffffffffffffffff16815260200190815260200160002060009054906101000a900460ff16905092915050565b61078f610892565b73ffffffffffffffffffffffffffffffffffffffff168573ffffffffffffffffffffffffffffffffffffffff1614806107d557506107d4856107cf610892565b6106f3565b5b610814576040517f08c379a000000000000000000000000000000000000000000000000000000000815260040161080b90612450565b60405180910390fd5b6108218585858585610f2a565b5050505050565b60007f01ffc9a7000000000000000000000000000000000000000000000000000000007bffffffffffffffffffffffffffffffffffffffffffffffffffffffff1916827bffffffffffffffffffffffffffffffffffffffffffffffffffffffff1916149050919050565b600033905090565b81518351146108de576040517f08c379a00000000000000000000000000000000000000000000000000000000081526004016108d59061261b565b60405180910390fd5b600073ffffffffffffffffffffffffffffffffffffffff168473ffffffffffffffffffffffffffffffffffffffff16141561094e576040517f08c379a0000000000000000000000000000000000000000000000000000000008152600401610945906126ad565b60405180910390fd5b6000610958610892565b90506109688187878787876111c6565b60005b8451811015610b1957600085828151811061098957610988612502565b5b6020026020010151905060008583815181106109a8576109a7612502565b5b60200260200101519050600080600084815260200190815260200160002060008b73ffffffffffffffffffffffffffffffffffffffff1673ffffffffffffffffffffffffffffffffffffffff16815260200190815260200160002054905081811015610a49576040517f08c379a0000000000000000000000000000000000000000000000000000000008152600401610a409061273f565b60405180910390fd5b81810360008085815260200190815260200160002060008c73ffffffffffffffffffffffffffffffffffffffff1673ffffffffffffffffffffffffffffffffffffffff168152602001908152602001600020819055508160008085815260200190815260200160002060008b73ffffffffffffffffffffffffffffffffffffffff1673ffffffffffffffffffffffffffffffffffffffff1681526020019081526020016000206000828254610afe919061275f565b9250508190555050505080610b1290612560565b905061096b565b508473ffffffffffffffffffffffffffffffffffffffff168673ffffffffffffffffffffffffffffffffffffffff168273ffffffffffffffffffffffffffffffffffffffff167f4a39dc06d4c0dbc64b70af90fd698a233a518aa5d07e595d983b8c0526c8f7fb8787604051610b909291906127b5565b60405180910390a4610ba68187878787876111dc565b610bb48187878787876111e4565b505050505050565b8173ffffffffffffffffffffffffffffffffffffffff168373ffffffffffffffffffffffffffffffffffffffff161415610c2b576040517f08c379a0000000000000000000000000000000000000000000000000000000008152600401610c229061285e565b60405180910390fd5b80600160008573ffffffffffffffffffffffffffffffffffffffff1673ffffffffffffffffffffffffffffffffffffffff16815260200190815260200160002060008473ffffffffffffffffffffffffffffffffffffffff1673ffffffffffffffffffffffffffffffffffffffff16815260200190815260200160002060006101000a81548160ff0219169083151502179055508173ffffffffffffffffffffffffffffffffffffffff168373ffffffffffffffffffffffffffffffffffffffff167f17307eab39ab6107e8899845ad3d59bd9653f200f220920489ca2b5937696c3183604051610d1c9190611a7e565b60405180910390a3505050565b6001816000016000828254019250508190555050565b600081600001549050919050565b80600560008481526020019081526020016000209080519060200190610d74929190611829565b505050565b600073ffffffffffffffffffffffffffffffffffffffff168473ffffffffffffffffffffffffffffffffffffffff161415610de9576040517f08c379a0000000000000000000000000000000000000000000000000000000008152600401610de0906128f0565b60405180910390fd5b6000610df3610892565b90506000610e00856113cb565b90506000610e0d856113cb565b9050610e1e836000898585896111c6565b8460008088815260200190815260200160002060008973ffffffffffffffffffffffffffffffffffffffff1673ffffffffffffffffffffffffffffffffffffffff1681526020019081526020016000206000828254610e7d919061275f565b925050819055508673ffffffffffffffffffffffffffffffffffffffff16600073ffffffffffffffffffffffffffffffffffffffff168473ffffffffffffffffffffffffffffffffffffffff167fc3d58168c5ae7397731d063d5bbf3d657854427343f4c083240f7aacaa2d0f628989604051610efb929190612910565b60405180910390a4610f12836000898585896111dc565b610f2183600089898989611445565b50505050505050565b600073ffffffffffffffffffffffffffffffffffffffff168473ffffffffffffffffffffffffffffffffffffffff161415610f9a576040517f08c379a0000000000000000000000000000000000000000000000000000000008152600401610f91906126ad565b60405180910390fd5b6000610fa4610892565b90506000610fb1856113cb565b90506000610fbe856113cb565b9050610fce8389898585896111c6565b600080600088815260200190815260200160002060008a73ffffffffffffffffffffffffffffffffffffffff1673ffffffffffffffffffffffffffffffffffffffff16815260200190815260200160002054905085811015611065576040517f08c379a000000000000000000000000000000000000000000000000000000000815260040161105c9061273f565b60405180910390fd5b85810360008089815260200190815260200160002060008b73ffffffffffffffffffffffffffffffffffffffff1673ffffffffffffffffffffffffffffffffffffffff168152602001908152602001600020819055508560008089815260200190815260200160002060008a73ffffffffffffffffffffffffffffffffffffffff1673ffffffffffffffffffffffffffffffffffffffff168152602001908152602001600020600082825461111a919061275f565b925050819055508773ffffffffffffffffffffffffffffffffffffffff168973ffffffffffffffffffffffffffffffffffffffff168573ffffffffffffffffffffffffffffffffffffffff167fc3d58168c5ae7397731d063d5bbf3d657854427343f4c083240f7aacaa2d0f628a8a604051611197929190612910565b60405180910390a46111ad848a8a86868a6111dc565b6111bb848a8a8a8a8a611445565b505050505050505050565b6111d486868686868661162c565b505050505050565b505050505050565b6112038473ffffffffffffffffffffffffffffffffffffffff166117fe565b156113c3578373ffffffffffffffffffffffffffffffffffffffff1663bc197c8187878686866040518663ffffffff1660e01b815260040161124995949392919061299d565b602060405180830381600087803b15801561126357600080fd5b505af192505050801561129457506040513d601f19601f820116820180604052508101906112919190612a1a565b60015b61133a576112a0612a54565b806308c379a014156112fd57506112b5612a76565b806112c057506112ff565b806040517f08c379a00000000000000000000000000000000000000000000000000000000081526004016112f49190611b5f565b60405180910390fd5b505b6040517f08c379a000000000000000000000000000000000000000000000000000000000815260040161133190612b7e565b60405180910390fd5b63bc197c8160e01b7bffffffffffffffffffffffffffffffffffffffffffffffffffffffff1916817bffffffffffffffffffffffffffffffffffffffffffffffffffffffff1916146113c1576040517f08c379a00000000000000000000000000000000000000000000000000000000081526004016113b890612c10565b60405180910390fd5b505b505050505050565b60606000600167ffffffffffffffff8111156113ea576113e9611b86565b5b6040519080825280602002602001820160405280156114185781602001602082028036833780820191505090505b50905082816000815181106114305761142f612502565b5b60200260200101818152505080915050919050565b6114648473ffffffffffffffffffffffffffffffffffffffff166117fe565b15611624578373ffffffffffffffffffffffffffffffffffffffff1663f23a6e6187878686866040518663ffffffff1660e01b81526004016114aa959493929190612c30565b602060405180830381600087803b1580156114c457600080fd5b505af19250505080156114f557506040513d601f19601f820116820180604052508101906114f29190612a1a565b60015b61159b57611501612a54565b806308c379a0141561155e5750611516612a76565b806115215750611560565b806040517f08c379a00000000000000000000000000000000000000000000000000000000081526004016115559190611b5f565b60405180910390fd5b505b6040517f08c379a000000000000000000000000000000000000000000000000000000000815260040161159290612b7e565b60405180910390fd5b63f23a6e6160e01b7bffffffffffffffffffffffffffffffffffffffffffffffffffffffff1916817bffffffffffffffffffffffffffffffffffffffffffffffffffffffff191614611622576040517f08c379a000000000000000000000000000000000000000000000000000000000815260040161161990612c10565b60405180910390fd5b505b505050505050565b61163a868686868686611821565b600073ffffffffffffffffffffffffffffffffffffffff168573ffffffffffffffffffffffffffffffffffffffff1614156116ec5760005b83518110156116ea5782818151811061168e5761168d612502565b5b6020026020010151600360008684815181106116ad576116ac612502565b5b6020026020010151815260200190815260200160002060008282546116d2919061275f565b92505081905550806116e390612560565b9050611672565b505b600073ffffffffffffffffffffffffffffffffffffffff168473ffffffffffffffffffffffffffffffffffffffff1614156117f65760005b83518110156117f457600084828151811061174257611741612502565b5b60200260200101519050600084838151811061176157611760612502565b5b60200260200101519050600060036000848152602001908152602001600020549050818110156117c6576040517f08c379a00000000000000000000000000000000000000000000000000000000081526004016117bd90612cfc565b60405180910390fd5b8181036003600085815260200190815260200160002081905550505050806117ed90612560565b9050611724565b505b505050505050565b6000808273ffffffffffffffffffffffffffffffffffffffff163b119050919050565b505050505050565b828054611835906123ac565b90600052602060002090601f016020900481019282611857576000855561189e565b82601f1061187057805160ff191683800117855561189e565b8280016001018555821561189e579182015b8281111561189d578251825591602001919060010190611882565b5b5090506118ab91906118af565b5090565b5b808211156118c85760008160009055506001016118b0565b5090565b6000604051905090565b600080fd5b600080fd5b600073ffffffffffffffffffffffffffffffffffffffff82169050919050565b600061190b826118e0565b9050919050565b61191b81611900565b811461192657600080fd5b50565b60008135905061193881611912565b92915050565b6000819050919050565b6119518161193e565b811461195c57600080fd5b50565b60008135905061196e81611948565b92915050565b6000806040838503121561198b5761198a6118d6565b5b600061199985828601611929565b92505060206119aa8582860161195f565b9150509250929050565b6119bd8161193e565b82525050565b60006020820190506119d860008301846119b4565b92915050565b60007fffffffff0000000000000000000000000000000000000000000000000000000082169050919050565b611a13816119de565b8114611a1e57600080fd5b50565b600081359050611a3081611a0a565b92915050565b600060208284031215611a4c57611a4b6118d6565b5b6000611a5a84828501611a21565b91505092915050565b60008115159050919050565b611a7881611a63565b82525050565b6000602082019050611a936000830184611a6f565b92915050565b600060208284031215611aaf57611aae6118d6565b5b6000611abd8482850161195f565b91505092915050565b600081519050919050565b600082825260208201905092915050565b60005b83811015611b00578082015181840152602081019050611ae5565b83811115611b0f576000848401525b50505050565b6000601f19601f8301169050919050565b6000611b3182611ac6565b611b3b8185611ad1565b9350611b4b818560208601611ae2565b611b5481611b15565b840191505092915050565b60006020820190508181036000830152611b798184611b26565b905092915050565b600080fd5b7f4e487b7100000000000000000000000000000000000000000000000000000000600052604160045260246000fd5b611bbe82611b15565b810181811067ffffffffffffffff82111715611bdd57611bdc611b86565b5b80604052505050565b6000611bf06118cc565b9050611bfc8282611bb5565b919050565b600067ffffffffffffffff821115611c1c57611c1b611b86565b5b602082029050602081019050919050565b600080fd5b6000611c45611c4084611c01565b611be6565b90508083825260208201905060208402830185811115611c6857611c67611c2d565b5b835b81811015611c915780611c7d888261195f565b845260208401935050602081019050611c6a565b5050509392505050565b600082601f830112611cb057611caf611b81565b5b8135611cc0848260208601611c32565b91505092915050565b600080fd5b600067ffffffffffffffff821115611ce957611ce8611b86565b5b611cf282611b15565b9050602081019050919050565b82818337600083830152505050565b6000611d21611d1c84611cce565b611be6565b905082815260208101848484011115611d3d57611d3c611cc9565b5b611d48848285611cff565b509392505050565b600082601f830112611d6557611d64611b81565b5b8135611d75848260208601611d0e565b91505092915050565b600080600080600060a08688031215611d9a57611d996118d6565b5b6000611da888828901611929565b9550506020611db988828901611929565b945050604086013567ffffffffffffffff811115611dda57611dd96118db565b5b611de688828901611c9b565b935050606086013567ffffffffffffffff811115611e0757611e066118db565b5b611e1388828901611c9b565b925050608086013567ffffffffffffffff811115611e3457611e336118db565b5b611e4088828901611d50565b9150509295509295909350565b600067ffffffffffffffff821115611e6857611e67611b86565b5b602082029050602081019050919050565b6000611e8c611e8784611e4d565b611be6565b90508083825260208201905060208402830185811115611eaf57611eae611c2d565b5b835b81811015611ed85780611ec48882611929565b845260208401935050602081019050611eb1565b5050509392505050565b600082601f830112611ef757611ef6611b81565b5b8135611f07848260208601611e79565b91505092915050565b60008060408385031215611f2757611f266118d6565b5b600083013567ffffffffffffffff811115611f4557611f446118db565b5b611f5185828601611ee2565b925050602083013567ffffffffffffffff811115611f7257611f716118db565b5b611f7e85828601611c9b565b9150509250929050565b600081519050919050565b600082825260208201905092915050565b6000819050602082019050919050565b611fbd8161193e565b82525050565b6000611fcf8383611fb4565b60208301905092915050565b6000602082019050919050565b6000611ff382611f88565b611ffd8185611f93565b935061200883611fa4565b8060005b838110156120395781516120208882611fc3565b975061202b83611fdb565b92505060018101905061200c565b5085935050505092915050565b600060208201905081810360008301526120608184611fe8565b905092915050565b61207181611a63565b811461207c57600080fd5b50565b60008135905061208e81612068565b92915050565b600080604083850312156120ab576120aa6118d6565b5b60006120b985828601611929565b92505060206120ca8582860161207f565b9150509250929050565b600067ffffffffffffffff8211156120ef576120ee611b86565b5b6120f882611b15565b9050602081019050919050565b6000612118612113846120d4565b611be6565b90508281526020810184848401111561213457612133611cc9565b5b61213f848285611cff565b509392505050565b600082601f83011261215c5761215b611b81565b5b813561216c848260208601612105565b91505092915050565b6000806000806080858703121561218f5761218e6118d6565b5b600061219d87828801611929565b94505060206121ae8782880161195f565b935050604085013567ffffffffffffffff8111156121cf576121ce6118db565b5b6121db87828801612147565b925050606085013567ffffffffffffffff8111156121fc576121fb6118db565b5b61220887828801611d50565b91505092959194509250565b6000806040838503121561222b5761222a6118d6565b5b600061223985828601611929565b925050602061224a85828601611929565b9150509250929050565b600080600080600060a086880312156122705761226f6118d6565b5b600061227e88828901611929565b955050602061228f88828901611929565b94505060406122a08882890161195f565b93505060606122b18882890161195f565b925050608086013567ffffffffffffffff8111156122d2576122d16118db565b5b6122de88828901611d50565b9150509295509295909350565b7f455243313135353a2061646472657373207a65726f206973206e6f742061207660008201527f616c6964206f776e657200000000000000000000000000000000000000000000602082015250565b6000612347602a83611ad1565b9150612352826122eb565b604082019050919050565b600060208201905081810360008301526123768161233a565b9050919050565b7f4e487b7100000000000000000000000000000000000000000000000000000000600052602260045260246000fd5b600060028204905060018216806123c457607f821691505b602082108114156123d8576123d761237d565b5b50919050565b7f455243313135353a2063616c6c6572206973206e6f7420746f6b656e206f776e60008201527f6572206e6f7220617070726f7665640000000000000000000000000000000000602082015250565b600061243a602f83611ad1565b9150612445826123de565b604082019050919050565b600060208201905081810360008301526124698161242d565b9050919050565b7f455243313135353a206163636f756e747320616e6420696473206c656e67746860008201527f206d69736d617463680000000000000000000000000000000000000000000000602082015250565b60006124cc602983611ad1565b91506124d782612470565b604082019050919050565b600060208201905081810360008301526124fb816124bf565b9050919050565b7f4e487b7100000000000000000000000000000000000000000000000000000000600052603260045260246000fd5b7f4e487b7100000000000000000000000000000000000000000000000000000000600052601160045260246000fd5b600061256b8261193e565b91507fffffffffffffffffffffffffffffffffffffffffffffffffffffffffffffffff82141561259e5761259d612531565b5b600182019050919050565b7f455243313135353a2069647320616e6420616d6f756e7473206c656e6774682060008201527f6d69736d61746368000000000000000000000000000000000000000000000000602082015250565b6000612605602883611ad1565b9150612610826125a9565b604082019050919050565b60006020820190508181036000830152612634816125f8565b9050919050565b7f455243313135353a207472616e7366657220746f20746865207a65726f20616460008201527f6472657373000000000000000000000000000000000000000000000000000000602082015250565b6000612697602583611ad1565b91506126a28261263b565b604082019050919050565b600060208201905081810360008301526126c68161268a565b9050919050565b7f455243313135353a20696e73756666696369656e742062616c616e636520666f60008201527f72207472616e7366657200000000000000000000000000000000000000000000602082015250565b6000612729602a83611ad1565b9150612734826126cd565b604082019050919050565b600060208201905081810360008301526127588161271c565b9050919050565b600061276a8261193e565b91506127758361193e565b9250827fffffffffffffffffffffffffffffffffffffffffffffffffffffffffffffffff038211156127aa576127a9612531565b5b828201905092915050565b600060408201905081810360008301526127cf8185611fe8565b905081810360208301526127e38184611fe8565b90509392505050565b7f455243313135353a2073657474696e6720617070726f76616c2073746174757360008201527f20666f722073656c660000000000000000000000000000000000000000000000602082015250565b6000612848602983611ad1565b9150612853826127ec565b604082019050919050565b600060208201905081810360008301526128778161283b565b9050919050565b7f455243313135353a206d696e7420746f20746865207a65726f2061646472657360008201527f7300000000000000000000000000000000000000000000000000000000000000602082015250565b60006128da602183611ad1565b91506128e58261287e565b604082019050919050565b60006020820190508181036000830152612909816128cd565b9050919050565b600060408201905061292560008301856119b4565b61293260208301846119b4565b9392505050565b61294281611900565b82525050565b600081519050919050565b600082825260208201905092915050565b600061296f82612948565b6129798185612953565b9350612989818560208601611ae2565b61299281611b15565b840191505092915050565b600060a0820190506129b26000830188612939565b6129bf6020830187612939565b81810360408301526129d18186611fe8565b905081810360608301526129e58185611fe8565b905081810360808301526129f98184612964565b90509695505050505050565b600081519050612a1481611a0a565b92915050565b600060208284031215612a3057612a2f6118d6565b5b6000612a3e84828501612a05565b91505092915050565b60008160e01c9050919050565b600060033d1115612a735760046000803e612a70600051612a47565b90505b90565b600060443d1015612a8657612b09565b612a8e6118cc565b60043d036004823e80513d602482011167ffffffffffffffff82111715612ab6575050612b09565b808201805167ffffffffffffffff811115612ad45750505050612b09565b80602083010160043d038501811115612af1575050505050612b09565b612b0082602001850186611bb5565b82955050505050505b90565b7f455243313135353a207472616e7366657220746f206e6f6e204552433131353560008201527f526563656976657220696d706c656d656e746572000000000000000000000000602082015250565b6000612b68603483611ad1565b9150612b7382612b0c565b604082019050919050565b60006020820190508181036000830152612b9781612b5b565b9050919050565b7f455243313135353a204552433131353552656365697665722072656a6563746560008201527f6420746f6b656e73000000000000000000000000000000000000000000000000602082015250565b6000612bfa602883611ad1565b9150612c0582612b9e565b604082019050919050565b60006020820190508181036000830152612c2981612bed565b9050919050565b600060a082019050612c456000830188612939565b612c526020830187612939565b612c5f60408301866119b4565b612c6c60608301856119b4565b8181036080830152612c7e8184612964565b90509695505050505050565b7f455243313135353a206275726e20616d6f756e74206578636565647320746f7460008201527f616c537570706c79000000000000000000000000000000000000000000000000602082015250565b6000612ce6602883611ad1565b9150612cf182612c8a565b604082019050919050565b60006020820190508181036000830152612d1581612cd9565b905091905056fea26469706673582212206f19ca283ed06a7a17f9aa9f337fd272b87bc41ccc56a77b86685d403c986b8e64736f6c63430008090033",
  "linkReferences": {},
  "deployedLinkReferences": {}
}