{
  "_format": "hh-sol-artifact-1",
  "contractName": "Listing",
  "sourceName": "contracts/listing/Listing.sol",
  "abi": [
    {
      "inputs": [],
      "stateMutability": "nonpayable",
      "type": "constructor"
    },
    {
      "anonymous": false,
      "inputs": [
        {
          "indexed": false,
          "internalType": "uint8",
          "name": "version",
          "type": "uint8"
        }
      ],
      "name": "Initialized",
      "type": "event"
    },
    {
      "anonymous": false,
      "inputs": [
        {
          "indexed": false,
          "internalType": "address",
          "name": "nft",
          "type": "address"
        },
        {
          "indexed": false,
          "internalType": "uint256",
          "name": "tokenId",
          "type": "uint256"
        },
        {
          "indexed": false,
          "internalType": "uint256",
          "name": "price",
          "type": "uint256"
        },
        {
          "indexed": false,
          "internalType": "uint256",
          "name": "amount",
          "type": "uint256"
        },
        {
          "indexed": false,
          "internalType": "address",
          "name": "buyer",
          "type": "address"
        },
        {
          "indexed": false,
          "internalType": "address",
          "name": "seller",
          "type": "address"
        }
      ],
      "name": "ItemsPurchased",
      "type": "event"
    },
    {
      "anonymous": false,
      "inputs": [
        {
          "indexed": true,
          "internalType": "address",
          "name": "previousOwner",
          "type": "address"
        },
        {
          "indexed": true,
          "internalType": "address",
          "name": "newOwner",
          "type": "address"
        }
      ],
      "name": "OwnershipTransferred",
      "type": "event"
    },
    {
      "inputs": [],
      "name": "availableAmount",
      "outputs": [
        {
          "internalType": "uint256",
          "name": "",
          "type": "uint256"
        }
      ],
      "stateMutability": "view",
      "type": "function"
    },
    {
      "inputs": [
        {
          "internalType": "uint256",
          "name": "amount",
          "type": "uint256"
        }
      ],
      "name": "buyItems",
      "outputs": [],
      "stateMutability": "payable",
      "type": "function"
    },
    {
      "inputs": [],
      "name": "cancelListing",
      "outputs": [],
      "stateMutability": "nonpayable",
      "type": "function"
    },
    {
      "inputs": [
        {
          "internalType": "uint256",
          "name": "price_",
          "type": "uint256"
        },
        {
          "internalType": "address",
          "name": "seller_",
          "type": "address"
        },
        {
          "internalType": "uint256",
          "name": "amount_",
          "type": "uint256"
        },
        {
          "internalType": "address",
          "name": "midi_",
          "type": "address"
        }
      ],
      "name": "initialize",
      "outputs": [],
      "stateMutability": "nonpayable",
      "type": "function"
    },
    {
      "inputs": [],
      "name": "nftAddress",
      "outputs": [
        {
          "internalType": "address",
          "name": "",
          "type": "address"
        }
      ],
      "stateMutability": "view",
      "type": "function"
    },
    {
      "inputs": [
        {
          "internalType": "address",
          "name": "",
          "type": "address"
        },
        {
          "internalType": "address",
          "name": "",
          "type": "address"
        },
        {
          "internalType": "uint256[]",
          "name": "",
          "type": "uint256[]"
        },
        {
          "internalType": "uint256[]",
          "name": "",
          "type": "uint256[]"
        },
        {
          "internalType": "bytes",
          "name": "",
          "type": "bytes"
        }
      ],
      "name": "onERC1155BatchReceived",
      "outputs": [
        {
          "internalType": "bytes4",
          "name": "",
          "type": "bytes4"
        }
      ],
      "stateMutability": "nonpayable",
      "type": "function"
    },
    {
      "inputs": [
        {
          "internalType": "address",
          "name": "",
          "type": "address"
        },
        {
          "internalType": "address",
          "name": "",
          "type": "address"
        },
        {
          "internalType": "uint256",
          "name": "",
          "type": "uint256"
        },
        {
          "internalType": "uint256",
          "name": "",
          "type": "uint256"
        },
        {
          "internalType": "bytes",
          "name": "",
          "type": "bytes"
        }
      ],
      "name": "onERC1155Received",
      "outputs": [
        {
          "internalType": "bytes4",
          "name": "",
          "type": "bytes4"
        }
      ],
      "stateMutability": "nonpayable",
      "type": "function"
    },
    {
      "inputs": [],
      "name": "owner",
      "outputs": [
        {
          "internalType": "address",
          "name": "",
          "type": "address"
        }
      ],
      "stateMutability": "view",
      "type": "function"
    },
    {
      "inputs": [],
      "name": "price",
      "outputs": [
        {
          "internalType": "uint256",
          "name": "",
          "type": "uint256"
        }
      ],
      "stateMutability": "view",
      "type": "function"
    },
    {
      "inputs": [],
      "name": "renounceOwnership",
      "outputs": [],
      "stateMutability": "nonpayable",
      "type": "function"
    },
    {
      "inputs": [],
      "name": "seller",
      "outputs": [
        {
          "internalType": "address",
          "name": "",
          "type": "address"
        }
      ],
      "stateMutability": "view",
      "type": "function"
    },
    {
      "inputs": [
        {
          "internalType": "bytes4",
          "name": "interfaceId",
          "type": "bytes4"
        }
      ],
      "name": "supportsInterface",
      "outputs": [
        {
          "internalType": "bool",
          "name": "",
          "type": "bool"
        }
      ],
      "stateMutability": "view",
      "type": "function"
    },
    {
      "inputs": [],
      "name": "tokenId",
      "outputs": [
        {
          "internalType": "uint256",
          "name": "",
          "type": "uint256"
        }
      ],
      "stateMutability": "view",
      "type": "function"
    },
    {
      "inputs": [],
      "name": "totalAmount",
      "outputs": [
        {
          "internalType": "uint256",
          "name": "",
          "type": "uint256"
        }
      ],
      "stateMutability": "view",
      "type": "function"
    },
    {
      "inputs": [
        {
          "internalType": "address",
          "name": "newOwner",
          "type": "address"
        }
      ],
      "name": "transferOwnership",
      "outputs": [],
      "stateMutability": "nonpayable",
      "type": "function"
    },
    {
      "inputs": [],
      "name": "withdraw",
      "outputs": [],
      "stateMutability": "nonpayable",
      "type": "function"
    }
  ],
  "bytecode": "0x608060405234801561001057600080fd5b5061002d61002261003260201b60201c565b61003a60201b60201c565b6100fe565b600033905090565b60008060009054906101000a900473ffffffffffffffffffffffffffffffffffffffff169050816000806101000a81548173ffffffffffffffffffffffffffffffffffffffff021916908373ffffffffffffffffffffffffffffffffffffffff1602179055508173ffffffffffffffffffffffffffffffffffffffff168173ffffffffffffffffffffffffffffffffffffffff167f8be0079c531659141344cd1fd0a4f28419497f9722a3daafe3b4186f6b6457e060405160405180910390a35050565b611b0c8061010d6000396000f3fe6080604052600436106100f35760003560e01c806376fceb761161008a578063bc197c8111610059578063bc197c81146102d5578063ca6a715e14610312578063f23a6e6114610329578063f2fde38b14610366576100f3565b806376fceb761461022b5780638da5cb5b1461025457806391f7cfb91461027f578063a035b1fe146102aa576100f3565b80633ccfd60b116100c65780633ccfd60b146101b65780635bf8633a146101cd578063631f6d07146101f8578063715018a614610214576100f3565b806301ffc9a7146100f857806308551a531461013557806317d70f7c146101605780631a39d8ef1461018b575b600080fd5b34801561010457600080fd5b5061011f600480360381019061011a9190610eed565b61038f565b60405161012c9190610f35565b60405180910390f35b34801561014157600080fd5b5061014a610409565b6040516101579190610f91565b60405180910390f35b34801561016c57600080fd5b50610175610433565b6040516101829190610fc5565b60405180910390f35b34801561019757600080fd5b506101a061043d565b6040516101ad9190610fc5565b60405180910390f35b3480156101c257600080fd5b506101cb610447565b005b3480156101d957600080fd5b506101e2610631565b6040516101ef9190610f91565b60405180910390f35b610212600480360381019061020d919061100c565b61065b565b005b34801561022057600080fd5b50610229610804565b005b34801561023757600080fd5b50610252600480360381019061024d9190611065565b610818565b005b34801561026057600080fd5b50610269610a09565b6040516102769190610f91565b60405180910390f35b34801561028b57600080fd5b50610294610a32565b6040516102a19190610fc5565b60405180910390f35b3480156102b657600080fd5b506102bf610a3c565b6040516102cc9190610fc5565b60405180910390f35b3480156102e157600080fd5b506102fc60048036038101906102f791906112da565b610a46565b60405161030991906113b8565b60405180910390f35b34801561031e57600080fd5b50610327610a5b565b005b34801561033557600080fd5b50610350600480360381019061034b91906113d3565b610c11565b60405161035d91906113b8565b60405180910390f35b34801561037257600080fd5b5061038d6004803603810190610388919061146a565b610c26565b005b60007f4e2312e0000000000000000000000000000000000000000000000000000000007bffffffffffffffffffffffffffffffffffffffffffffffffffffffff1916827bffffffffffffffffffffffffffffffffffffffffffffffffffffffff19161480610402575061040182610caa565b5b9050919050565b6000600260009054906101000a900473ffffffffffffffffffffffffffffffffffffffff16905090565b6000600654905090565b6000600354905090565b600260009054906101000a900473ffffffffffffffffffffffffffffffffffffffff1673ffffffffffffffffffffffffffffffffffffffff16610488610d14565b73ffffffffffffffffffffffffffffffffffffffff16146104de576040517f08c379a00000000000000000000000000000000000000000000000000000000081526004016104d5906114f4565b60405180910390fd5b60006127106104eb610a09565b73ffffffffffffffffffffffffffffffffffffffff1663ddca3f436040518163ffffffff1660e01b815260040160206040518083038186803b15801561053057600080fd5b505afa158015610544573d6000803e3d6000fd5b505050506040513d601f19601f820116820180604052508101906105689190611550565b63ffffffff1660015461057b91906115ac565b6105859190611635565b905061058f610a09565b73ffffffffffffffffffffffffffffffffffffffff166108fc829081150290604051600060405180830381858888f193505050501580156105d4573d6000803e3d6000fd5b506105dd610d14565b73ffffffffffffffffffffffffffffffffffffffff166108fc82476106029190611666565b9081150290604051600060405180830381858888f1935050505015801561062d573d6000803e3d6000fd5b5050565b6000600560019054906101000a900473ffffffffffffffffffffffffffffffffffffffff16905090565b60008160045461066b9190611666565b10156106ac576040517f08c379a00000000000000000000000000000000000000000000000000000000081526004016106a3906116e6565b60405180910390fd5b806001546106ba91906115ac565b34146106fb576040517f08c379a00000000000000000000000000000000000000000000000000000000081526004016106f290611752565b60405180910390fd5b60011515600560009054906101000a900460ff16151514610751576040517f08c379a0000000000000000000000000000000000000000000000000000000008152600401610748906117be565b60405180910390fd5b8060045461075f9190611666565b600481905550600560019054906101000a900473ffffffffffffffffffffffffffffffffffffffff1673ffffffffffffffffffffffffffffffffffffffff1663f242432a306107ac610d14565b600654856040518563ffffffff1660e01b81526004016107cf9493929190611815565b600060405180830381600087803b1580156107e957600080fd5b505af11580156107fd573d6000803e3d6000fd5b5050505050565b61080c610d1c565b6108166000610d9a565b565b60008060159054906101000a900460ff1615905080801561084b57506001600060149054906101000a900460ff1660ff16105b8061087a575061085a30610e5e565b15801561087957506001600060149054906101000a900460ff1660ff16145b5b6108b9576040517f08c379a00000000000000000000000000000000000000000000000000000000081526004016108b0906118df565b60405180910390fd5b6001600060146101000a81548160ff021916908360ff16021790555080156108f7576001600060156101000a81548160ff0219169083151502179055505b8460018190555083600260006101000a81548173ffffffffffffffffffffffffffffffffffffffff021916908373ffffffffffffffffffffffffffffffffffffffff16021790555082600381905550826004819055506001600560006101000a81548160ff02191690831515021790555081600560016101000a81548173ffffffffffffffffffffffffffffffffffffffff021916908373ffffffffffffffffffffffffffffffffffffffff1602179055508015610a025760008060156101000a81548160ff0219169083151502179055507f7f26b83ff96e1f2b6a682f133852f6798a09c465da95921460cefb384740249860016040516109f99190611951565b60405180910390a15b5050505050565b60008060009054906101000a900473ffffffffffffffffffffffffffffffffffffffff16905090565b6000600454905090565b6000600154905090565b600063bc197c8160e01b905095945050505050565b60011515600560009054906101000a900460ff16151514610ab1576040517f08c379a0000000000000000000000000000000000000000000000000000000008152600401610aa8906119b8565b60405180910390fd5b600260009054906101000a900473ffffffffffffffffffffffffffffffffffffffff1673ffffffffffffffffffffffffffffffffffffffff16610af2610d14565b73ffffffffffffffffffffffffffffffffffffffff1614610b48576040517f08c379a0000000000000000000000000000000000000000000000000000000008152600401610b3f906114f4565b60405180910390fd5b6000600454905060006004819055506000600560006101000a81548160ff021916908315150217905550600560019054906101000a900473ffffffffffffffffffffffffffffffffffffffff1673ffffffffffffffffffffffffffffffffffffffff1663f242432a30610bb9610d14565b600654856040518563ffffffff1660e01b8152600401610bdc9493929190611815565b600060405180830381600087803b158015610bf657600080fd5b505af1158015610c0a573d6000803e3d6000fd5b5050505050565b600063f23a6e6160e01b905095945050505050565b610c2e610d1c565b600073ffffffffffffffffffffffffffffffffffffffff168173ffffffffffffffffffffffffffffffffffffffff161415610c9e576040517f08c379a0000000000000000000000000000000000000000000000000000000008152600401610c9590611a4a565b60405180910390fd5b610ca781610d9a565b50565b60007f01ffc9a7000000000000000000000000000000000000000000000000000000007bffffffffffffffffffffffffffffffffffffffffffffffffffffffff1916827bffffffffffffffffffffffffffffffffffffffffffffffffffffffff1916149050919050565b600033905090565b610d24610d14565b73ffffffffffffffffffffffffffffffffffffffff16610d42610a09565b73ffffffffffffffffffffffffffffffffffffffff1614610d98576040517f08c379a0000000000000000000000000000000000000000000000000000000008152600401610d8f90611ab6565b60405180910390fd5b565b60008060009054906101000a900473ffffffffffffffffffffffffffffffffffffffff169050816000806101000a81548173ffffffffffffffffffffffffffffffffffffffff021916908373ffffffffffffffffffffffffffffffffffffffff1602179055508173ffffffffffffffffffffffffffffffffffffffff168173ffffffffffffffffffffffffffffffffffffffff167f8be0079c531659141344cd1fd0a4f28419497f9722a3daafe3b4186f6b6457e060405160405180910390a35050565b6000808273ffffffffffffffffffffffffffffffffffffffff163b119050919050565b6000604051905090565b600080fd5b600080fd5b60007fffffffff0000000000000000000000000000000000000000000000000000000082169050919050565b610eca81610e95565b8114610ed557600080fd5b50565b600081359050610ee781610ec1565b92915050565b600060208284031215610f0357610f02610e8b565b5b6000610f1184828501610ed8565b91505092915050565b60008115159050919050565b610f2f81610f1a565b82525050565b6000602082019050610f4a6000830184610f26565b92915050565b600073ffffffffffffffffffffffffffffffffffffffff82169050919050565b6000610f7b82610f50565b9050919050565b610f8b81610f70565b82525050565b6000602082019050610fa66000830184610f82565b92915050565b6000819050919050565b610fbf81610fac565b82525050565b6000602082019050610fda6000830184610fb6565b92915050565b610fe981610fac565b8114610ff457600080fd5b50565b60008135905061100681610fe0565b92915050565b60006020828403121561102257611021610e8b565b5b600061103084828501610ff7565b91505092915050565b61104281610f70565b811461104d57600080fd5b50565b60008135905061105f81611039565b92915050565b6000806000806080858703121561107f5761107e610e8b565b5b600061108d87828801610ff7565b945050602061109e87828801611050565b93505060406110af87828801610ff7565b92505060606110c087828801611050565b91505092959194509250565b600080fd5b6000601f19601f8301169050919050565b7f4e487b7100000000000000000000000000000000000000000000000000000000600052604160045260246000fd5b61111a826110d1565b810181811067ffffffffffffffff82111715611139576111386110e2565b5b80604052505050565b600061114c610e81565b90506111588282611111565b919050565b600067ffffffffffffffff821115611178576111776110e2565b5b602082029050602081019050919050565b600080fd5b60006111a161119c8461115d565b611142565b905080838252602082019050602084028301858111156111c4576111c3611189565b5b835b818110156111ed57806111d98882610ff7565b8452602084019350506020810190506111c6565b5050509392505050565b600082601f83011261120c5761120b6110cc565b5b813561121c84826020860161118e565b91505092915050565b600080fd5b600067ffffffffffffffff821115611245576112446110e2565b5b61124e826110d1565b9050602081019050919050565b82818337600083830152505050565b600061127d6112788461122a565b611142565b90508281526020810184848401111561129957611298611225565b5b6112a484828561125b565b509392505050565b600082601f8301126112c1576112c06110cc565b5b81356112d184826020860161126a565b91505092915050565b600080600080600060a086880312156112f6576112f5610e8b565b5b600061130488828901611050565b955050602061131588828901611050565b945050604086013567ffffffffffffffff81111561133657611335610e90565b5b611342888289016111f7565b935050606086013567ffffffffffffffff81111561136357611362610e90565b5b61136f888289016111f7565b925050608086013567ffffffffffffffff8111156113905761138f610e90565b5b61139c888289016112ac565b9150509295509295909350565b6113b281610e95565b82525050565b60006020820190506113cd60008301846113a9565b92915050565b600080600080600060a086880312156113ef576113ee610e8b565b5b60006113fd88828901611050565b955050602061140e88828901611050565b945050604061141f88828901610ff7565b935050606061143088828901610ff7565b925050608086013567ffffffffffffffff81111561145157611450610e90565b5b61145d888289016112ac565b9150509295509295909350565b6000602082840312156114805761147f610e8b565b5b600061148e84828501611050565b91505092915050565b600082825260208201905092915050565b7f556e617574686f72697a65640000000000000000000000000000000000000000600082015250565b60006114de600c83611497565b91506114e9826114a8565b602082019050919050565b6000602082019050818103600083015261150d816114d1565b9050919050565b600063ffffffff82169050919050565b61152d81611514565b811461153857600080fd5b50565b60008151905061154a81611524565b92915050565b60006020828403121561156657611565610e8b565b5b60006115748482850161153b565b91505092915050565b7f4e487b7100000000000000000000000000000000000000000000000000000000600052601160045260246000fd5b60006115b782610fac565b91506115c283610fac565b9250817fffffffffffffffffffffffffffffffffffffffffffffffffffffffffffffffff04831182151516156115fb576115fa61157d565b5b828202905092915050565b7f4e487b7100000000000000000000000000000000000000000000000000000000600052601260045260246000fd5b600061164082610fac565b915061164b83610fac565b92508261165b5761165a611606565b5b828204905092915050565b600061167182610fac565b915061167c83610fac565b92508282101561168f5761168e61157d565b5b828203905092915050565b7f616d6f756e74206e6f7420617661696c61626c65000000000000000000000000600082015250565b60006116d0601483611497565b91506116db8261169a565b602082019050919050565b600060208201905081810360008301526116ff816116c3565b9050919050565b7f696e636f7272656374207061796d656e74000000000000000000000000000000600082015250565b600061173c601183611497565b915061174782611706565b602082019050919050565b6000602082019050818103600083015261176b8161172f565b9050919050565b7f4c697374696e672063616e63656c656400000000000000000000000000000000600082015250565b60006117a8601083611497565b91506117b382611772565b602082019050919050565b600060208201905081810360008301526117d78161179b565b9050919050565b600082825260208201905092915050565b50565b60006117ff6000836117de565b915061180a826117ef565b600082019050919050565b600060a08201905061182a6000830187610f82565b6118376020830186610f82565b6118446040830185610fb6565b6118516060830184610fb6565b8181036080830152611862816117f2565b905095945050505050565b7f496e697469616c697a61626c653a20636f6e747261637420697320616c72656160008201527f647920696e697469616c697a6564000000000000000000000000000000000000602082015250565b60006118c9602e83611497565b91506118d48261186d565b604082019050919050565b600060208201905081810360008301526118f8816118bc565b9050919050565b6000819050919050565b600060ff82169050919050565b6000819050919050565b600061193b611936611931846118ff565b611916565b611909565b9050919050565b61194b81611920565b82525050565b60006020820190506119666000830184611942565b92915050565b7f4c697374696e672070726576696f75736c792063616e63656c65640000000000600082015250565b60006119a2601b83611497565b91506119ad8261196c565b602082019050919050565b600060208201905081810360008301526119d181611995565b9050919050565b7f4f776e61626c653a206e6577206f776e657220697320746865207a65726f206160008201527f6464726573730000000000000000000000000000000000000000000000000000602082015250565b6000611a34602683611497565b9150611a3f826119d8565b604082019050919050565b60006020820190508181036000830152611a6381611a27565b9050919050565b7f4f776e61626c653a2063616c6c6572206973206e6f7420746865206f776e6572600082015250565b6000611aa0602083611497565b9150611aab82611a6a565b602082019050919050565b60006020820190508181036000830152611acf81611a93565b905091905056fea264697066735822122026432d61c9c9748d0a0411dc3cebbe84e2022d5a4220efd77097e0458b7dcdee64736f6c63430008090033",
  "linkReferences": {},
  "deployedLinkReferences": {}
}