{
  "_format": "hh-sol-artifact-1",
  "contractName": "Listing",
  "sourceName": "contracts/listing/Listing.sol",
  "abi": [
    {
      "inputs": [],
      "stateMutability": "nonpayable",
      "type": "constructor"
    },
    {
      "anonymous": false,
      "inputs": [
        {
          "indexed": false,
          "internalType": "uint256",
          "name": "amount",
          "type": "uint256"
        }
      ],
      "name": "FundsWithdrew",
      "type": "event"
    },
    {
      "anonymous": false,
      "inputs": [
        {
          "indexed": false,
          "internalType": "uint8",
          "name": "version",
          "type": "uint8"
        }
      ],
      "name": "Initialized",
      "type": "event"
    },
    {
      "anonymous": false,
      "inputs": [
        {
          "indexed": false,
          "internalType": "address",
          "name": "nft",
          "type": "address"
        },
        {
          "indexed": false,
          "internalType": "uint256",
          "name": "tokenId",
          "type": "uint256"
        },
        {
          "indexed": false,
          "internalType": "uint256",
          "name": "price",
          "type": "uint256"
        },
        {
          "indexed": false,
          "internalType": "uint256",
          "name": "amount",
          "type": "uint256"
        },
        {
          "indexed": false,
          "internalType": "address",
          "name": "buyer",
          "type": "address"
        },
        {
          "indexed": false,
          "internalType": "address",
          "name": "seller",
          "type": "address"
        }
      ],
      "name": "ItemsPurchased",
      "type": "event"
    },
    {
      "anonymous": false,
      "inputs": [],
      "name": "ListingCanceled",
      "type": "event"
    },
    {
      "anonymous": false,
      "inputs": [
        {
          "indexed": true,
          "internalType": "address",
          "name": "previousOwner",
          "type": "address"
        },
        {
          "indexed": true,
          "internalType": "address",
          "name": "newOwner",
          "type": "address"
        }
      ],
      "name": "OwnershipTransferred",
      "type": "event"
    },
    {
      "inputs": [
        {
          "internalType": "uint256",
          "name": "amount",
          "type": "uint256"
        },
        {
          "internalType": "address",
          "name": "to",
          "type": "address"
        }
      ],
      "name": "buyItems",
      "outputs": [],
      "stateMutability": "payable",
      "type": "function"
    },
    {
      "inputs": [],
      "name": "cancelListing",
      "outputs": [],
      "stateMutability": "nonpayable",
      "type": "function"
    },
    {
      "inputs": [
        {
          "internalType": "uint256",
          "name": "price_",
          "type": "uint256"
        },
        {
          "internalType": "address",
          "name": "seller_",
          "type": "address"
        },
        {
          "internalType": "address",
          "name": "midi_",
          "type": "address"
        },
        {
          "internalType": "uint256",
          "name": "tokenId_",
          "type": "uint256"
        }
      ],
      "name": "initialize",
      "outputs": [],
      "stateMutability": "nonpayable",
      "type": "function"
    },
    {
      "inputs": [],
      "name": "listed",
      "outputs": [
        {
          "internalType": "bool",
          "name": "",
          "type": "bool"
        }
      ],
      "stateMutability": "view",
      "type": "function"
    },
    {
      "inputs": [],
      "name": "nftAddress",
      "outputs": [
        {
          "internalType": "address",
          "name": "",
          "type": "address"
        }
      ],
      "stateMutability": "view",
      "type": "function"
    },
    {
      "inputs": [
        {
          "internalType": "address",
          "name": "",
          "type": "address"
        },
        {
          "internalType": "address",
          "name": "",
          "type": "address"
        },
        {
          "internalType": "uint256[]",
          "name": "",
          "type": "uint256[]"
        },
        {
          "internalType": "uint256[]",
          "name": "",
          "type": "uint256[]"
        },
        {
          "internalType": "bytes",
          "name": "",
          "type": "bytes"
        }
      ],
      "name": "onERC1155BatchReceived",
      "outputs": [
        {
          "internalType": "bytes4",
          "name": "",
          "type": "bytes4"
        }
      ],
      "stateMutability": "nonpayable",
      "type": "function"
    },
    {
      "inputs": [
        {
          "internalType": "address",
          "name": "",
          "type": "address"
        },
        {
          "internalType": "address",
          "name": "",
          "type": "address"
        },
        {
          "internalType": "uint256",
          "name": "",
          "type": "uint256"
        },
        {
          "internalType": "uint256",
          "name": "",
          "type": "uint256"
        },
        {
          "internalType": "bytes",
          "name": "",
          "type": "bytes"
        }
      ],
      "name": "onERC1155Received",
      "outputs": [
        {
          "internalType": "bytes4",
          "name": "",
          "type": "bytes4"
        }
      ],
      "stateMutability": "nonpayable",
      "type": "function"
    },
    {
      "inputs": [],
      "name": "owner",
      "outputs": [
        {
          "internalType": "address",
          "name": "",
          "type": "address"
        }
      ],
      "stateMutability": "view",
      "type": "function"
    },
    {
      "inputs": [],
      "name": "price",
      "outputs": [
        {
          "internalType": "uint256",
          "name": "",
          "type": "uint256"
        }
      ],
      "stateMutability": "view",
      "type": "function"
    },
    {
      "inputs": [],
      "name": "renounceOwnership",
      "outputs": [],
      "stateMutability": "nonpayable",
      "type": "function"
    },
    {
      "inputs": [],
      "name": "seller",
      "outputs": [
        {
          "internalType": "address",
          "name": "",
          "type": "address"
        }
      ],
      "stateMutability": "view",
      "type": "function"
    },
    {
      "inputs": [
        {
          "internalType": "bytes4",
          "name": "interfaceId",
          "type": "bytes4"
        }
      ],
      "name": "supportsInterface",
      "outputs": [
        {
          "internalType": "bool",
          "name": "",
          "type": "bool"
        }
      ],
      "stateMutability": "view",
      "type": "function"
    },
    {
      "inputs": [],
      "name": "tokenId",
      "outputs": [
        {
          "internalType": "uint256",
          "name": "",
          "type": "uint256"
        }
      ],
      "stateMutability": "view",
      "type": "function"
    },
    {
      "inputs": [
        {
          "internalType": "address",
          "name": "newOwner",
          "type": "address"
        }
      ],
      "name": "transferOwnership",
      "outputs": [],
      "stateMutability": "nonpayable",
      "type": "function"
    },
    {
      "inputs": [],
      "name": "withdraw",
      "outputs": [],
      "stateMutability": "nonpayable",
      "type": "function"
    }
  ],
  "bytecode": "0x608060405234801561001057600080fd5b50611ef6806100206000396000f3fe6080604052600436106100e85760003560e01c8063715018a61161008a578063ca6a715e11610059578063ca6a715e146102b3578063e37259e9146102ca578063f23a6e61146102f3578063f2fde38b14610330576100e8565b8063715018a6146102095780638da5cb5b14610220578063a035b1fe1461024b578063bc197c8114610276576100e8565b806317d70f7c116100c657806317d70f7c146101805780631c45202d146101ab5780633ccfd60b146101c75780635bf8633a146101de576100e8565b806301ffc9a7146100ed57806308551a531461012a5780631747a57b14610155575b600080fd5b3480156100f957600080fd5b50610114600480360381019061010f9190611185565b610359565b60405161012191906111cd565b60405180910390f35b34801561013657600080fd5b5061013f6103d3565b60405161014c9190611229565b60405180910390f35b34801561016157600080fd5b5061016a6103fd565b60405161017791906111cd565b60405180910390f35b34801561018c57600080fd5b50610195610414565b6040516101a2919061125d565b60405180910390f35b6101c560048036038101906101c091906112d0565b61041e565b005b3480156101d357600080fd5b506101dc610658565b005b3480156101ea57600080fd5b506101f36108fa565b6040516102009190611229565b60405180910390f35b34801561021557600080fd5b5061021e610924565b005b34801561022c57600080fd5b50610235610938565b6040516102429190611229565b60405180910390f35b34801561025757600080fd5b50610260610962565b60405161026d919061125d565b60405180910390f35b34801561028257600080fd5b5061029d6004803603810190610298919061151e565b61096c565b6040516102aa91906115fc565b60405180910390f35b3480156102bf57600080fd5b506102c8610981565b005b3480156102d657600080fd5b506102f160048036038101906102ec9190611617565b610c00565b005b3480156102ff57600080fd5b5061031a6004803603810190610315919061167e565b610ded565b60405161032791906115fc565b60405180910390f35b34801561033c57600080fd5b5061035760048036038101906103529190611715565b610e02565b005b60007f4e2312e0000000000000000000000000000000000000000000000000000000007bffffffffffffffffffffffffffffffffffffffffffffffffffffffff1916827bffffffffffffffffffffffffffffffffffffffffffffffffffffffff191614806103cc57506103cb82610e86565b5b9050919050565b6000606660009054906101000a900473ffffffffffffffffffffffffffffffffffffffff16905090565b6000606660149054906101000a900460ff16905090565b6000606854905090565b600082606760009054906101000a900473ffffffffffffffffffffffffffffffffffffffff1673ffffffffffffffffffffffffffffffffffffffff1662fdd58e306068546040518363ffffffff1660e01b815260040161047f929190611742565b60206040518083038186803b15801561049757600080fd5b505afa1580156104ab573d6000803e3d6000fd5b505050506040513d601f19601f820116820180604052508101906104cf9190611780565b6104d991906117dc565b101561051a576040517f08c379a00000000000000000000000000000000000000000000000000000000081526004016105119061186d565b60405180910390fd5b81606554610528919061188d565b3414610569576040517f08c379a000000000000000000000000000000000000000000000000000000000815260040161056090611933565b60405180910390fd5b60011515606660149054906101000a900460ff161515146105bf576040517f08c379a00000000000000000000000000000000000000000000000000000000081526004016105b69061199f565b60405180910390fd5b606760009054906101000a900473ffffffffffffffffffffffffffffffffffffffff1673ffffffffffffffffffffffffffffffffffffffff1663f242432a3083606854866040518563ffffffff1660e01b815260040161062294939291906119f6565b600060405180830381600087803b15801561063c57600080fd5b505af1158015610650573d6000803e3d6000fd5b505050505050565b606660009054906101000a900473ffffffffffffffffffffffffffffffffffffffff1673ffffffffffffffffffffffffffffffffffffffff16610699610ef0565b73ffffffffffffffffffffffffffffffffffffffff16146106ef576040517f08c379a00000000000000000000000000000000000000000000000000000000081526004016106e690611a9a565b60405180910390fd5b60006127106106fc610938565b73ffffffffffffffffffffffffffffffffffffffff1663ddca3f436040518163ffffffff1660e01b815260040160206040518083038186803b15801561074157600080fd5b505afa158015610755573d6000803e3d6000fd5b505050506040513d601f19601f820116820180604052508101906107799190611af6565b63ffffffff164761078a919061188d565b6107949190611b52565b9050600081476107a491906117dc565b90506107ae610938565b73ffffffffffffffffffffffffffffffffffffffff1663ed4a6b0c6040518163ffffffff1660e01b815260040160206040518083038186803b1580156107f357600080fd5b505afa158015610807573d6000803e3d6000fd5b505050506040513d601f19601f8201168201806040525081019061082b9190611b98565b73ffffffffffffffffffffffffffffffffffffffff166108fc839081150290604051600060405180830381858888f19350505050158015610870573d6000803e3d6000fd5b50610879610ef0565b73ffffffffffffffffffffffffffffffffffffffff166108fc829081150290604051600060405180830381858888f193505050501580156108be573d6000803e3d6000fd5b507faabe3b6b0ad8c0ab6438ff5876c4ed25e6c7f087ae0e449786d05b8ba46685ce816040516108ee919061125d565b60405180910390a15050565b6000606760009054906101000a900473ffffffffffffffffffffffffffffffffffffffff16905090565b61092c610ef8565b6109366000610f76565b565b6000603360009054906101000a900473ffffffffffffffffffffffffffffffffffffffff16905090565b6000606554905090565b600063bc197c8160e01b905095945050505050565b60011515606660149054906101000a900460ff161515146109d7576040517f08c379a00000000000000000000000000000000000000000000000000000000081526004016109ce90611c11565b60405180910390fd5b606660009054906101000a900473ffffffffffffffffffffffffffffffffffffffff1673ffffffffffffffffffffffffffffffffffffffff16610a18610ef0565b73ffffffffffffffffffffffffffffffffffffffff1614610a6e576040517f08c379a0000000000000000000000000000000000000000000000000000000008152600401610a6590611a9a565b60405180910390fd5b6000606660146101000a81548160ff021916908315150217905550606760009054906101000a900473ffffffffffffffffffffffffffffffffffffffff1673ffffffffffffffffffffffffffffffffffffffff1663f242432a30610ad0610ef0565b606854606760009054906101000a900473ffffffffffffffffffffffffffffffffffffffff1673ffffffffffffffffffffffffffffffffffffffff1662fdd58e306068546040518363ffffffff1660e01b8152600401610b31929190611742565b60206040518083038186803b158015610b4957600080fd5b505afa158015610b5d573d6000803e3d6000fd5b505050506040513d601f19601f82011682018060405250810190610b819190611780565b6040518563ffffffff1660e01b8152600401610ba094939291906119f6565b600060405180830381600087803b158015610bba57600080fd5b505af1158015610bce573d6000803e3d6000fd5b505050507fb553adaea1ed525af76ca57692f787bc6c0ddc7512b88cb8ce28d9a6cb0a76d460405160405180910390a1565b60008060019054906101000a900460ff16159050808015610c315750600160008054906101000a900460ff1660ff16105b80610c5e5750610c403061103c565b158015610c5d5750600160008054906101000a900460ff1660ff16145b5b610c9d576040517f08c379a0000000000000000000000000000000000000000000000000000000008152600401610c9490611ca3565b60405180910390fd5b60016000806101000a81548160ff021916908360ff1602179055508015610cda576001600060016101000a81548160ff0219169083151502179055505b610ce261105f565b8460658190555083606660006101000a81548173ffffffffffffffffffffffffffffffffffffffff021916908373ffffffffffffffffffffffffffffffffffffffff1602179055506001606660146101000a81548160ff02191690831515021790555082606760006101000a81548173ffffffffffffffffffffffffffffffffffffffff021916908373ffffffffffffffffffffffffffffffffffffffff160217905550816068819055508015610de65760008060016101000a81548160ff0219169083151502179055507f7f26b83ff96e1f2b6a682f133852f6798a09c465da95921460cefb38474024986001604051610ddd9190611d15565b60405180910390a15b5050505050565b600063f23a6e6160e01b905095945050505050565b610e0a610ef8565b600073ffffffffffffffffffffffffffffffffffffffff168173ffffffffffffffffffffffffffffffffffffffff161415610e7a576040517f08c379a0000000000000000000000000000000000000000000000000000000008152600401610e7190611da2565b60405180910390fd5b610e8381610f76565b50565b60007f01ffc9a7000000000000000000000000000000000000000000000000000000007bffffffffffffffffffffffffffffffffffffffffffffffffffffffff1916827bffffffffffffffffffffffffffffffffffffffffffffffffffffffff1916149050919050565b600033905090565b610f00610ef0565b73ffffffffffffffffffffffffffffffffffffffff16610f1e610938565b73ffffffffffffffffffffffffffffffffffffffff1614610f74576040517f08c379a0000000000000000000000000000000000000000000000000000000008152600401610f6b90611e0e565b60405180910390fd5b565b6000603360009054906101000a900473ffffffffffffffffffffffffffffffffffffffff16905081603360006101000a81548173ffffffffffffffffffffffffffffffffffffffff021916908373ffffffffffffffffffffffffffffffffffffffff1602179055508173ffffffffffffffffffffffffffffffffffffffff168173ffffffffffffffffffffffffffffffffffffffff167f8be0079c531659141344cd1fd0a4f28419497f9722a3daafe3b4186f6b6457e060405160405180910390a35050565b6000808273ffffffffffffffffffffffffffffffffffffffff163b119050919050565b600060019054906101000a900460ff166110ae576040517f08c379a00000000000000000000000000000000000000000000000000000000081526004016110a590611ea0565b60405180910390fd5b6110b66110b8565b565b600060019054906101000a900460ff16611107576040517f08c379a00000000000000000000000000000000000000000000000000000000081526004016110fe90611ea0565b60405180910390fd5b611117611112610ef0565b610f76565b565b6000604051905090565b600080fd5b600080fd5b60007fffffffff0000000000000000000000000000000000000000000000000000000082169050919050565b6111628161112d565b811461116d57600080fd5b50565b60008135905061117f81611159565b92915050565b60006020828403121561119b5761119a611123565b5b60006111a984828501611170565b91505092915050565b60008115159050919050565b6111c7816111b2565b82525050565b60006020820190506111e260008301846111be565b92915050565b600073ffffffffffffffffffffffffffffffffffffffff82169050919050565b6000611213826111e8565b9050919050565b61122381611208565b82525050565b600060208201905061123e600083018461121a565b92915050565b6000819050919050565b61125781611244565b82525050565b6000602082019050611272600083018461124e565b92915050565b61128181611244565b811461128c57600080fd5b50565b60008135905061129e81611278565b92915050565b6112ad81611208565b81146112b857600080fd5b50565b6000813590506112ca816112a4565b92915050565b600080604083850312156112e7576112e6611123565b5b60006112f58582860161128f565b9250506020611306858286016112bb565b9150509250929050565b600080fd5b6000601f19601f8301169050919050565b7f4e487b7100000000000000000000000000000000000000000000000000000000600052604160045260246000fd5b61135e82611315565b810181811067ffffffffffffffff8211171561137d5761137c611326565b5b80604052505050565b6000611390611119565b905061139c8282611355565b919050565b600067ffffffffffffffff8211156113bc576113bb611326565b5b602082029050602081019050919050565b600080fd5b60006113e56113e0846113a1565b611386565b90508083825260208201905060208402830185811115611408576114076113cd565b5b835b81811015611431578061141d888261128f565b84526020840193505060208101905061140a565b5050509392505050565b600082601f8301126114505761144f611310565b5b81356114608482602086016113d2565b91505092915050565b600080fd5b600067ffffffffffffffff82111561148957611488611326565b5b61149282611315565b9050602081019050919050565b82818337600083830152505050565b60006114c16114bc8461146e565b611386565b9050828152602081018484840111156114dd576114dc611469565b5b6114e884828561149f565b509392505050565b600082601f83011261150557611504611310565b5b81356115158482602086016114ae565b91505092915050565b600080600080600060a0868803121561153a57611539611123565b5b6000611548888289016112bb565b9550506020611559888289016112bb565b945050604086013567ffffffffffffffff81111561157a57611579611128565b5b6115868882890161143b565b935050606086013567ffffffffffffffff8111156115a7576115a6611128565b5b6115b38882890161143b565b925050608086013567ffffffffffffffff8111156115d4576115d3611128565b5b6115e0888289016114f0565b9150509295509295909350565b6115f68161112d565b82525050565b600060208201905061161160008301846115ed565b92915050565b6000806000806080858703121561163157611630611123565b5b600061163f8782880161128f565b9450506020611650878288016112bb565b9350506040611661878288016112bb565b92505060606116728782880161128f565b91505092959194509250565b600080600080600060a0868803121561169a57611699611123565b5b60006116a8888289016112bb565b95505060206116b9888289016112bb565b94505060406116ca8882890161128f565b93505060606116db8882890161128f565b925050608086013567ffffffffffffffff8111156116fc576116fb611128565b5b611708888289016114f0565b9150509295509295909350565b60006020828403121561172b5761172a611123565b5b6000611739848285016112bb565b91505092915050565b6000604082019050611757600083018561121a565b611764602083018461124e565b9392505050565b60008151905061177a81611278565b92915050565b60006020828403121561179657611795611123565b5b60006117a48482850161176b565b91505092915050565b7f4e487b7100000000000000000000000000000000000000000000000000000000600052601160045260246000fd5b60006117e782611244565b91506117f283611244565b925082821015611805576118046117ad565b5b828203905092915050565b600082825260208201905092915050565b7f616d6f756e74206e6f7420617661696c61626c65000000000000000000000000600082015250565b6000611857601483611810565b915061186282611821565b602082019050919050565b600060208201905081810360008301526118868161184a565b9050919050565b600061189882611244565b91506118a383611244565b9250817fffffffffffffffffffffffffffffffffffffffffffffffffffffffffffffffff04831182151516156118dc576118db6117ad565b5b828202905092915050565b7f696e636f7272656374207061796d656e74000000000000000000000000000000600082015250565b600061191d601183611810565b9150611928826118e7565b602082019050919050565b6000602082019050818103600083015261194c81611910565b9050919050565b7f4c697374696e672063616e63656c656400000000000000000000000000000000600082015250565b6000611989601083611810565b915061199482611953565b602082019050919050565b600060208201905081810360008301526119b88161197c565b9050919050565b600082825260208201905092915050565b50565b60006119e06000836119bf565b91506119eb826119d0565b600082019050919050565b600060a082019050611a0b600083018761121a565b611a18602083018661121a565b611a25604083018561124e565b611a32606083018461124e565b8181036080830152611a43816119d3565b905095945050505050565b7f556e617574686f72697a65640000000000000000000000000000000000000000600082015250565b6000611a84600c83611810565b9150611a8f82611a4e565b602082019050919050565b60006020820190508181036000830152611ab381611a77565b9050919050565b600063ffffffff82169050919050565b611ad381611aba565b8114611ade57600080fd5b50565b600081519050611af081611aca565b92915050565b600060208284031215611b0c57611b0b611123565b5b6000611b1a84828501611ae1565b91505092915050565b7f4e487b7100000000000000000000000000000000000000000000000000000000600052601260045260246000fd5b6000611b5d82611244565b9150611b6883611244565b925082611b7857611b77611b23565b5b828204905092915050565b600081519050611b92816112a4565b92915050565b600060208284031215611bae57611bad611123565b5b6000611bbc84828501611b83565b91505092915050565b7f4c697374696e672070726576696f75736c792063616e63656c65640000000000600082015250565b6000611bfb601b83611810565b9150611c0682611bc5565b602082019050919050565b60006020820190508181036000830152611c2a81611bee565b9050919050565b7f496e697469616c697a61626c653a20636f6e747261637420697320616c72656160008201527f647920696e697469616c697a6564000000000000000000000000000000000000602082015250565b6000611c8d602e83611810565b9150611c9882611c31565b604082019050919050565b60006020820190508181036000830152611cbc81611c80565b9050919050565b6000819050919050565b600060ff82169050919050565b6000819050919050565b6000611cff611cfa611cf584611cc3565b611cda565b611ccd565b9050919050565b611d0f81611ce4565b82525050565b6000602082019050611d2a6000830184611d06565b92915050565b7f4f776e61626c653a206e6577206f776e657220697320746865207a65726f206160008201527f6464726573730000000000000000000000000000000000000000000000000000602082015250565b6000611d8c602683611810565b9150611d9782611d30565b604082019050919050565b60006020820190508181036000830152611dbb81611d7f565b9050919050565b7f4f776e61626c653a2063616c6c6572206973206e6f7420746865206f776e6572600082015250565b6000611df8602083611810565b9150611e0382611dc2565b602082019050919050565b60006020820190508181036000830152611e2781611deb565b9050919050565b7f496e697469616c697a61626c653a20636f6e7472616374206973206e6f74206960008201527f6e697469616c697a696e67000000000000000000000000000000000000000000602082015250565b6000611e8a602b83611810565b9150611e9582611e2e565b604082019050919050565b60006020820190508181036000830152611eb981611e7d565b905091905056fea2646970667358221220b8720aa375ae67ac8017c0c68cbd4254e8f1627b7e6164b3f020a3c7b756732464736f6c63430008090033",
  "linkReferences": {},
  "deployedLinkReferences": {}
}