{
  "_format": "hh-sol-artifact-1",
  "contractName": "Listing",
  "sourceName": "contracts/listing/Listing.sol",
  "abi": [
    {
      "inputs": [],
      "stateMutability": "nonpayable",
      "type": "constructor"
    },
    {
      "anonymous": false,
      "inputs": [
        {
          "indexed": false,
          "internalType": "uint8",
          "name": "version",
          "type": "uint8"
        }
      ],
      "name": "Initialized",
      "type": "event"
    },
    {
      "anonymous": false,
      "inputs": [
        {
          "indexed": false,
          "internalType": "address",
          "name": "nft",
          "type": "address"
        },
        {
          "indexed": false,
          "internalType": "uint256",
          "name": "tokenId",
          "type": "uint256"
        },
        {
          "indexed": false,
          "internalType": "uint256",
          "name": "price",
          "type": "uint256"
        },
        {
          "indexed": false,
          "internalType": "uint256",
          "name": "amount",
          "type": "uint256"
        },
        {
          "indexed": false,
          "internalType": "address",
          "name": "buyer",
          "type": "address"
        },
        {
          "indexed": false,
          "internalType": "address",
          "name": "seller",
          "type": "address"
        }
      ],
      "name": "ItemsPurchased",
      "type": "event"
    },
    {
      "anonymous": false,
      "inputs": [
        {
          "indexed": true,
          "internalType": "address",
          "name": "previousOwner",
          "type": "address"
        },
        {
          "indexed": true,
          "internalType": "address",
          "name": "newOwner",
          "type": "address"
        }
      ],
      "name": "OwnershipTransferred",
      "type": "event"
    },
    {
      "inputs": [],
      "name": "availableAmount",
      "outputs": [
        {
          "internalType": "uint256",
          "name": "",
          "type": "uint256"
        }
      ],
      "stateMutability": "view",
      "type": "function"
    },
    {
      "inputs": [
        {
          "internalType": "uint256",
          "name": "amount",
          "type": "uint256"
        }
      ],
      "name": "buyItems",
      "outputs": [],
      "stateMutability": "payable",
      "type": "function"
    },
    {
      "inputs": [],
      "name": "cancelListing",
      "outputs": [],
      "stateMutability": "nonpayable",
      "type": "function"
    },
    {
      "inputs": [
        {
          "internalType": "uint256",
          "name": "price_",
          "type": "uint256"
        },
        {
          "internalType": "address",
          "name": "seller_",
          "type": "address"
        },
        {
          "internalType": "uint256",
          "name": "amount_",
          "type": "uint256"
        },
        {
          "internalType": "address",
          "name": "midi_",
          "type": "address"
        }
      ],
      "name": "initialize",
      "outputs": [],
      "stateMutability": "nonpayable",
      "type": "function"
    },
    {
      "inputs": [],
      "name": "nftAddress",
      "outputs": [
        {
          "internalType": "address",
          "name": "",
          "type": "address"
        }
      ],
      "stateMutability": "view",
      "type": "function"
    },
    {
      "inputs": [],
      "name": "owner",
      "outputs": [
        {
          "internalType": "address",
          "name": "",
          "type": "address"
        }
      ],
      "stateMutability": "view",
      "type": "function"
    },
    {
      "inputs": [],
      "name": "price",
      "outputs": [
        {
          "internalType": "uint256",
          "name": "",
          "type": "uint256"
        }
      ],
      "stateMutability": "view",
      "type": "function"
    },
    {
      "inputs": [],
      "name": "renounceOwnership",
      "outputs": [],
      "stateMutability": "nonpayable",
      "type": "function"
    },
    {
      "inputs": [],
      "name": "seller",
      "outputs": [
        {
          "internalType": "address",
          "name": "",
          "type": "address"
        }
      ],
      "stateMutability": "view",
      "type": "function"
    },
    {
      "inputs": [],
      "name": "tokenId",
      "outputs": [
        {
          "internalType": "uint256",
          "name": "",
          "type": "uint256"
        }
      ],
      "stateMutability": "view",
      "type": "function"
    },
    {
      "inputs": [],
      "name": "totalAmount",
      "outputs": [
        {
          "internalType": "uint256",
          "name": "",
          "type": "uint256"
        }
      ],
      "stateMutability": "view",
      "type": "function"
    },
    {
      "inputs": [
        {
          "internalType": "address",
          "name": "newOwner",
          "type": "address"
        }
      ],
      "name": "transferOwnership",
      "outputs": [],
      "stateMutability": "nonpayable",
      "type": "function"
    },
    {
      "inputs": [],
      "name": "withdraw",
      "outputs": [],
      "stateMutability": "nonpayable",
      "type": "function"
    }
  ],
  "bytecode": "0x608060405234801561001057600080fd5b5061002d61002261003260201b60201c565b61003a60201b60201c565b6100fe565b600033905090565b60008060009054906101000a900473ffffffffffffffffffffffffffffffffffffffff169050816000806101000a81548173ffffffffffffffffffffffffffffffffffffffff021916908373ffffffffffffffffffffffffffffffffffffffff1602179055508173ffffffffffffffffffffffffffffffffffffffff168173ffffffffffffffffffffffffffffffffffffffff167f8be0079c531659141344cd1fd0a4f28419497f9722a3daafe3b4186f6b6457e060405160405180910390a35050565b6114ae8061010d6000396000f3fe6080604052600436106100c25760003560e01c8063715018a61161007f57806391f7cfb91161005957806391f7cfb914610211578063a035b1fe1461023c578063ca6a715e14610267578063f2fde38b1461027e576100c2565b8063715018a6146101a657806376fceb76146101bd5780638da5cb5b146101e6576100c2565b806308551a53146100c757806317d70f7c146100f25780631a39d8ef1461011d5780633ccfd60b146101485780635bf8633a1461015f578063631f6d071461018a575b600080fd5b3480156100d357600080fd5b506100dc6102a7565b6040516100e99190610ccc565b60405180910390f35b3480156100fe57600080fd5b506101076102d1565b6040516101149190610d00565b60405180910390f35b34801561012957600080fd5b506101326102db565b60405161013f9190610d00565b60405180910390f35b34801561015457600080fd5b5061015d6102e5565b005b34801561016b57600080fd5b506101746104cf565b6040516101819190610ccc565b60405180910390f35b6101a4600480360381019061019f9190610d4c565b6104f9565b005b3480156101b257600080fd5b506101bb6106a2565b005b3480156101c957600080fd5b506101e460048036038101906101df9190610da5565b6106b6565b005b3480156101f257600080fd5b506101fb6108a7565b6040516102089190610ccc565b60405180910390f35b34801561021d57600080fd5b506102266108d0565b6040516102339190610d00565b60405180910390f35b34801561024857600080fd5b506102516108da565b60405161025e9190610d00565b60405180910390f35b34801561027357600080fd5b5061027c6108e4565b005b34801561028a57600080fd5b506102a560048036038101906102a09190610e0c565b610a9a565b005b6000600260009054906101000a900473ffffffffffffffffffffffffffffffffffffffff16905090565b6000600654905090565b6000600354905090565b600260009054906101000a900473ffffffffffffffffffffffffffffffffffffffff1673ffffffffffffffffffffffffffffffffffffffff16610326610b1e565b73ffffffffffffffffffffffffffffffffffffffff161461037c576040517f08c379a000000000000000000000000000000000000000000000000000000000815260040161037390610e96565b60405180910390fd5b60006127106103896108a7565b73ffffffffffffffffffffffffffffffffffffffff1663ddca3f436040518163ffffffff1660e01b815260040160206040518083038186803b1580156103ce57600080fd5b505afa1580156103e2573d6000803e3d6000fd5b505050506040513d601f19601f820116820180604052508101906104069190610ef2565b63ffffffff166001546104199190610f4e565b6104239190610fd7565b905061042d6108a7565b73ffffffffffffffffffffffffffffffffffffffff166108fc829081150290604051600060405180830381858888f19350505050158015610472573d6000803e3d6000fd5b5061047b610b1e565b73ffffffffffffffffffffffffffffffffffffffff166108fc82476104a09190611008565b9081150290604051600060405180830381858888f193505050501580156104cb573d6000803e3d6000fd5b5050565b6000600560019054906101000a900473ffffffffffffffffffffffffffffffffffffffff16905090565b6000816004546105099190611008565b101561054a576040517f08c379a000000000000000000000000000000000000000000000000000000000815260040161054190611088565b60405180910390fd5b806001546105589190610f4e565b3414610599576040517f08c379a0000000000000000000000000000000000000000000000000000000008152600401610590906110f4565b60405180910390fd5b60011515600560009054906101000a900460ff161515146105ef576040517f08c379a00000000000000000000000000000000000000000000000000000000081526004016105e690611160565b60405180910390fd5b806004546105fd9190611008565b600481905550600560019054906101000a900473ffffffffffffffffffffffffffffffffffffffff1673ffffffffffffffffffffffffffffffffffffffff1663f242432a3061064a610b1e565b600654856040518563ffffffff1660e01b815260040161066d94939291906111b7565b600060405180830381600087803b15801561068757600080fd5b505af115801561069b573d6000803e3d6000fd5b5050505050565b6106aa610b26565b6106b46000610ba4565b565b60008060159054906101000a900460ff161590508080156106e957506001600060149054906101000a900460ff1660ff16105b8061071857506106f830610c68565b15801561071757506001600060149054906101000a900460ff1660ff16145b5b610757576040517f08c379a000000000000000000000000000000000000000000000000000000000815260040161074e90611281565b60405180910390fd5b6001600060146101000a81548160ff021916908360ff1602179055508015610795576001600060156101000a81548160ff0219169083151502179055505b8460018190555083600260006101000a81548173ffffffffffffffffffffffffffffffffffffffff021916908373ffffffffffffffffffffffffffffffffffffffff16021790555082600381905550826004819055506001600560006101000a81548160ff02191690831515021790555081600560016101000a81548173ffffffffffffffffffffffffffffffffffffffff021916908373ffffffffffffffffffffffffffffffffffffffff16021790555080156108a05760008060156101000a81548160ff0219169083151502179055507f7f26b83ff96e1f2b6a682f133852f6798a09c465da95921460cefb3847402498600160405161089791906112f3565b60405180910390a15b5050505050565b60008060009054906101000a900473ffffffffffffffffffffffffffffffffffffffff16905090565b6000600454905090565b6000600154905090565b60011515600560009054906101000a900460ff1615151461093a576040517f08c379a00000000000000000000000000000000000000000000000000000000081526004016109319061135a565b60405180910390fd5b600260009054906101000a900473ffffffffffffffffffffffffffffffffffffffff1673ffffffffffffffffffffffffffffffffffffffff1661097b610b1e565b73ffffffffffffffffffffffffffffffffffffffff16146109d1576040517f08c379a00000000000000000000000000000000000000000000000000000000081526004016109c890610e96565b60405180910390fd5b6000600454905060006004819055506000600560006101000a81548160ff021916908315150217905550600560019054906101000a900473ffffffffffffffffffffffffffffffffffffffff1673ffffffffffffffffffffffffffffffffffffffff1663f242432a30610a42610b1e565b600654856040518563ffffffff1660e01b8152600401610a6594939291906111b7565b600060405180830381600087803b158015610a7f57600080fd5b505af1158015610a93573d6000803e3d6000fd5b5050505050565b610aa2610b26565b600073ffffffffffffffffffffffffffffffffffffffff168173ffffffffffffffffffffffffffffffffffffffff161415610b12576040517f08c379a0000000000000000000000000000000000000000000000000000000008152600401610b09906113ec565b60405180910390fd5b610b1b81610ba4565b50565b600033905090565b610b2e610b1e565b73ffffffffffffffffffffffffffffffffffffffff16610b4c6108a7565b73ffffffffffffffffffffffffffffffffffffffff1614610ba2576040517f08c379a0000000000000000000000000000000000000000000000000000000008152600401610b9990611458565b60405180910390fd5b565b60008060009054906101000a900473ffffffffffffffffffffffffffffffffffffffff169050816000806101000a81548173ffffffffffffffffffffffffffffffffffffffff021916908373ffffffffffffffffffffffffffffffffffffffff1602179055508173ffffffffffffffffffffffffffffffffffffffff168173ffffffffffffffffffffffffffffffffffffffff167f8be0079c531659141344cd1fd0a4f28419497f9722a3daafe3b4186f6b6457e060405160405180910390a35050565b6000808273ffffffffffffffffffffffffffffffffffffffff163b119050919050565b600073ffffffffffffffffffffffffffffffffffffffff82169050919050565b6000610cb682610c8b565b9050919050565b610cc681610cab565b82525050565b6000602082019050610ce16000830184610cbd565b92915050565b6000819050919050565b610cfa81610ce7565b82525050565b6000602082019050610d156000830184610cf1565b92915050565b600080fd5b610d2981610ce7565b8114610d3457600080fd5b50565b600081359050610d4681610d20565b92915050565b600060208284031215610d6257610d61610d1b565b5b6000610d7084828501610d37565b91505092915050565b610d8281610cab565b8114610d8d57600080fd5b50565b600081359050610d9f81610d79565b92915050565b60008060008060808587031215610dbf57610dbe610d1b565b5b6000610dcd87828801610d37565b9450506020610dde87828801610d90565b9350506040610def87828801610d37565b9250506060610e0087828801610d90565b91505092959194509250565b600060208284031215610e2257610e21610d1b565b5b6000610e3084828501610d90565b91505092915050565b600082825260208201905092915050565b7f556e617574686f72697a65640000000000000000000000000000000000000000600082015250565b6000610e80600c83610e39565b9150610e8b82610e4a565b602082019050919050565b60006020820190508181036000830152610eaf81610e73565b9050919050565b600063ffffffff82169050919050565b610ecf81610eb6565b8114610eda57600080fd5b50565b600081519050610eec81610ec6565b92915050565b600060208284031215610f0857610f07610d1b565b5b6000610f1684828501610edd565b91505092915050565b7f4e487b7100000000000000000000000000000000000000000000000000000000600052601160045260246000fd5b6000610f5982610ce7565b9150610f6483610ce7565b9250817fffffffffffffffffffffffffffffffffffffffffffffffffffffffffffffffff0483118215151615610f9d57610f9c610f1f565b5b828202905092915050565b7f4e487b7100000000000000000000000000000000000000000000000000000000600052601260045260246000fd5b6000610fe282610ce7565b9150610fed83610ce7565b925082610ffd57610ffc610fa8565b5b828204905092915050565b600061101382610ce7565b915061101e83610ce7565b92508282101561103157611030610f1f565b5b828203905092915050565b7f616d6f756e74206e6f7420617661696c61626c65000000000000000000000000600082015250565b6000611072601483610e39565b915061107d8261103c565b602082019050919050565b600060208201905081810360008301526110a181611065565b9050919050565b7f696e636f7272656374207061796d656e74000000000000000000000000000000600082015250565b60006110de601183610e39565b91506110e9826110a8565b602082019050919050565b6000602082019050818103600083015261110d816110d1565b9050919050565b7f4c697374696e672063616e63656c656400000000000000000000000000000000600082015250565b600061114a601083610e39565b915061115582611114565b602082019050919050565b600060208201905081810360008301526111798161113d565b9050919050565b600082825260208201905092915050565b50565b60006111a1600083611180565b91506111ac82611191565b600082019050919050565b600060a0820190506111cc6000830187610cbd565b6111d96020830186610cbd565b6111e66040830185610cf1565b6111f36060830184610cf1565b818103608083015261120481611194565b905095945050505050565b7f496e697469616c697a61626c653a20636f6e747261637420697320616c72656160008201527f647920696e697469616c697a6564000000000000000000000000000000000000602082015250565b600061126b602e83610e39565b91506112768261120f565b604082019050919050565b6000602082019050818103600083015261129a8161125e565b9050919050565b6000819050919050565b600060ff82169050919050565b6000819050919050565b60006112dd6112d86112d3846112a1565b6112b8565b6112ab565b9050919050565b6112ed816112c2565b82525050565b600060208201905061130860008301846112e4565b92915050565b7f4c697374696e672070726576696f75736c792063616e63656c65640000000000600082015250565b6000611344601b83610e39565b915061134f8261130e565b602082019050919050565b6000602082019050818103600083015261137381611337565b9050919050565b7f4f776e61626c653a206e6577206f776e657220697320746865207a65726f206160008201527f6464726573730000000000000000000000000000000000000000000000000000602082015250565b60006113d6602683610e39565b91506113e18261137a565b604082019050919050565b60006020820190508181036000830152611405816113c9565b9050919050565b7f4f776e61626c653a2063616c6c6572206973206e6f7420746865206f776e6572600082015250565b6000611442602083610e39565b915061144d8261140c565b602082019050919050565b6000602082019050818103600083015261147181611435565b905091905056fea264697066735822122075729e43cb3ac53252f05f73064da03e94bc7c1d3e9bdaa0193a0cc9890d9e8164736f6c63430008090033",
  "linkReferences": {},
  "deployedLinkReferences": {}
}