{
  "_format": "hh-sol-artifact-1",
  "contractName": "Listing",
  "sourceName": "contracts/listing/Listing.sol",
  "abi": [
    {
      "inputs": [],
      "stateMutability": "nonpayable",
      "type": "constructor"
    },
    {
      "anonymous": false,
      "inputs": [
        {
          "indexed": false,
          "internalType": "uint256",
          "name": "amount",
          "type": "uint256"
        }
      ],
      "name": "FundsWithdrew",
      "type": "event"
    },
    {
      "anonymous": false,
      "inputs": [
        {
          "indexed": false,
          "internalType": "uint8",
          "name": "version",
          "type": "uint8"
        }
      ],
      "name": "Initialized",
      "type": "event"
    },
    {
      "anonymous": false,
      "inputs": [
        {
          "indexed": false,
          "internalType": "address",
          "name": "nft",
          "type": "address"
        },
        {
          "indexed": false,
          "internalType": "uint256",
          "name": "tokenId",
          "type": "uint256"
        },
        {
          "indexed": false,
          "internalType": "uint256",
          "name": "price",
          "type": "uint256"
        },
        {
          "indexed": false,
          "internalType": "uint256",
          "name": "amount",
          "type": "uint256"
        },
        {
          "indexed": false,
          "internalType": "address",
          "name": "buyer",
          "type": "address"
        },
        {
          "indexed": false,
          "internalType": "address",
          "name": "seller",
          "type": "address"
        }
      ],
      "name": "ItemsPurchased",
      "type": "event"
    },
    {
      "anonymous": false,
      "inputs": [],
      "name": "ListingCanceled",
      "type": "event"
    },
    {
      "anonymous": false,
      "inputs": [
        {
          "indexed": true,
          "internalType": "address",
          "name": "previousOwner",
          "type": "address"
        },
        {
          "indexed": true,
          "internalType": "address",
          "name": "newOwner",
          "type": "address"
        }
      ],
      "name": "OwnershipTransferred",
      "type": "event"
    },
    {
      "inputs": [],
      "name": "availableAmount",
      "outputs": [
        {
          "internalType": "uint256",
          "name": "",
          "type": "uint256"
        }
      ],
      "stateMutability": "view",
      "type": "function"
    },
    {
      "inputs": [
        {
          "internalType": "uint256",
          "name": "amount",
          "type": "uint256"
        }
      ],
      "name": "buyItems",
      "outputs": [],
      "stateMutability": "payable",
      "type": "function"
    },
    {
      "inputs": [],
      "name": "cancelListing",
      "outputs": [],
      "stateMutability": "nonpayable",
      "type": "function"
    },
    {
      "inputs": [
        {
          "internalType": "uint256",
          "name": "price_",
          "type": "uint256"
        },
        {
          "internalType": "address",
          "name": "seller_",
          "type": "address"
        },
        {
          "internalType": "uint256",
          "name": "amount_",
          "type": "uint256"
        },
        {
          "internalType": "address",
          "name": "midi_",
          "type": "address"
        },
        {
          "internalType": "uint256",
          "name": "tokenId_",
          "type": "uint256"
        }
      ],
      "name": "initialize",
      "outputs": [],
      "stateMutability": "nonpayable",
      "type": "function"
    },
    {
      "inputs": [],
      "name": "listed",
      "outputs": [
        {
          "internalType": "bool",
          "name": "",
          "type": "bool"
        }
      ],
      "stateMutability": "view",
      "type": "function"
    },
    {
      "inputs": [],
      "name": "nftAddress",
      "outputs": [
        {
          "internalType": "address",
          "name": "",
          "type": "address"
        }
      ],
      "stateMutability": "view",
      "type": "function"
    },
    {
      "inputs": [
        {
          "internalType": "address",
          "name": "",
          "type": "address"
        },
        {
          "internalType": "address",
          "name": "",
          "type": "address"
        },
        {
          "internalType": "uint256[]",
          "name": "",
          "type": "uint256[]"
        },
        {
          "internalType": "uint256[]",
          "name": "",
          "type": "uint256[]"
        },
        {
          "internalType": "bytes",
          "name": "",
          "type": "bytes"
        }
      ],
      "name": "onERC1155BatchReceived",
      "outputs": [
        {
          "internalType": "bytes4",
          "name": "",
          "type": "bytes4"
        }
      ],
      "stateMutability": "nonpayable",
      "type": "function"
    },
    {
      "inputs": [
        {
          "internalType": "address",
          "name": "",
          "type": "address"
        },
        {
          "internalType": "address",
          "name": "",
          "type": "address"
        },
        {
          "internalType": "uint256",
          "name": "",
          "type": "uint256"
        },
        {
          "internalType": "uint256",
          "name": "",
          "type": "uint256"
        },
        {
          "internalType": "bytes",
          "name": "",
          "type": "bytes"
        }
      ],
      "name": "onERC1155Received",
      "outputs": [
        {
          "internalType": "bytes4",
          "name": "",
          "type": "bytes4"
        }
      ],
      "stateMutability": "nonpayable",
      "type": "function"
    },
    {
      "inputs": [],
      "name": "owner",
      "outputs": [
        {
          "internalType": "address",
          "name": "",
          "type": "address"
        }
      ],
      "stateMutability": "view",
      "type": "function"
    },
    {
      "inputs": [],
      "name": "price",
      "outputs": [
        {
          "internalType": "uint256",
          "name": "",
          "type": "uint256"
        }
      ],
      "stateMutability": "view",
      "type": "function"
    },
    {
      "inputs": [],
      "name": "renounceOwnership",
      "outputs": [],
      "stateMutability": "nonpayable",
      "type": "function"
    },
    {
      "inputs": [],
      "name": "seller",
      "outputs": [
        {
          "internalType": "address",
          "name": "",
          "type": "address"
        }
      ],
      "stateMutability": "view",
      "type": "function"
    },
    {
      "inputs": [
        {
          "internalType": "bytes4",
          "name": "interfaceId",
          "type": "bytes4"
        }
      ],
      "name": "supportsInterface",
      "outputs": [
        {
          "internalType": "bool",
          "name": "",
          "type": "bool"
        }
      ],
      "stateMutability": "view",
      "type": "function"
    },
    {
      "inputs": [],
      "name": "tokenId",
      "outputs": [
        {
          "internalType": "uint256",
          "name": "",
          "type": "uint256"
        }
      ],
      "stateMutability": "view",
      "type": "function"
    },
    {
      "inputs": [],
      "name": "totalAmount",
      "outputs": [
        {
          "internalType": "uint256",
          "name": "",
          "type": "uint256"
        }
      ],
      "stateMutability": "view",
      "type": "function"
    },
    {
      "inputs": [
        {
          "internalType": "address",
          "name": "newOwner",
          "type": "address"
        }
      ],
      "name": "transferOwnership",
      "outputs": [],
      "stateMutability": "nonpayable",
      "type": "function"
    },
    {
      "inputs": [],
      "name": "withdraw",
      "outputs": [],
      "stateMutability": "nonpayable",
      "type": "function"
    }
  ],
  "bytecode": "0x608060405234801561001057600080fd5b5061002d61002261003260201b60201c565b61003a60201b60201c565b6100fe565b600033905090565b60008060009054906101000a900473ffffffffffffffffffffffffffffffffffffffff169050816000806101000a81548173ffffffffffffffffffffffffffffffffffffffff021916908373ffffffffffffffffffffffffffffffffffffffff1602179055508173ffffffffffffffffffffffffffffffffffffffff168173ffffffffffffffffffffffffffffffffffffffff167f8be0079c531659141344cd1fd0a4f28419497f9722a3daafe3b4186f6b6457e060405160405180910390a35050565b611ca28061010d6000396000f3fe6080604052600436106100fe5760003560e01c806363a24b7a11610095578063a035b1fe11610064578063a035b1fe146102e0578063bc197c811461030b578063ca6a715e14610348578063f23a6e611461035f578063f2fde38b1461039c576100fe565b806363a24b7a1461024a578063715018a6146102735780638da5cb5b1461028a57806391f7cfb9146102b5576100fe565b80631a39d8ef116100d15780631a39d8ef146101c15780633ccfd60b146101ec5780635bf8633a14610203578063631f6d071461022e576100fe565b806301ffc9a71461010357806308551a53146101405780631747a57b1461016b57806317d70f7c14610196575b600080fd5b34801561010f57600080fd5b5061012a6004803603810190610125919061102d565b6103c5565b6040516101379190611075565b60405180910390f35b34801561014c57600080fd5b5061015561043f565b60405161016291906110d1565b60405180910390f35b34801561017757600080fd5b50610180610469565b60405161018d9190611075565b60405180910390f35b3480156101a257600080fd5b506101ab610480565b6040516101b89190611105565b60405180910390f35b3480156101cd57600080fd5b506101d661048a565b6040516101e39190611105565b60405180910390f35b3480156101f857600080fd5b50610201610494565b005b34801561020f57600080fd5b5061021861073d565b60405161022591906110d1565b60405180910390f35b6102486004803603810190610243919061114c565b610767565b005b34801561025657600080fd5b50610271600480360381019061026c91906111a5565b610910565b005b34801561027f57600080fd5b50610288610b09565b005b34801561029657600080fd5b5061029f610b1d565b6040516102ac91906110d1565b60405180910390f35b3480156102c157600080fd5b506102ca610b46565b6040516102d79190611105565b60405180910390f35b3480156102ec57600080fd5b506102f5610b50565b6040516103029190611105565b60405180910390f35b34801561031757600080fd5b50610332600480360381019061032d919061142e565b610b5a565b60405161033f919061150c565b60405180910390f35b34801561035457600080fd5b5061035d610b6f565b005b34801561036b57600080fd5b5061038660048036038101906103819190611527565b610d51565b604051610393919061150c565b60405180910390f35b3480156103a857600080fd5b506103c360048036038101906103be91906115be565b610d66565b005b60007f4e2312e0000000000000000000000000000000000000000000000000000000007bffffffffffffffffffffffffffffffffffffffffffffffffffffffff1916827bffffffffffffffffffffffffffffffffffffffffffffffffffffffff19161480610438575061043782610dea565b5b9050919050565b6000600260009054906101000a900473ffffffffffffffffffffffffffffffffffffffff16905090565b6000600560009054906101000a900460ff16905090565b6000600654905090565b6000600354905090565b600260009054906101000a900473ffffffffffffffffffffffffffffffffffffffff1673ffffffffffffffffffffffffffffffffffffffff166104d5610e54565b73ffffffffffffffffffffffffffffffffffffffff161461052b576040517f08c379a000000000000000000000000000000000000000000000000000000000815260040161052290611648565b60405180910390fd5b6000612710610538610b1d565b73ffffffffffffffffffffffffffffffffffffffff1663ddca3f436040518163ffffffff1660e01b815260040160206040518083038186803b15801561057d57600080fd5b505afa158015610591573d6000803e3d6000fd5b505050506040513d601f19601f820116820180604052508101906105b591906116a4565b63ffffffff166001546105c89190611700565b6105d29190611789565b90506105dc610b1d565b73ffffffffffffffffffffffffffffffffffffffff1663ed4a6b0c6040518163ffffffff1660e01b815260040160206040518083038186803b15801561062157600080fd5b505afa158015610635573d6000803e3d6000fd5b505050506040513d601f19601f8201168201806040525081019061065991906117cf565b73ffffffffffffffffffffffffffffffffffffffff166108fc829081150290604051600060405180830381858888f1935050505015801561069e573d6000803e3d6000fd5b506106a7610e54565b73ffffffffffffffffffffffffffffffffffffffff166108fc82476106cc91906117fc565b9081150290604051600060405180830381858888f193505050501580156106f7573d6000803e3d6000fd5b507faabe3b6b0ad8c0ab6438ff5876c4ed25e6c7f087ae0e449786d05b8ba46685ce814761072591906117fc565b6040516107329190611105565b60405180910390a150565b6000600560019054906101000a900473ffffffffffffffffffffffffffffffffffffffff16905090565b60008160045461077791906117fc565b10156107b8576040517f08c379a00000000000000000000000000000000000000000000000000000000081526004016107af9061187c565b60405180910390fd5b806001546107c69190611700565b3414610807576040517f08c379a00000000000000000000000000000000000000000000000000000000081526004016107fe906118e8565b60405180910390fd5b60011515600560009054906101000a900460ff1615151461085d576040517f08c379a000000000000000000000000000000000000000000000000000000000815260040161085490611954565b60405180910390fd5b8060045461086b91906117fc565b600481905550600560019054906101000a900473ffffffffffffffffffffffffffffffffffffffff1673ffffffffffffffffffffffffffffffffffffffff1663f242432a306108b8610e54565b600654856040518563ffffffff1660e01b81526004016108db94939291906119ab565b600060405180830381600087803b1580156108f557600080fd5b505af1158015610909573d6000803e3d6000fd5b5050505050565b60008060159054906101000a900460ff1615905080801561094357506001600060149054906101000a900460ff1660ff16105b80610972575061095230610e5c565b15801561097157506001600060149054906101000a900460ff1660ff16145b5b6109b1576040517f08c379a00000000000000000000000000000000000000000000000000000000081526004016109a890611a75565b60405180910390fd5b6001600060146101000a81548160ff021916908360ff16021790555080156109ef576001600060156101000a81548160ff0219169083151502179055505b8560018190555084600260006101000a81548173ffffffffffffffffffffffffffffffffffffffff021916908373ffffffffffffffffffffffffffffffffffffffff16021790555083600381905550836004819055506001600560006101000a81548160ff02191690831515021790555082600560016101000a81548173ffffffffffffffffffffffffffffffffffffffff021916908373ffffffffffffffffffffffffffffffffffffffff160217905550816006819055508015610b015760008060156101000a81548160ff0219169083151502179055507f7f26b83ff96e1f2b6a682f133852f6798a09c465da95921460cefb38474024986001604051610af89190611ae7565b60405180910390a15b505050505050565b610b11610e7f565b610b1b6000610efd565b565b60008060009054906101000a900473ffffffffffffffffffffffffffffffffffffffff16905090565b6000600454905090565b6000600154905090565b600063bc197c8160e01b905095945050505050565b60011515600560009054906101000a900460ff16151514610bc5576040517f08c379a0000000000000000000000000000000000000000000000000000000008152600401610bbc90611b4e565b60405180910390fd5b600260009054906101000a900473ffffffffffffffffffffffffffffffffffffffff1673ffffffffffffffffffffffffffffffffffffffff16610c06610e54565b73ffffffffffffffffffffffffffffffffffffffff1614610c5c576040517f08c379a0000000000000000000000000000000000000000000000000000000008152600401610c5390611648565b60405180910390fd5b6000600454905060006004819055506000600560006101000a81548160ff021916908315150217905550600560019054906101000a900473ffffffffffffffffffffffffffffffffffffffff1673ffffffffffffffffffffffffffffffffffffffff1663f242432a30610ccd610e54565b600654856040518563ffffffff1660e01b8152600401610cf094939291906119ab565b600060405180830381600087803b158015610d0a57600080fd5b505af1158015610d1e573d6000803e3d6000fd5b505050507fb553adaea1ed525af76ca57692f787bc6c0ddc7512b88cb8ce28d9a6cb0a76d460405160405180910390a150565b600063f23a6e6160e01b905095945050505050565b610d6e610e7f565b600073ffffffffffffffffffffffffffffffffffffffff168173ffffffffffffffffffffffffffffffffffffffff161415610dde576040517f08c379a0000000000000000000000000000000000000000000000000000000008152600401610dd590611be0565b60405180910390fd5b610de781610efd565b50565b60007f01ffc9a7000000000000000000000000000000000000000000000000000000007bffffffffffffffffffffffffffffffffffffffffffffffffffffffff1916827bffffffffffffffffffffffffffffffffffffffffffffffffffffffff1916149050919050565b600033905090565b6000808273ffffffffffffffffffffffffffffffffffffffff163b119050919050565b610e87610e54565b73ffffffffffffffffffffffffffffffffffffffff16610ea5610b1d565b73ffffffffffffffffffffffffffffffffffffffff1614610efb576040517f08c379a0000000000000000000000000000000000000000000000000000000008152600401610ef290611c4c565b60405180910390fd5b565b60008060009054906101000a900473ffffffffffffffffffffffffffffffffffffffff169050816000806101000a81548173ffffffffffffffffffffffffffffffffffffffff021916908373ffffffffffffffffffffffffffffffffffffffff1602179055508173ffffffffffffffffffffffffffffffffffffffff168173ffffffffffffffffffffffffffffffffffffffff167f8be0079c531659141344cd1fd0a4f28419497f9722a3daafe3b4186f6b6457e060405160405180910390a35050565b6000604051905090565b600080fd5b600080fd5b60007fffffffff0000000000000000000000000000000000000000000000000000000082169050919050565b61100a81610fd5565b811461101557600080fd5b50565b60008135905061102781611001565b92915050565b60006020828403121561104357611042610fcb565b5b600061105184828501611018565b91505092915050565b60008115159050919050565b61106f8161105a565b82525050565b600060208201905061108a6000830184611066565b92915050565b600073ffffffffffffffffffffffffffffffffffffffff82169050919050565b60006110bb82611090565b9050919050565b6110cb816110b0565b82525050565b60006020820190506110e660008301846110c2565b92915050565b6000819050919050565b6110ff816110ec565b82525050565b600060208201905061111a60008301846110f6565b92915050565b611129816110ec565b811461113457600080fd5b50565b60008135905061114681611120565b92915050565b60006020828403121561116257611161610fcb565b5b600061117084828501611137565b91505092915050565b611182816110b0565b811461118d57600080fd5b50565b60008135905061119f81611179565b92915050565b600080600080600060a086880312156111c1576111c0610fcb565b5b60006111cf88828901611137565b95505060206111e088828901611190565b94505060406111f188828901611137565b935050606061120288828901611190565b925050608061121388828901611137565b9150509295509295909350565b600080fd5b6000601f19601f8301169050919050565b7f4e487b7100000000000000000000000000000000000000000000000000000000600052604160045260246000fd5b61126e82611225565b810181811067ffffffffffffffff8211171561128d5761128c611236565b5b80604052505050565b60006112a0610fc1565b90506112ac8282611265565b919050565b600067ffffffffffffffff8211156112cc576112cb611236565b5b602082029050602081019050919050565b600080fd5b60006112f56112f0846112b1565b611296565b90508083825260208201905060208402830185811115611318576113176112dd565b5b835b81811015611341578061132d8882611137565b84526020840193505060208101905061131a565b5050509392505050565b600082601f8301126113605761135f611220565b5b81356113708482602086016112e2565b91505092915050565b600080fd5b600067ffffffffffffffff82111561139957611398611236565b5b6113a282611225565b9050602081019050919050565b82818337600083830152505050565b60006113d16113cc8461137e565b611296565b9050828152602081018484840111156113ed576113ec611379565b5b6113f88482856113af565b509392505050565b600082601f83011261141557611414611220565b5b81356114258482602086016113be565b91505092915050565b600080600080600060a0868803121561144a57611449610fcb565b5b600061145888828901611190565b955050602061146988828901611190565b945050604086013567ffffffffffffffff81111561148a57611489610fd0565b5b6114968882890161134b565b935050606086013567ffffffffffffffff8111156114b7576114b6610fd0565b5b6114c38882890161134b565b925050608086013567ffffffffffffffff8111156114e4576114e3610fd0565b5b6114f088828901611400565b9150509295509295909350565b61150681610fd5565b82525050565b600060208201905061152160008301846114fd565b92915050565b600080600080600060a0868803121561154357611542610fcb565b5b600061155188828901611190565b955050602061156288828901611190565b945050604061157388828901611137565b935050606061158488828901611137565b925050608086013567ffffffffffffffff8111156115a5576115a4610fd0565b5b6115b188828901611400565b9150509295509295909350565b6000602082840312156115d4576115d3610fcb565b5b60006115e284828501611190565b91505092915050565b600082825260208201905092915050565b7f556e617574686f72697a65640000000000000000000000000000000000000000600082015250565b6000611632600c836115eb565b915061163d826115fc565b602082019050919050565b6000602082019050818103600083015261166181611625565b9050919050565b600063ffffffff82169050919050565b61168181611668565b811461168c57600080fd5b50565b60008151905061169e81611678565b92915050565b6000602082840312156116ba576116b9610fcb565b5b60006116c88482850161168f565b91505092915050565b7f4e487b7100000000000000000000000000000000000000000000000000000000600052601160045260246000fd5b600061170b826110ec565b9150611716836110ec565b9250817fffffffffffffffffffffffffffffffffffffffffffffffffffffffffffffffff048311821515161561174f5761174e6116d1565b5b828202905092915050565b7f4e487b7100000000000000000000000000000000000000000000000000000000600052601260045260246000fd5b6000611794826110ec565b915061179f836110ec565b9250826117af576117ae61175a565b5b828204905092915050565b6000815190506117c981611179565b92915050565b6000602082840312156117e5576117e4610fcb565b5b60006117f3848285016117ba565b91505092915050565b6000611807826110ec565b9150611812836110ec565b925082821015611825576118246116d1565b5b828203905092915050565b7f616d6f756e74206e6f7420617661696c61626c65000000000000000000000000600082015250565b60006118666014836115eb565b915061187182611830565b602082019050919050565b6000602082019050818103600083015261189581611859565b9050919050565b7f696e636f7272656374207061796d656e74000000000000000000000000000000600082015250565b60006118d26011836115eb565b91506118dd8261189c565b602082019050919050565b60006020820190508181036000830152611901816118c5565b9050919050565b7f4c697374696e672063616e63656c656400000000000000000000000000000000600082015250565b600061193e6010836115eb565b915061194982611908565b602082019050919050565b6000602082019050818103600083015261196d81611931565b9050919050565b600082825260208201905092915050565b50565b6000611995600083611974565b91506119a082611985565b600082019050919050565b600060a0820190506119c060008301876110c2565b6119cd60208301866110c2565b6119da60408301856110f6565b6119e760608301846110f6565b81810360808301526119f881611988565b905095945050505050565b7f496e697469616c697a61626c653a20636f6e747261637420697320616c72656160008201527f647920696e697469616c697a6564000000000000000000000000000000000000602082015250565b6000611a5f602e836115eb565b9150611a6a82611a03565b604082019050919050565b60006020820190508181036000830152611a8e81611a52565b9050919050565b6000819050919050565b600060ff82169050919050565b6000819050919050565b6000611ad1611acc611ac784611a95565b611aac565b611a9f565b9050919050565b611ae181611ab6565b82525050565b6000602082019050611afc6000830184611ad8565b92915050565b7f4c697374696e672070726576696f75736c792063616e63656c65640000000000600082015250565b6000611b38601b836115eb565b9150611b4382611b02565b602082019050919050565b60006020820190508181036000830152611b6781611b2b565b9050919050565b7f4f776e61626c653a206e6577206f776e657220697320746865207a65726f206160008201527f6464726573730000000000000000000000000000000000000000000000000000602082015250565b6000611bca6026836115eb565b9150611bd582611b6e565b604082019050919050565b60006020820190508181036000830152611bf981611bbd565b9050919050565b7f4f776e61626c653a2063616c6c6572206973206e6f7420746865206f776e6572600082015250565b6000611c366020836115eb565b9150611c4182611c00565b602082019050919050565b60006020820190508181036000830152611c6581611c29565b905091905056fea2646970667358221220f0ebd2b50005b79264be9796517140a324248aeb8c52cd92688fa013ee6a6f1c64736f6c63430008090033",
  "linkReferences": {},
  "deployedLinkReferences": {}
}