{
  "_format": "hh-sol-artifact-1",
  "contractName": "MIDI",
  "sourceName": "contracts/midi/MIDI.sol",
  "abi": [
    {
      "inputs": [],
      "stateMutability": "nonpayable",
      "type": "constructor"
    },
    {
      "anonymous": false,
      "inputs": [
        {
          "indexed": true,
          "internalType": "address",
          "name": "account",
          "type": "address"
        },
        {
          "indexed": true,
          "internalType": "address",
          "name": "operator",
          "type": "address"
        },
        {
          "indexed": false,
          "internalType": "bool",
          "name": "approved",
          "type": "bool"
        }
      ],
      "name": "ApprovalForAll",
      "type": "event"
    },
    {
      "anonymous": false,
      "inputs": [
        {
          "indexed": true,
          "internalType": "address",
          "name": "operator",
          "type": "address"
        },
        {
          "indexed": true,
          "internalType": "address",
          "name": "from",
          "type": "address"
        },
        {
          "indexed": true,
          "internalType": "address",
          "name": "to",
          "type": "address"
        },
        {
          "indexed": false,
          "internalType": "uint256[]",
          "name": "ids",
          "type": "uint256[]"
        },
        {
          "indexed": false,
          "internalType": "uint256[]",
          "name": "values",
          "type": "uint256[]"
        }
      ],
      "name": "TransferBatch",
      "type": "event"
    },
    {
      "anonymous": false,
      "inputs": [
        {
          "indexed": true,
          "internalType": "address",
          "name": "operator",
          "type": "address"
        },
        {
          "indexed": true,
          "internalType": "address",
          "name": "from",
          "type": "address"
        },
        {
          "indexed": true,
          "internalType": "address",
          "name": "to",
          "type": "address"
        },
        {
          "indexed": false,
          "internalType": "uint256",
          "name": "id",
          "type": "uint256"
        },
        {
          "indexed": false,
          "internalType": "uint256",
          "name": "value",
          "type": "uint256"
        }
      ],
      "name": "TransferSingle",
      "type": "event"
    },
    {
      "anonymous": false,
      "inputs": [
        {
          "indexed": false,
          "internalType": "string",
          "name": "value",
          "type": "string"
        },
        {
          "indexed": true,
          "internalType": "uint256",
          "name": "id",
          "type": "uint256"
        }
      ],
      "name": "URI",
      "type": "event"
    },
    {
      "inputs": [
        {
          "internalType": "address",
          "name": "account",
          "type": "address"
        },
        {
          "internalType": "uint256",
          "name": "id",
          "type": "uint256"
        }
      ],
      "name": "balanceOf",
      "outputs": [
        {
          "internalType": "uint256",
          "name": "",
          "type": "uint256"
        }
      ],
      "stateMutability": "view",
      "type": "function"
    },
    {
      "inputs": [
        {
          "internalType": "address[]",
          "name": "accounts",
          "type": "address[]"
        },
        {
          "internalType": "uint256[]",
          "name": "ids",
          "type": "uint256[]"
        }
      ],
      "name": "balanceOfBatch",
      "outputs": [
        {
          "internalType": "uint256[]",
          "name": "",
          "type": "uint256[]"
        }
      ],
      "stateMutability": "view",
      "type": "function"
    },
    {
      "inputs": [
        {
          "internalType": "address",
          "name": "from",
          "type": "address"
        },
        {
          "internalType": "uint256",
          "name": "id",
          "type": "uint256"
        },
        {
          "internalType": "uint256",
          "name": "amount",
          "type": "uint256"
        }
      ],
      "name": "burn",
      "outputs": [],
      "stateMutability": "nonpayable",
      "type": "function"
    },
    {
      "inputs": [
        {
          "internalType": "address",
          "name": "from",
          "type": "address"
        },
        {
          "internalType": "uint256[]",
          "name": "ids",
          "type": "uint256[]"
        },
        {
          "internalType": "uint256[]",
          "name": "amounts",
          "type": "uint256[]"
        }
      ],
      "name": "burnBatch",
      "outputs": [],
      "stateMutability": "nonpayable",
      "type": "function"
    },
    {
      "inputs": [],
      "name": "currentTokenId",
      "outputs": [
        {
          "internalType": "uint256",
          "name": "",
          "type": "uint256"
        }
      ],
      "stateMutability": "view",
      "type": "function"
    },
    {
      "inputs": [
        {
          "internalType": "uint256",
          "name": "id",
          "type": "uint256"
        }
      ],
      "name": "exists",
      "outputs": [
        {
          "internalType": "bool",
          "name": "",
          "type": "bool"
        }
      ],
      "stateMutability": "view",
      "type": "function"
    },
    {
      "inputs": [
        {
          "internalType": "address",
          "name": "account",
          "type": "address"
        },
        {
          "internalType": "address",
          "name": "operator",
          "type": "address"
        }
      ],
      "name": "isApprovedForAll",
      "outputs": [
        {
          "internalType": "bool",
          "name": "",
          "type": "bool"
        }
      ],
      "stateMutability": "view",
      "type": "function"
    },
    {
      "inputs": [
        {
          "internalType": "address",
          "name": "to",
          "type": "address"
        },
        {
          "internalType": "uint256",
          "name": "amount",
          "type": "uint256"
        },
        {
          "internalType": "string",
          "name": "tokenURI",
          "type": "string"
        },
        {
          "internalType": "bytes",
          "name": "data",
          "type": "bytes"
        }
      ],
      "name": "mint",
      "outputs": [],
      "stateMutability": "nonpayable",
      "type": "function"
    },
    {
      "inputs": [
        {
          "internalType": "address",
          "name": "from",
          "type": "address"
        },
        {
          "internalType": "address",
          "name": "to",
          "type": "address"
        },
        {
          "internalType": "uint256[]",
          "name": "ids",
          "type": "uint256[]"
        },
        {
          "internalType": "uint256[]",
          "name": "amounts",
          "type": "uint256[]"
        },
        {
          "internalType": "bytes",
          "name": "data",
          "type": "bytes"
        }
      ],
      "name": "safeBatchTransferFrom",
      "outputs": [],
      "stateMutability": "nonpayable",
      "type": "function"
    },
    {
      "inputs": [
        {
          "internalType": "address",
          "name": "from",
          "type": "address"
        },
        {
          "internalType": "address",
          "name": "to",
          "type": "address"
        },
        {
          "internalType": "uint256",
          "name": "id",
          "type": "uint256"
        },
        {
          "internalType": "uint256",
          "name": "amount",
          "type": "uint256"
        },
        {
          "internalType": "bytes",
          "name": "data",
          "type": "bytes"
        }
      ],
      "name": "safeTransferFrom",
      "outputs": [],
      "stateMutability": "nonpayable",
      "type": "function"
    },
    {
      "inputs": [
        {
          "internalType": "address",
          "name": "operator",
          "type": "address"
        },
        {
          "internalType": "bool",
          "name": "approved",
          "type": "bool"
        }
      ],
      "name": "setApprovalForAll",
      "outputs": [],
      "stateMutability": "nonpayable",
      "type": "function"
    },
    {
      "inputs": [
        {
          "internalType": "bytes4",
          "name": "interfaceId",
          "type": "bytes4"
        }
      ],
      "name": "supportsInterface",
      "outputs": [
        {
          "internalType": "bool",
          "name": "",
          "type": "bool"
        }
      ],
      "stateMutability": "view",
      "type": "function"
    },
    {
      "inputs": [
        {
          "internalType": "uint256",
          "name": "id",
          "type": "uint256"
        }
      ],
      "name": "totalSupply",
      "outputs": [
        {
          "internalType": "uint256",
          "name": "",
          "type": "uint256"
        }
      ],
      "stateMutability": "view",
      "type": "function"
    },
    {
      "inputs": [
        {
          "internalType": "uint256",
          "name": "tokenId",
          "type": "uint256"
        }
      ],
      "name": "uri",
      "outputs": [
        {
          "internalType": "string",
          "name": "",
          "type": "string"
        }
      ],
      "stateMutability": "view",
      "type": "function"
    }
  ],
  "bytecode": "0x60806040523480156200001157600080fd5b506040518060200160405280600081525062000033816200003a60201b60201c565b506200016b565b80600290805190602001906200005292919062000056565b5050565b828054620000649062000135565b90600052602060002090601f016020900481019282620000885760008555620000d4565b82601f10620000a357805160ff1916838001178555620000d4565b82800160010185558215620000d4579182015b82811115620000d3578251825591602001919060010190620000b6565b5b509050620000e39190620000e7565b5090565b5b8082111562000102576000816000905550600101620000e8565b5090565b7f4e487b7100000000000000000000000000000000000000000000000000000000600052602260045260246000fd5b600060028204905060018216806200014e57607f821691505b6020821081141562000165576200016462000106565b5b50919050565b613531806200017b6000396000f3fe608060405234801561001057600080fd5b50600436106100e85760003560e01c80636b20c4541161008c578063d2b04fd611610066578063d2b04fd61461027f578063e985e9c51461029b578063f242432a146102cb578063f5298aca146102e7576100e8565b80636b20c45414610217578063a22cb46514610233578063bd85b0391461024f576100e8565b80630e89341c116100c85780630e89341c1461016b5780632eb2c2d61461019b5780634e1273f4146101b75780634f558e79146101e7576100e8565b80629a9b7b146100ed578062fdd58e1461010b57806301ffc9a71461013b575b600080fd5b6100f5610303565b6040516101029190611ec2565b60405180910390f35b61012560048036038101906101209190611f7b565b610314565b6040516101329190611ec2565b60405180910390f35b61015560048036038101906101509190612013565b6103dd565b604051610162919061205b565b60405180910390f35b61018560048036038101906101809190612076565b6104bf565b604051610192919061213c565b60405180910390f35b6101b560048036038101906101b0919061235b565b610564565b005b6101d160048036038101906101cc91906124ed565b610605565b6040516101de9190612623565b60405180910390f35b61020160048036038101906101fc9190612076565b61071e565b60405161020e919061205b565b60405180910390f35b610231600480360381019061022c9190612645565b610732565b005b61024d600480360381019061024891906126fc565b610742565b005b61026960048036038101906102649190612076565b610758565b6040516102769190611ec2565b60405180910390f35b610299600480360381019061029491906127dd565b610775565b005b6102b560048036038101906102b0919061287c565b6107aa565b6040516102c2919061205b565b60405180910390f35b6102e560048036038101906102e091906128bc565b61083e565b005b61030160048036038101906102fc9190612953565b6108df565b005b600061030f60046108ef565b905090565b60008073ffffffffffffffffffffffffffffffffffffffff168373ffffffffffffffffffffffffffffffffffffffff161415610385576040517f08c379a000000000000000000000000000000000000000000000000000000000815260040161037c90612a18565b60405180910390fd5b60008083815260200190815260200160002060008473ffffffffffffffffffffffffffffffffffffffff1673ffffffffffffffffffffffffffffffffffffffff16815260200190815260200160002054905092915050565b60007fd9b67a26000000000000000000000000000000000000000000000000000000007bffffffffffffffffffffffffffffffffffffffffffffffffffffffff1916827bffffffffffffffffffffffffffffffffffffffffffffffffffffffff191614806104a857507f0e89341c000000000000000000000000000000000000000000000000000000007bffffffffffffffffffffffffffffffffffffffffffffffffffffffff1916827bffffffffffffffffffffffffffffffffffffffffffffffffffffffff1916145b806104b857506104b7826108fd565b5b9050919050565b60606005600083815260200190815260200160002080546104df90612a67565b80601f016020809104026020016040519081016040528092919081815260200182805461050b90612a67565b80156105585780601f1061052d57610100808354040283529160200191610558565b820191906000526020600020905b81548152906001019060200180831161053b57829003601f168201915b50505050509050919050565b61056c610967565b73ffffffffffffffffffffffffffffffffffffffff168573ffffffffffffffffffffffffffffffffffffffff1614806105b257506105b1856105ac610967565b6107aa565b5b6105f1576040517f08c379a00000000000000000000000000000000000000000000000000000000081526004016105e890612b0b565b60405180910390fd5b6105fe858585858561096f565b5050505050565b6060815183511461064b576040517f08c379a000000000000000000000000000000000000000000000000000000000815260040161064290612b9d565b60405180910390fd5b6000835167ffffffffffffffff81111561066857610667612163565b5b6040519080825280602002602001820160405280156106965781602001602082028036833780820191505090505b50905060005b8451811015610713576106e38582815181106106bb576106ba612bbd565b5b60200260200101518583815181106106d6576106d5612bbd565b5b6020026020010151610314565b8282815181106106f6576106f5612bbd565b5b6020026020010181815250508061070c90612c1b565b905061069c565b508091505092915050565b60008061072a83610758565b119050919050565b61073d838383610c91565b505050565b61075461074d610967565b8383610f60565b5050565b600060036000838152602001908152602001600020549050919050565b61077f60046110cd565b600061078b60046108ef565b905061079781846110e3565b6107a38582868561110f565b5050505050565b6000600160008473ffffffffffffffffffffffffffffffffffffffff1673ffffffffffffffffffffffffffffffffffffffff16815260200190815260200160002060008373ffffffffffffffffffffffffffffffffffffffff1673ffffffffffffffffffffffffffffffffffffffff16815260200190815260200160002060009054906101000a900460ff16905092915050565b610846610967565b73ffffffffffffffffffffffffffffffffffffffff168573ffffffffffffffffffffffffffffffffffffffff16148061088c575061088b85610886610967565b6107aa565b5b6108cb576040517f08c379a00000000000000000000000000000000000000000000000000000000081526004016108c290612b0b565b60405180910390fd5b6108d885858585856112c0565b5050505050565b6108ea83838361155c565b505050565b600081600001549050919050565b60007f01ffc9a7000000000000000000000000000000000000000000000000000000007bffffffffffffffffffffffffffffffffffffffffffffffffffffffff1916827bffffffffffffffffffffffffffffffffffffffffffffffffffffffff1916149050919050565b600033905090565b81518351146109b3576040517f08c379a00000000000000000000000000000000000000000000000000000000081526004016109aa90612cd6565b60405180910390fd5b600073ffffffffffffffffffffffffffffffffffffffff168473ffffffffffffffffffffffffffffffffffffffff161415610a23576040517f08c379a0000000000000000000000000000000000000000000000000000000008152600401610a1a90612d68565b60405180910390fd5b6000610a2d610967565b9050610a3d8187878787876117a3565b60005b8451811015610bee576000858281518110610a5e57610a5d612bbd565b5b602002602001015190506000858381518110610a7d57610a7c612bbd565b5b60200260200101519050600080600084815260200190815260200160002060008b73ffffffffffffffffffffffffffffffffffffffff1673ffffffffffffffffffffffffffffffffffffffff16815260200190815260200160002054905081811015610b1e576040517f08c379a0000000000000000000000000000000000000000000000000000000008152600401610b1590612dfa565b60405180910390fd5b81810360008085815260200190815260200160002060008c73ffffffffffffffffffffffffffffffffffffffff1673ffffffffffffffffffffffffffffffffffffffff168152602001908152602001600020819055508160008085815260200190815260200160002060008b73ffffffffffffffffffffffffffffffffffffffff1673ffffffffffffffffffffffffffffffffffffffff1681526020019081526020016000206000828254610bd39190612e1a565b9250508190555050505080610be790612c1b565b9050610a40565b508473ffffffffffffffffffffffffffffffffffffffff168673ffffffffffffffffffffffffffffffffffffffff168273ffffffffffffffffffffffffffffffffffffffff167f4a39dc06d4c0dbc64b70af90fd698a233a518aa5d07e595d983b8c0526c8f7fb8787604051610c65929190612e70565b60405180910390a4610c7b8187878787876117b9565b610c898187878787876117c1565b505050505050565b600073ffffffffffffffffffffffffffffffffffffffff168373ffffffffffffffffffffffffffffffffffffffff161415610d01576040517f08c379a0000000000000000000000000000000000000000000000000000000008152600401610cf890612f19565b60405180910390fd5b8051825114610d45576040517f08c379a0000000000000000000000000000000000000000000000000000000008152600401610d3c90612cd6565b60405180910390fd5b6000610d4f610967565b9050610d6f818560008686604051806020016040528060008152506117a3565b60005b8351811015610ebc576000848281518110610d9057610d8f612bbd565b5b602002602001015190506000848381518110610daf57610dae612bbd565b5b60200260200101519050600080600084815260200190815260200160002060008973ffffffffffffffffffffffffffffffffffffffff1673ffffffffffffffffffffffffffffffffffffffff16815260200190815260200160002054905081811015610e50576040517f08c379a0000000000000000000000000000000000000000000000000000000008152600401610e4790612fab565b60405180910390fd5b81810360008085815260200190815260200160002060008a73ffffffffffffffffffffffffffffffffffffffff1673ffffffffffffffffffffffffffffffffffffffff168152602001908152602001600020819055505050508080610eb490612c1b565b915050610d72565b50600073ffffffffffffffffffffffffffffffffffffffff168473ffffffffffffffffffffffffffffffffffffffff168273ffffffffffffffffffffffffffffffffffffffff167f4a39dc06d4c0dbc64b70af90fd698a233a518aa5d07e595d983b8c0526c8f7fb8686604051610f34929190612e70565b60405180910390a4610f5a818560008686604051806020016040528060008152506117b9565b50505050565b8173ffffffffffffffffffffffffffffffffffffffff168373ffffffffffffffffffffffffffffffffffffffff161415610fcf576040517f08c379a0000000000000000000000000000000000000000000000000000000008152600401610fc69061303d565b60405180910390fd5b80600160008573ffffffffffffffffffffffffffffffffffffffff1673ffffffffffffffffffffffffffffffffffffffff16815260200190815260200160002060008473ffffffffffffffffffffffffffffffffffffffff1673ffffffffffffffffffffffffffffffffffffffff16815260200190815260200160002060006101000a81548160ff0219169083151502179055508173ffffffffffffffffffffffffffffffffffffffff168373ffffffffffffffffffffffffffffffffffffffff167f17307eab39ab6107e8899845ad3d59bd9653f200f220920489ca2b5937696c31836040516110c0919061205b565b60405180910390a3505050565b6001816000016000828254019250508190555050565b8060056000848152602001908152602001600020908051906020019061110a929190611e06565b505050565b600073ffffffffffffffffffffffffffffffffffffffff168473ffffffffffffffffffffffffffffffffffffffff16141561117f576040517f08c379a0000000000000000000000000000000000000000000000000000000008152600401611176906130cf565b60405180910390fd5b6000611189610967565b90506000611196856119a8565b905060006111a3856119a8565b90506111b4836000898585896117a3565b8460008088815260200190815260200160002060008973ffffffffffffffffffffffffffffffffffffffff1673ffffffffffffffffffffffffffffffffffffffff16815260200190815260200160002060008282546112139190612e1a565b925050819055508673ffffffffffffffffffffffffffffffffffffffff16600073ffffffffffffffffffffffffffffffffffffffff168473ffffffffffffffffffffffffffffffffffffffff167fc3d58168c5ae7397731d063d5bbf3d657854427343f4c083240f7aacaa2d0f6289896040516112919291906130ef565b60405180910390a46112a8836000898585896117b9565b6112b783600089898989611a22565b50505050505050565b600073ffffffffffffffffffffffffffffffffffffffff168473ffffffffffffffffffffffffffffffffffffffff161415611330576040517f08c379a000000000000000000000000000000000000000000000000000000000815260040161132790612d68565b60405180910390fd5b600061133a610967565b90506000611347856119a8565b90506000611354856119a8565b90506113648389898585896117a3565b600080600088815260200190815260200160002060008a73ffffffffffffffffffffffffffffffffffffffff1673ffffffffffffffffffffffffffffffffffffffff168152602001908152602001600020549050858110156113fb576040517f08c379a00000000000000000000000000000000000000000000000000000000081526004016113f290612dfa565b60405180910390fd5b85810360008089815260200190815260200160002060008b73ffffffffffffffffffffffffffffffffffffffff1673ffffffffffffffffffffffffffffffffffffffff168152602001908152602001600020819055508560008089815260200190815260200160002060008a73ffffffffffffffffffffffffffffffffffffffff1673ffffffffffffffffffffffffffffffffffffffff16815260200190815260200160002060008282546114b09190612e1a565b925050819055508773ffffffffffffffffffffffffffffffffffffffff168973ffffffffffffffffffffffffffffffffffffffff168573ffffffffffffffffffffffffffffffffffffffff167fc3d58168c5ae7397731d063d5bbf3d657854427343f4c083240f7aacaa2d0f628a8a60405161152d9291906130ef565b60405180910390a4611543848a8a86868a6117b9565b611551848a8a8a8a8a611a22565b505050505050505050565b600073ffffffffffffffffffffffffffffffffffffffff168373ffffffffffffffffffffffffffffffffffffffff1614156115cc576040517f08c379a00000000000000000000000000000000000000000000000000000000081526004016115c390612f19565b60405180910390fd5b60006115d6610967565b905060006115e3846119a8565b905060006115f0846119a8565b9050611610838760008585604051806020016040528060008152506117a3565b600080600087815260200190815260200160002060008873ffffffffffffffffffffffffffffffffffffffff1673ffffffffffffffffffffffffffffffffffffffff168152602001908152602001600020549050848110156116a7576040517f08c379a000000000000000000000000000000000000000000000000000000000815260040161169e90612fab565b60405180910390fd5b84810360008088815260200190815260200160002060008973ffffffffffffffffffffffffffffffffffffffff1673ffffffffffffffffffffffffffffffffffffffff16815260200190815260200160002081905550600073ffffffffffffffffffffffffffffffffffffffff168773ffffffffffffffffffffffffffffffffffffffff168573ffffffffffffffffffffffffffffffffffffffff167fc3d58168c5ae7397731d063d5bbf3d657854427343f4c083240f7aacaa2d0f6289896040516117749291906130ef565b60405180910390a461179a848860008686604051806020016040528060008152506117b9565b50505050505050565b6117b1868686868686611c09565b505050505050565b505050505050565b6117e08473ffffffffffffffffffffffffffffffffffffffff16611ddb565b156119a0578373ffffffffffffffffffffffffffffffffffffffff1663bc197c8187878686866040518663ffffffff1660e01b815260040161182695949392919061317c565b602060405180830381600087803b15801561184057600080fd5b505af192505050801561187157506040513d601f19601f8201168201806040525081019061186e91906131f9565b60015b6119175761187d613233565b806308c379a014156118da5750611892613255565b8061189d57506118dc565b806040517f08c379a00000000000000000000000000000000000000000000000000000000081526004016118d1919061213c565b60405180910390fd5b505b6040517f08c379a000000000000000000000000000000000000000000000000000000000815260040161190e9061335d565b60405180910390fd5b63bc197c8160e01b7bffffffffffffffffffffffffffffffffffffffffffffffffffffffff1916817bffffffffffffffffffffffffffffffffffffffffffffffffffffffff19161461199e576040517f08c379a0000000000000000000000000000000000000000000000000000000008152600401611995906133ef565b60405180910390fd5b505b505050505050565b60606000600167ffffffffffffffff8111156119c7576119c6612163565b5b6040519080825280602002602001820160405280156119f55781602001602082028036833780820191505090505b5090508281600081518110611a0d57611a0c612bbd565b5b60200260200101818152505080915050919050565b611a418473ffffffffffffffffffffffffffffffffffffffff16611ddb565b15611c01578373ffffffffffffffffffffffffffffffffffffffff1663f23a6e6187878686866040518663ffffffff1660e01b8152600401611a8795949392919061340f565b602060405180830381600087803b158015611aa157600080fd5b505af1925050508015611ad257506040513d601f19601f82011682018060405250810190611acf91906131f9565b60015b611b7857611ade613233565b806308c379a01415611b3b5750611af3613255565b80611afe5750611b3d565b806040517f08c379a0000000000000000000000000000000000000000000000000000000008152600401611b32919061213c565b60405180910390fd5b505b6040517f08c379a0000000000000000000000000000000000000000000000000000000008152600401611b6f9061335d565b60405180910390fd5b63f23a6e6160e01b7bffffffffffffffffffffffffffffffffffffffffffffffffffffffff1916817bffffffffffffffffffffffffffffffffffffffffffffffffffffffff191614611bff576040517f08c379a0000000000000000000000000000000000000000000000000000000008152600401611bf6906133ef565b60405180910390fd5b505b505050505050565b611c17868686868686611dfe565b600073ffffffffffffffffffffffffffffffffffffffff168573ffffffffffffffffffffffffffffffffffffffff161415611cc95760005b8351811015611cc757828181518110611c6b57611c6a612bbd565b5b602002602001015160036000868481518110611c8a57611c89612bbd565b5b602002602001015181526020019081526020016000206000828254611caf9190612e1a565b9250508190555080611cc090612c1b565b9050611c4f565b505b600073ffffffffffffffffffffffffffffffffffffffff168473ffffffffffffffffffffffffffffffffffffffff161415611dd35760005b8351811015611dd1576000848281518110611d1f57611d1e612bbd565b5b602002602001015190506000848381518110611d3e57611d3d612bbd565b5b6020026020010151905060006003600084815260200190815260200160002054905081811015611da3576040517f08c379a0000000000000000000000000000000000000000000000000000000008152600401611d9a906134db565b60405180910390fd5b818103600360008581526020019081526020016000208190555050505080611dca90612c1b565b9050611d01565b505b505050505050565b6000808273ffffffffffffffffffffffffffffffffffffffff163b119050919050565b505050505050565b828054611e1290612a67565b90600052602060002090601f016020900481019282611e345760008555611e7b565b82601f10611e4d57805160ff1916838001178555611e7b565b82800160010185558215611e7b579182015b82811115611e7a578251825591602001919060010190611e5f565b5b509050611e889190611e8c565b5090565b5b80821115611ea5576000816000905550600101611e8d565b5090565b6000819050919050565b611ebc81611ea9565b82525050565b6000602082019050611ed76000830184611eb3565b92915050565b6000604051905090565b600080fd5b600080fd5b600073ffffffffffffffffffffffffffffffffffffffff82169050919050565b6000611f1c82611ef1565b9050919050565b611f2c81611f11565b8114611f3757600080fd5b50565b600081359050611f4981611f23565b92915050565b611f5881611ea9565b8114611f6357600080fd5b50565b600081359050611f7581611f4f565b92915050565b60008060408385031215611f9257611f91611ee7565b5b6000611fa085828601611f3a565b9250506020611fb185828601611f66565b9150509250929050565b60007fffffffff0000000000000000000000000000000000000000000000000000000082169050919050565b611ff081611fbb565b8114611ffb57600080fd5b50565b60008135905061200d81611fe7565b92915050565b60006020828403121561202957612028611ee7565b5b600061203784828501611ffe565b91505092915050565b60008115159050919050565b61205581612040565b82525050565b6000602082019050612070600083018461204c565b92915050565b60006020828403121561208c5761208b611ee7565b5b600061209a84828501611f66565b91505092915050565b600081519050919050565b600082825260208201905092915050565b60005b838110156120dd5780820151818401526020810190506120c2565b838111156120ec576000848401525b50505050565b6000601f19601f8301169050919050565b600061210e826120a3565b61211881856120ae565b93506121288185602086016120bf565b612131816120f2565b840191505092915050565b600060208201905081810360008301526121568184612103565b905092915050565b600080fd5b7f4e487b7100000000000000000000000000000000000000000000000000000000600052604160045260246000fd5b61219b826120f2565b810181811067ffffffffffffffff821117156121ba576121b9612163565b5b80604052505050565b60006121cd611edd565b90506121d98282612192565b919050565b600067ffffffffffffffff8211156121f9576121f8612163565b5b602082029050602081019050919050565b600080fd5b600061222261221d846121de565b6121c3565b905080838252602082019050602084028301858111156122455761224461220a565b5b835b8181101561226e578061225a8882611f66565b845260208401935050602081019050612247565b5050509392505050565b600082601f83011261228d5761228c61215e565b5b813561229d84826020860161220f565b91505092915050565b600080fd5b600067ffffffffffffffff8211156122c6576122c5612163565b5b6122cf826120f2565b9050602081019050919050565b82818337600083830152505050565b60006122fe6122f9846122ab565b6121c3565b90508281526020810184848401111561231a576123196122a6565b5b6123258482856122dc565b509392505050565b600082601f8301126123425761234161215e565b5b81356123528482602086016122eb565b91505092915050565b600080600080600060a0868803121561237757612376611ee7565b5b600061238588828901611f3a565b955050602061239688828901611f3a565b945050604086013567ffffffffffffffff8111156123b7576123b6611eec565b5b6123c388828901612278565b935050606086013567ffffffffffffffff8111156123e4576123e3611eec565b5b6123f088828901612278565b925050608086013567ffffffffffffffff81111561241157612410611eec565b5b61241d8882890161232d565b9150509295509295909350565b600067ffffffffffffffff82111561244557612444612163565b5b602082029050602081019050919050565b60006124696124648461242a565b6121c3565b9050808382526020820190506020840283018581111561248c5761248b61220a565b5b835b818110156124b557806124a18882611f3a565b84526020840193505060208101905061248e565b5050509392505050565b600082601f8301126124d4576124d361215e565b5b81356124e4848260208601612456565b91505092915050565b6000806040838503121561250457612503611ee7565b5b600083013567ffffffffffffffff81111561252257612521611eec565b5b61252e858286016124bf565b925050602083013567ffffffffffffffff81111561254f5761254e611eec565b5b61255b85828601612278565b9150509250929050565b600081519050919050565b600082825260208201905092915050565b6000819050602082019050919050565b61259a81611ea9565b82525050565b60006125ac8383612591565b60208301905092915050565b6000602082019050919050565b60006125d082612565565b6125da8185612570565b93506125e583612581565b8060005b838110156126165781516125fd88826125a0565b9750612608836125b8565b9250506001810190506125e9565b5085935050505092915050565b6000602082019050818103600083015261263d81846125c5565b905092915050565b60008060006060848603121561265e5761265d611ee7565b5b600061266c86828701611f3a565b935050602084013567ffffffffffffffff81111561268d5761268c611eec565b5b61269986828701612278565b925050604084013567ffffffffffffffff8111156126ba576126b9611eec565b5b6126c686828701612278565b9150509250925092565b6126d981612040565b81146126e457600080fd5b50565b6000813590506126f6816126d0565b92915050565b6000806040838503121561271357612712611ee7565b5b600061272185828601611f3a565b9250506020612732858286016126e7565b9150509250929050565b600067ffffffffffffffff82111561275757612756612163565b5b612760826120f2565b9050602081019050919050565b600061278061277b8461273c565b6121c3565b90508281526020810184848401111561279c5761279b6122a6565b5b6127a78482856122dc565b509392505050565b600082601f8301126127c4576127c361215e565b5b81356127d484826020860161276d565b91505092915050565b600080600080608085870312156127f7576127f6611ee7565b5b600061280587828801611f3a565b945050602061281687828801611f66565b935050604085013567ffffffffffffffff81111561283757612836611eec565b5b612843878288016127af565b925050606085013567ffffffffffffffff81111561286457612863611eec565b5b6128708782880161232d565b91505092959194509250565b6000806040838503121561289357612892611ee7565b5b60006128a185828601611f3a565b92505060206128b285828601611f3a565b9150509250929050565b600080600080600060a086880312156128d8576128d7611ee7565b5b60006128e688828901611f3a565b95505060206128f788828901611f3a565b945050604061290888828901611f66565b935050606061291988828901611f66565b925050608086013567ffffffffffffffff81111561293a57612939611eec565b5b6129468882890161232d565b9150509295509295909350565b60008060006060848603121561296c5761296b611ee7565b5b600061297a86828701611f3a565b935050602061298b86828701611f66565b925050604061299c86828701611f66565b9150509250925092565b7f455243313135353a2061646472657373207a65726f206973206e6f742061207660008201527f616c6964206f776e657200000000000000000000000000000000000000000000602082015250565b6000612a02602a836120ae565b9150612a0d826129a6565b604082019050919050565b60006020820190508181036000830152612a31816129f5565b9050919050565b7f4e487b7100000000000000000000000000000000000000000000000000000000600052602260045260246000fd5b60006002820490506001821680612a7f57607f821691505b60208210811415612a9357612a92612a38565b5b50919050565b7f455243313135353a2063616c6c6572206973206e6f7420746f6b656e206f776e60008201527f6572206e6f7220617070726f7665640000000000000000000000000000000000602082015250565b6000612af5602f836120ae565b9150612b0082612a99565b604082019050919050565b60006020820190508181036000830152612b2481612ae8565b9050919050565b7f455243313135353a206163636f756e747320616e6420696473206c656e67746860008201527f206d69736d617463680000000000000000000000000000000000000000000000602082015250565b6000612b876029836120ae565b9150612b9282612b2b565b604082019050919050565b60006020820190508181036000830152612bb681612b7a565b9050919050565b7f4e487b7100000000000000000000000000000000000000000000000000000000600052603260045260246000fd5b7f4e487b7100000000000000000000000000000000000000000000000000000000600052601160045260246000fd5b6000612c2682611ea9565b91507fffffffffffffffffffffffffffffffffffffffffffffffffffffffffffffffff821415612c5957612c58612bec565b5b600182019050919050565b7f455243313135353a2069647320616e6420616d6f756e7473206c656e6774682060008201527f6d69736d61746368000000000000000000000000000000000000000000000000602082015250565b6000612cc06028836120ae565b9150612ccb82612c64565b604082019050919050565b60006020820190508181036000830152612cef81612cb3565b9050919050565b7f455243313135353a207472616e7366657220746f20746865207a65726f20616460008201527f6472657373000000000000000000000000000000000000000000000000000000602082015250565b6000612d526025836120ae565b9150612d5d82612cf6565b604082019050919050565b60006020820190508181036000830152612d8181612d45565b9050919050565b7f455243313135353a20696e73756666696369656e742062616c616e636520666f60008201527f72207472616e7366657200000000000000000000000000000000000000000000602082015250565b6000612de4602a836120ae565b9150612def82612d88565b604082019050919050565b60006020820190508181036000830152612e1381612dd7565b9050919050565b6000612e2582611ea9565b9150612e3083611ea9565b9250827fffffffffffffffffffffffffffffffffffffffffffffffffffffffffffffffff03821115612e6557612e64612bec565b5b828201905092915050565b60006040820190508181036000830152612e8a81856125c5565b90508181036020830152612e9e81846125c5565b90509392505050565b7f455243313135353a206275726e2066726f6d20746865207a65726f206164647260008201527f6573730000000000000000000000000000000000000000000000000000000000602082015250565b6000612f036023836120ae565b9150612f0e82612ea7565b604082019050919050565b60006020820190508181036000830152612f3281612ef6565b9050919050565b7f455243313135353a206275726e20616d6f756e7420657863656564732062616c60008201527f616e636500000000000000000000000000000000000000000000000000000000602082015250565b6000612f956024836120ae565b9150612fa082612f39565b604082019050919050565b60006020820190508181036000830152612fc481612f88565b9050919050565b7f455243313135353a2073657474696e6720617070726f76616c2073746174757360008201527f20666f722073656c660000000000000000000000000000000000000000000000602082015250565b60006130276029836120ae565b915061303282612fcb565b604082019050919050565b600060208201905081810360008301526130568161301a565b9050919050565b7f455243313135353a206d696e7420746f20746865207a65726f2061646472657360008201527f7300000000000000000000000000000000000000000000000000000000000000602082015250565b60006130b96021836120ae565b91506130c48261305d565b604082019050919050565b600060208201905081810360008301526130e8816130ac565b9050919050565b60006040820190506131046000830185611eb3565b6131116020830184611eb3565b9392505050565b61312181611f11565b82525050565b600081519050919050565b600082825260208201905092915050565b600061314e82613127565b6131588185613132565b93506131688185602086016120bf565b613171816120f2565b840191505092915050565b600060a0820190506131916000830188613118565b61319e6020830187613118565b81810360408301526131b081866125c5565b905081810360608301526131c481856125c5565b905081810360808301526131d88184613143565b90509695505050505050565b6000815190506131f381611fe7565b92915050565b60006020828403121561320f5761320e611ee7565b5b600061321d848285016131e4565b91505092915050565b60008160e01c9050919050565b600060033d11156132525760046000803e61324f600051613226565b90505b90565b600060443d1015613265576132e8565b61326d611edd565b60043d036004823e80513d602482011167ffffffffffffffff821117156132955750506132e8565b808201805167ffffffffffffffff8111156132b357505050506132e8565b80602083010160043d0385018111156132d05750505050506132e8565b6132df82602001850186612192565b82955050505050505b90565b7f455243313135353a207472616e7366657220746f206e6f6e204552433131353560008201527f526563656976657220696d706c656d656e746572000000000000000000000000602082015250565b60006133476034836120ae565b9150613352826132eb565b604082019050919050565b600060208201905081810360008301526133768161333a565b9050919050565b7f455243313135353a204552433131353552656365697665722072656a6563746560008201527f6420746f6b656e73000000000000000000000000000000000000000000000000602082015250565b60006133d96028836120ae565b91506133e48261337d565b604082019050919050565b60006020820190508181036000830152613408816133cc565b9050919050565b600060a0820190506134246000830188613118565b6134316020830187613118565b61343e6040830186611eb3565b61344b6060830185611eb3565b818103608083015261345d8184613143565b90509695505050505050565b7f455243313135353a206275726e20616d6f756e74206578636565647320746f7460008201527f616c537570706c79000000000000000000000000000000000000000000000000602082015250565b60006134c56028836120ae565b91506134d082613469565b604082019050919050565b600060208201905081810360008301526134f4816134b8565b905091905056fea2646970667358221220fa3af79cf01cc3083fd088b8cf92996196d508621ee332d2af3bd89461ef11b064736f6c63430008090033",
  "linkReferences": {},
  "deployedLinkReferences": {}
}