{
  "_format": "hh-sol-artifact-1",
  "contractName": "MIDI",
  "sourceName": "contracts/midi/MIDI.sol",
  "abi": [
    {
      "inputs": [],
      "stateMutability": "nonpayable",
      "type": "constructor"
    },
    {
      "anonymous": false,
      "inputs": [
        {
          "indexed": true,
          "internalType": "address",
          "name": "account",
          "type": "address"
        },
        {
          "indexed": true,
          "internalType": "address",
          "name": "operator",
          "type": "address"
        },
        {
          "indexed": false,
          "internalType": "bool",
          "name": "approved",
          "type": "bool"
        }
      ],
      "name": "ApprovalForAll",
      "type": "event"
    },
    {
      "anonymous": false,
      "inputs": [
        {
          "indexed": true,
          "internalType": "address",
          "name": "operator",
          "type": "address"
        },
        {
          "indexed": true,
          "internalType": "address",
          "name": "from",
          "type": "address"
        },
        {
          "indexed": true,
          "internalType": "address",
          "name": "to",
          "type": "address"
        },
        {
          "indexed": false,
          "internalType": "uint256[]",
          "name": "ids",
          "type": "uint256[]"
        },
        {
          "indexed": false,
          "internalType": "uint256[]",
          "name": "values",
          "type": "uint256[]"
        }
      ],
      "name": "TransferBatch",
      "type": "event"
    },
    {
      "anonymous": false,
      "inputs": [
        {
          "indexed": true,
          "internalType": "address",
          "name": "operator",
          "type": "address"
        },
        {
          "indexed": true,
          "internalType": "address",
          "name": "from",
          "type": "address"
        },
        {
          "indexed": true,
          "internalType": "address",
          "name": "to",
          "type": "address"
        },
        {
          "indexed": false,
          "internalType": "uint256",
          "name": "id",
          "type": "uint256"
        },
        {
          "indexed": false,
          "internalType": "uint256",
          "name": "value",
          "type": "uint256"
        }
      ],
      "name": "TransferSingle",
      "type": "event"
    },
    {
      "anonymous": false,
      "inputs": [
        {
          "indexed": false,
          "internalType": "string",
          "name": "value",
          "type": "string"
        },
        {
          "indexed": true,
          "internalType": "uint256",
          "name": "id",
          "type": "uint256"
        }
      ],
      "name": "URI",
      "type": "event"
    },
    {
      "inputs": [
        {
          "internalType": "address",
          "name": "account",
          "type": "address"
        },
        {
          "internalType": "uint256",
          "name": "id",
          "type": "uint256"
        }
      ],
      "name": "balanceOf",
      "outputs": [
        {
          "internalType": "uint256",
          "name": "",
          "type": "uint256"
        }
      ],
      "stateMutability": "view",
      "type": "function"
    },
    {
      "inputs": [
        {
          "internalType": "address[]",
          "name": "accounts",
          "type": "address[]"
        },
        {
          "internalType": "uint256[]",
          "name": "ids",
          "type": "uint256[]"
        }
      ],
      "name": "balanceOfBatch",
      "outputs": [
        {
          "internalType": "uint256[]",
          "name": "",
          "type": "uint256[]"
        }
      ],
      "stateMutability": "view",
      "type": "function"
    },
    {
      "inputs": [],
      "name": "currentTokenId",
      "outputs": [
        {
          "internalType": "uint256",
          "name": "",
          "type": "uint256"
        }
      ],
      "stateMutability": "view",
      "type": "function"
    },
    {
      "inputs": [
        {
          "internalType": "uint256",
          "name": "id",
          "type": "uint256"
        }
      ],
      "name": "exists",
      "outputs": [
        {
          "internalType": "bool",
          "name": "",
          "type": "bool"
        }
      ],
      "stateMutability": "view",
      "type": "function"
    },
    {
      "inputs": [
        {
          "internalType": "address",
          "name": "account",
          "type": "address"
        },
        {
          "internalType": "address",
          "name": "operator",
          "type": "address"
        }
      ],
      "name": "isApprovedForAll",
      "outputs": [
        {
          "internalType": "bool",
          "name": "",
          "type": "bool"
        }
      ],
      "stateMutability": "view",
      "type": "function"
    },
    {
      "inputs": [
        {
          "internalType": "address",
          "name": "to",
          "type": "address"
        },
        {
          "internalType": "uint256",
          "name": "amount",
          "type": "uint256"
        },
        {
          "internalType": "string",
          "name": "tokenURI",
          "type": "string"
        },
        {
          "internalType": "bytes",
          "name": "data",
          "type": "bytes"
        }
      ],
      "name": "mint",
      "outputs": [],
      "stateMutability": "nonpayable",
      "type": "function"
    },
    {
      "inputs": [
        {
          "internalType": "address",
          "name": "from",
          "type": "address"
        },
        {
          "internalType": "address",
          "name": "to",
          "type": "address"
        },
        {
          "internalType": "uint256[]",
          "name": "ids",
          "type": "uint256[]"
        },
        {
          "internalType": "uint256[]",
          "name": "amounts",
          "type": "uint256[]"
        },
        {
          "internalType": "bytes",
          "name": "data",
          "type": "bytes"
        }
      ],
      "name": "safeBatchTransferFrom",
      "outputs": [],
      "stateMutability": "nonpayable",
      "type": "function"
    },
    {
      "inputs": [
        {
          "internalType": "address",
          "name": "from",
          "type": "address"
        },
        {
          "internalType": "address",
          "name": "to",
          "type": "address"
        },
        {
          "internalType": "uint256",
          "name": "id",
          "type": "uint256"
        },
        {
          "internalType": "uint256",
          "name": "amount",
          "type": "uint256"
        },
        {
          "internalType": "bytes",
          "name": "data",
          "type": "bytes"
        }
      ],
      "name": "safeTransferFrom",
      "outputs": [],
      "stateMutability": "nonpayable",
      "type": "function"
    },
    {
      "inputs": [
        {
          "internalType": "address",
          "name": "operator",
          "type": "address"
        },
        {
          "internalType": "bool",
          "name": "approved",
          "type": "bool"
        }
      ],
      "name": "setApprovalForAll",
      "outputs": [],
      "stateMutability": "nonpayable",
      "type": "function"
    },
    {
      "inputs": [
        {
          "internalType": "bytes4",
          "name": "interfaceId",
          "type": "bytes4"
        }
      ],
      "name": "supportsInterface",
      "outputs": [
        {
          "internalType": "bool",
          "name": "",
          "type": "bool"
        }
      ],
      "stateMutability": "view",
      "type": "function"
    },
    {
      "inputs": [
        {
          "internalType": "uint256",
          "name": "id",
          "type": "uint256"
        }
      ],
      "name": "totalSupply",
      "outputs": [
        {
          "internalType": "uint256",
          "name": "",
          "type": "uint256"
        }
      ],
      "stateMutability": "view",
      "type": "function"
    },
    {
      "inputs": [
        {
          "internalType": "uint256",
          "name": "tokenId",
          "type": "uint256"
        }
      ],
      "name": "uri",
      "outputs": [
        {
          "internalType": "string",
          "name": "",
          "type": "string"
        }
      ],
      "stateMutability": "view",
      "type": "function"
    }
  ],
  "bytecode": "0x60806040523480156200001157600080fd5b506040518060200160405280600081525062000033816200003a60201b60201c565b506200016b565b80600290805190602001906200005292919062000056565b5050565b828054620000649062000135565b90600052602060002090601f016020900481019282620000885760008555620000d4565b82601f10620000a357805160ff1916838001178555620000d4565b82800160010185558215620000d4579182015b82811115620000d3578251825591602001919060010190620000b6565b5b509050620000e39190620000e7565b5090565b5b8082111562000102576000816000905550600101620000e8565b5090565b7f4e487b7100000000000000000000000000000000000000000000000000000000600052602260045260246000fd5b600060028204905060018216806200014e57607f821691505b6020821081141562000165576200016462000106565b5b50919050565b612d8b806200017b6000396000f3fe608060405234801561001057600080fd5b50600436106100b25760003560e01c80634f558e79116100715780634f558e79146101b1578063a22cb465146101e1578063bd85b039146101fd578063d2b04fd61461022d578063e985e9c514610249578063f242432a14610279576100b2565b80629a9b7b146100b7578062fdd58e146100d557806301ffc9a7146101055780630e89341c146101355780632eb2c2d6146101655780634e1273f414610181575b600080fd5b6100bf610295565b6040516100cc919061191e565b60405180910390f35b6100ef60048036038101906100ea91906119d7565b6102a6565b6040516100fc919061191e565b60405180910390f35b61011f600480360381019061011a9190611a6f565b61036f565b60405161012c9190611ab7565b60405180910390f35b61014f600480360381019061014a9190611ad2565b610451565b60405161015c9190611b98565b60405180910390f35b61017f600480360381019061017a9190611db7565b6104f6565b005b61019b60048036038101906101969190611f49565b610597565b6040516101a8919061207f565b60405180910390f35b6101cb60048036038101906101c69190611ad2565b6106b0565b6040516101d89190611ab7565b60405180910390f35b6101fb60048036038101906101f691906120cd565b6106c4565b005b61021760048036038101906102129190611ad2565b6106da565b604051610224919061191e565b60405180910390f35b610247600480360381019061024291906121ae565b6106f7565b005b610263600480360381019061025e919061224d565b61072c565b6040516102709190611ab7565b60405180910390f35b610293600480360381019061028e919061228d565b6107c0565b005b60006102a16004610861565b905090565b60008073ffffffffffffffffffffffffffffffffffffffff168373ffffffffffffffffffffffffffffffffffffffff161415610317576040517f08c379a000000000000000000000000000000000000000000000000000000000815260040161030e90612396565b60405180910390fd5b60008083815260200190815260200160002060008473ffffffffffffffffffffffffffffffffffffffff1673ffffffffffffffffffffffffffffffffffffffff16815260200190815260200160002054905092915050565b60007fd9b67a26000000000000000000000000000000000000000000000000000000007bffffffffffffffffffffffffffffffffffffffffffffffffffffffff1916827bffffffffffffffffffffffffffffffffffffffffffffffffffffffff1916148061043a57507f0e89341c000000000000000000000000000000000000000000000000000000007bffffffffffffffffffffffffffffffffffffffffffffffffffffffff1916827bffffffffffffffffffffffffffffffffffffffffffffffffffffffff1916145b8061044a57506104498261086f565b5b9050919050565b6060600560008381526020019081526020016000208054610471906123e5565b80601f016020809104026020016040519081016040528092919081815260200182805461049d906123e5565b80156104ea5780601f106104bf576101008083540402835291602001916104ea565b820191906000526020600020905b8154815290600101906020018083116104cd57829003601f168201915b50505050509050919050565b6104fe6108d9565b73ffffffffffffffffffffffffffffffffffffffff168573ffffffffffffffffffffffffffffffffffffffff16148061054457506105438561053e6108d9565b61072c565b5b610583576040517f08c379a000000000000000000000000000000000000000000000000000000000815260040161057a90612489565b60405180910390fd5b61059085858585856108e1565b5050505050565b606081518351146105dd576040517f08c379a00000000000000000000000000000000000000000000000000000000081526004016105d49061251b565b60405180910390fd5b6000835167ffffffffffffffff8111156105fa576105f9611bbf565b5b6040519080825280602002602001820160405280156106285781602001602082028036833780820191505090505b50905060005b84518110156106a55761067585828151811061064d5761064c61253b565b5b60200260200101518583815181106106685761066761253b565b5b60200260200101516102a6565b8282815181106106885761068761253b565b5b6020026020010181815250508061069e90612599565b905061062e565b508091505092915050565b6000806106bc836106da565b119050919050565b6106d66106cf6108d9565b8383610c03565b5050565b600060036000838152602001908152602001600020549050919050565b6107016004610d70565b600061070d6004610861565b90506107198184610d86565b61072585828685610db2565b5050505050565b6000600160008473ffffffffffffffffffffffffffffffffffffffff1673ffffffffffffffffffffffffffffffffffffffff16815260200190815260200160002060008373ffffffffffffffffffffffffffffffffffffffff1673ffffffffffffffffffffffffffffffffffffffff16815260200190815260200160002060009054906101000a900460ff16905092915050565b6107c86108d9565b73ffffffffffffffffffffffffffffffffffffffff168573ffffffffffffffffffffffffffffffffffffffff16148061080e575061080d856108086108d9565b61072c565b5b61084d576040517f08c379a000000000000000000000000000000000000000000000000000000000815260040161084490612489565b60405180910390fd5b61085a8585858585610f63565b5050505050565b600081600001549050919050565b60007f01ffc9a7000000000000000000000000000000000000000000000000000000007bffffffffffffffffffffffffffffffffffffffffffffffffffffffff1916827bffffffffffffffffffffffffffffffffffffffffffffffffffffffff1916149050919050565b600033905090565b8151835114610925576040517f08c379a000000000000000000000000000000000000000000000000000000000815260040161091c90612654565b60405180910390fd5b600073ffffffffffffffffffffffffffffffffffffffff168473ffffffffffffffffffffffffffffffffffffffff161415610995576040517f08c379a000000000000000000000000000000000000000000000000000000000815260040161098c906126e6565b60405180910390fd5b600061099f6108d9565b90506109af8187878787876111ff565b60005b8451811015610b605760008582815181106109d0576109cf61253b565b5b6020026020010151905060008583815181106109ef576109ee61253b565b5b60200260200101519050600080600084815260200190815260200160002060008b73ffffffffffffffffffffffffffffffffffffffff1673ffffffffffffffffffffffffffffffffffffffff16815260200190815260200160002054905081811015610a90576040517f08c379a0000000000000000000000000000000000000000000000000000000008152600401610a8790612778565b60405180910390fd5b81810360008085815260200190815260200160002060008c73ffffffffffffffffffffffffffffffffffffffff1673ffffffffffffffffffffffffffffffffffffffff168152602001908152602001600020819055508160008085815260200190815260200160002060008b73ffffffffffffffffffffffffffffffffffffffff1673ffffffffffffffffffffffffffffffffffffffff1681526020019081526020016000206000828254610b459190612798565b9250508190555050505080610b5990612599565b90506109b2565b508473ffffffffffffffffffffffffffffffffffffffff168673ffffffffffffffffffffffffffffffffffffffff168273ffffffffffffffffffffffffffffffffffffffff167f4a39dc06d4c0dbc64b70af90fd698a233a518aa5d07e595d983b8c0526c8f7fb8787604051610bd79291906127ee565b60405180910390a4610bed818787878787611215565b610bfb81878787878761121d565b505050505050565b8173ffffffffffffffffffffffffffffffffffffffff168373ffffffffffffffffffffffffffffffffffffffff161415610c72576040517f08c379a0000000000000000000000000000000000000000000000000000000008152600401610c6990612897565b60405180910390fd5b80600160008573ffffffffffffffffffffffffffffffffffffffff1673ffffffffffffffffffffffffffffffffffffffff16815260200190815260200160002060008473ffffffffffffffffffffffffffffffffffffffff1673ffffffffffffffffffffffffffffffffffffffff16815260200190815260200160002060006101000a81548160ff0219169083151502179055508173ffffffffffffffffffffffffffffffffffffffff168373ffffffffffffffffffffffffffffffffffffffff167f17307eab39ab6107e8899845ad3d59bd9653f200f220920489ca2b5937696c3183604051610d639190611ab7565b60405180910390a3505050565b6001816000016000828254019250508190555050565b80600560008481526020019081526020016000209080519060200190610dad929190611862565b505050565b600073ffffffffffffffffffffffffffffffffffffffff168473ffffffffffffffffffffffffffffffffffffffff161415610e22576040517f08c379a0000000000000000000000000000000000000000000000000000000008152600401610e1990612929565b60405180910390fd5b6000610e2c6108d9565b90506000610e3985611404565b90506000610e4685611404565b9050610e57836000898585896111ff565b8460008088815260200190815260200160002060008973ffffffffffffffffffffffffffffffffffffffff1673ffffffffffffffffffffffffffffffffffffffff1681526020019081526020016000206000828254610eb69190612798565b925050819055508673ffffffffffffffffffffffffffffffffffffffff16600073ffffffffffffffffffffffffffffffffffffffff168473ffffffffffffffffffffffffffffffffffffffff167fc3d58168c5ae7397731d063d5bbf3d657854427343f4c083240f7aacaa2d0f628989604051610f34929190612949565b60405180910390a4610f4b83600089858589611215565b610f5a8360008989898961147e565b50505050505050565b600073ffffffffffffffffffffffffffffffffffffffff168473ffffffffffffffffffffffffffffffffffffffff161415610fd3576040517f08c379a0000000000000000000000000000000000000000000000000000000008152600401610fca906126e6565b60405180910390fd5b6000610fdd6108d9565b90506000610fea85611404565b90506000610ff785611404565b90506110078389898585896111ff565b600080600088815260200190815260200160002060008a73ffffffffffffffffffffffffffffffffffffffff1673ffffffffffffffffffffffffffffffffffffffff1681526020019081526020016000205490508581101561109e576040517f08c379a000000000000000000000000000000000000000000000000000000000815260040161109590612778565b60405180910390fd5b85810360008089815260200190815260200160002060008b73ffffffffffffffffffffffffffffffffffffffff1673ffffffffffffffffffffffffffffffffffffffff168152602001908152602001600020819055508560008089815260200190815260200160002060008a73ffffffffffffffffffffffffffffffffffffffff1673ffffffffffffffffffffffffffffffffffffffff16815260200190815260200160002060008282546111539190612798565b925050819055508773ffffffffffffffffffffffffffffffffffffffff168973ffffffffffffffffffffffffffffffffffffffff168573ffffffffffffffffffffffffffffffffffffffff167fc3d58168c5ae7397731d063d5bbf3d657854427343f4c083240f7aacaa2d0f628a8a6040516111d0929190612949565b60405180910390a46111e6848a8a86868a611215565b6111f4848a8a8a8a8a61147e565b505050505050505050565b61120d868686868686611665565b505050505050565b505050505050565b61123c8473ffffffffffffffffffffffffffffffffffffffff16611837565b156113fc578373ffffffffffffffffffffffffffffffffffffffff1663bc197c8187878686866040518663ffffffff1660e01b81526004016112829594939291906129d6565b602060405180830381600087803b15801561129c57600080fd5b505af19250505080156112cd57506040513d601f19601f820116820180604052508101906112ca9190612a53565b60015b611373576112d9612a8d565b806308c379a0141561133657506112ee612aaf565b806112f95750611338565b806040517f08c379a000000000000000000000000000000000000000000000000000000000815260040161132d9190611b98565b60405180910390fd5b505b6040517f08c379a000000000000000000000000000000000000000000000000000000000815260040161136a90612bb7565b60405180910390fd5b63bc197c8160e01b7bffffffffffffffffffffffffffffffffffffffffffffffffffffffff1916817bffffffffffffffffffffffffffffffffffffffffffffffffffffffff1916146113fa576040517f08c379a00000000000000000000000000000000000000000000000000000000081526004016113f190612c49565b60405180910390fd5b505b505050505050565b60606000600167ffffffffffffffff81111561142357611422611bbf565b5b6040519080825280602002602001820160405280156114515781602001602082028036833780820191505090505b50905082816000815181106114695761146861253b565b5b60200260200101818152505080915050919050565b61149d8473ffffffffffffffffffffffffffffffffffffffff16611837565b1561165d578373ffffffffffffffffffffffffffffffffffffffff1663f23a6e6187878686866040518663ffffffff1660e01b81526004016114e3959493929190612c69565b602060405180830381600087803b1580156114fd57600080fd5b505af192505050801561152e57506040513d601f19601f8201168201806040525081019061152b9190612a53565b60015b6115d45761153a612a8d565b806308c379a01415611597575061154f612aaf565b8061155a5750611599565b806040517f08c379a000000000000000000000000000000000000000000000000000000000815260040161158e9190611b98565b60405180910390fd5b505b6040517f08c379a00000000000000000000000000000000000000000000000000000000081526004016115cb90612bb7565b60405180910390fd5b63f23a6e6160e01b7bffffffffffffffffffffffffffffffffffffffffffffffffffffffff1916817bffffffffffffffffffffffffffffffffffffffffffffffffffffffff19161461165b576040517f08c379a000000000000000000000000000000000000000000000000000000000815260040161165290612c49565b60405180910390fd5b505b505050505050565b61167386868686868661185a565b600073ffffffffffffffffffffffffffffffffffffffff168573ffffffffffffffffffffffffffffffffffffffff1614156117255760005b8351811015611723578281815181106116c7576116c661253b565b5b6020026020010151600360008684815181106116e6576116e561253b565b5b60200260200101518152602001908152602001600020600082825461170b9190612798565b925050819055508061171c90612599565b90506116ab565b505b600073ffffffffffffffffffffffffffffffffffffffff168473ffffffffffffffffffffffffffffffffffffffff16141561182f5760005b835181101561182d57600084828151811061177b5761177a61253b565b5b60200260200101519050600084838151811061179a5761179961253b565b5b60200260200101519050600060036000848152602001908152602001600020549050818110156117ff576040517f08c379a00000000000000000000000000000000000000000000000000000000081526004016117f690612d35565b60405180910390fd5b81810360036000858152602001908152602001600020819055505050508061182690612599565b905061175d565b505b505050505050565b6000808273ffffffffffffffffffffffffffffffffffffffff163b119050919050565b505050505050565b82805461186e906123e5565b90600052602060002090601f01602090048101928261189057600085556118d7565b82601f106118a957805160ff19168380011785556118d7565b828001600101855582156118d7579182015b828111156118d65782518255916020019190600101906118bb565b5b5090506118e491906118e8565b5090565b5b808211156119015760008160009055506001016118e9565b5090565b6000819050919050565b61191881611905565b82525050565b6000602082019050611933600083018461190f565b92915050565b6000604051905090565b600080fd5b600080fd5b600073ffffffffffffffffffffffffffffffffffffffff82169050919050565b60006119788261194d565b9050919050565b6119888161196d565b811461199357600080fd5b50565b6000813590506119a58161197f565b92915050565b6119b481611905565b81146119bf57600080fd5b50565b6000813590506119d1816119ab565b92915050565b600080604083850312156119ee576119ed611943565b5b60006119fc85828601611996565b9250506020611a0d858286016119c2565b9150509250929050565b60007fffffffff0000000000000000000000000000000000000000000000000000000082169050919050565b611a4c81611a17565b8114611a5757600080fd5b50565b600081359050611a6981611a43565b92915050565b600060208284031215611a8557611a84611943565b5b6000611a9384828501611a5a565b91505092915050565b60008115159050919050565b611ab181611a9c565b82525050565b6000602082019050611acc6000830184611aa8565b92915050565b600060208284031215611ae857611ae7611943565b5b6000611af6848285016119c2565b91505092915050565b600081519050919050565b600082825260208201905092915050565b60005b83811015611b39578082015181840152602081019050611b1e565b83811115611b48576000848401525b50505050565b6000601f19601f8301169050919050565b6000611b6a82611aff565b611b748185611b0a565b9350611b84818560208601611b1b565b611b8d81611b4e565b840191505092915050565b60006020820190508181036000830152611bb28184611b5f565b905092915050565b600080fd5b7f4e487b7100000000000000000000000000000000000000000000000000000000600052604160045260246000fd5b611bf782611b4e565b810181811067ffffffffffffffff82111715611c1657611c15611bbf565b5b80604052505050565b6000611c29611939565b9050611c358282611bee565b919050565b600067ffffffffffffffff821115611c5557611c54611bbf565b5b602082029050602081019050919050565b600080fd5b6000611c7e611c7984611c3a565b611c1f565b90508083825260208201905060208402830185811115611ca157611ca0611c66565b5b835b81811015611cca5780611cb688826119c2565b845260208401935050602081019050611ca3565b5050509392505050565b600082601f830112611ce957611ce8611bba565b5b8135611cf9848260208601611c6b565b91505092915050565b600080fd5b600067ffffffffffffffff821115611d2257611d21611bbf565b5b611d2b82611b4e565b9050602081019050919050565b82818337600083830152505050565b6000611d5a611d5584611d07565b611c1f565b905082815260208101848484011115611d7657611d75611d02565b5b611d81848285611d38565b509392505050565b600082601f830112611d9e57611d9d611bba565b5b8135611dae848260208601611d47565b91505092915050565b600080600080600060a08688031215611dd357611dd2611943565b5b6000611de188828901611996565b9550506020611df288828901611996565b945050604086013567ffffffffffffffff811115611e1357611e12611948565b5b611e1f88828901611cd4565b935050606086013567ffffffffffffffff811115611e4057611e3f611948565b5b611e4c88828901611cd4565b925050608086013567ffffffffffffffff811115611e6d57611e6c611948565b5b611e7988828901611d89565b9150509295509295909350565b600067ffffffffffffffff821115611ea157611ea0611bbf565b5b602082029050602081019050919050565b6000611ec5611ec084611e86565b611c1f565b90508083825260208201905060208402830185811115611ee857611ee7611c66565b5b835b81811015611f115780611efd8882611996565b845260208401935050602081019050611eea565b5050509392505050565b600082601f830112611f3057611f2f611bba565b5b8135611f40848260208601611eb2565b91505092915050565b60008060408385031215611f6057611f5f611943565b5b600083013567ffffffffffffffff811115611f7e57611f7d611948565b5b611f8a85828601611f1b565b925050602083013567ffffffffffffffff811115611fab57611faa611948565b5b611fb785828601611cd4565b9150509250929050565b600081519050919050565b600082825260208201905092915050565b6000819050602082019050919050565b611ff681611905565b82525050565b60006120088383611fed565b60208301905092915050565b6000602082019050919050565b600061202c82611fc1565b6120368185611fcc565b935061204183611fdd565b8060005b838110156120725781516120598882611ffc565b975061206483612014565b925050600181019050612045565b5085935050505092915050565b600060208201905081810360008301526120998184612021565b905092915050565b6120aa81611a9c565b81146120b557600080fd5b50565b6000813590506120c7816120a1565b92915050565b600080604083850312156120e4576120e3611943565b5b60006120f285828601611996565b9250506020612103858286016120b8565b9150509250929050565b600067ffffffffffffffff82111561212857612127611bbf565b5b61213182611b4e565b9050602081019050919050565b600061215161214c8461210d565b611c1f565b90508281526020810184848401111561216d5761216c611d02565b5b612178848285611d38565b509392505050565b600082601f83011261219557612194611bba565b5b81356121a584826020860161213e565b91505092915050565b600080600080608085870312156121c8576121c7611943565b5b60006121d687828801611996565b94505060206121e7878288016119c2565b935050604085013567ffffffffffffffff81111561220857612207611948565b5b61221487828801612180565b925050606085013567ffffffffffffffff81111561223557612234611948565b5b61224187828801611d89565b91505092959194509250565b6000806040838503121561226457612263611943565b5b600061227285828601611996565b925050602061228385828601611996565b9150509250929050565b600080600080600060a086880312156122a9576122a8611943565b5b60006122b788828901611996565b95505060206122c888828901611996565b94505060406122d9888289016119c2565b93505060606122ea888289016119c2565b925050608086013567ffffffffffffffff81111561230b5761230a611948565b5b61231788828901611d89565b9150509295509295909350565b7f455243313135353a2061646472657373207a65726f206973206e6f742061207660008201527f616c6964206f776e657200000000000000000000000000000000000000000000602082015250565b6000612380602a83611b0a565b915061238b82612324565b604082019050919050565b600060208201905081810360008301526123af81612373565b9050919050565b7f4e487b7100000000000000000000000000000000000000000000000000000000600052602260045260246000fd5b600060028204905060018216806123fd57607f821691505b60208210811415612411576124106123b6565b5b50919050565b7f455243313135353a2063616c6c6572206973206e6f7420746f6b656e206f776e60008201527f6572206e6f7220617070726f7665640000000000000000000000000000000000602082015250565b6000612473602f83611b0a565b915061247e82612417565b604082019050919050565b600060208201905081810360008301526124a281612466565b9050919050565b7f455243313135353a206163636f756e747320616e6420696473206c656e67746860008201527f206d69736d617463680000000000000000000000000000000000000000000000602082015250565b6000612505602983611b0a565b9150612510826124a9565b604082019050919050565b60006020820190508181036000830152612534816124f8565b9050919050565b7f4e487b7100000000000000000000000000000000000000000000000000000000600052603260045260246000fd5b7f4e487b7100000000000000000000000000000000000000000000000000000000600052601160045260246000fd5b60006125a482611905565b91507fffffffffffffffffffffffffffffffffffffffffffffffffffffffffffffffff8214156125d7576125d661256a565b5b600182019050919050565b7f455243313135353a2069647320616e6420616d6f756e7473206c656e6774682060008201527f6d69736d61746368000000000000000000000000000000000000000000000000602082015250565b600061263e602883611b0a565b9150612649826125e2565b604082019050919050565b6000602082019050818103600083015261266d81612631565b9050919050565b7f455243313135353a207472616e7366657220746f20746865207a65726f20616460008201527f6472657373000000000000000000000000000000000000000000000000000000602082015250565b60006126d0602583611b0a565b91506126db82612674565b604082019050919050565b600060208201905081810360008301526126ff816126c3565b9050919050565b7f455243313135353a20696e73756666696369656e742062616c616e636520666f60008201527f72207472616e7366657200000000000000000000000000000000000000000000602082015250565b6000612762602a83611b0a565b915061276d82612706565b604082019050919050565b6000602082019050818103600083015261279181612755565b9050919050565b60006127a382611905565b91506127ae83611905565b9250827fffffffffffffffffffffffffffffffffffffffffffffffffffffffffffffffff038211156127e3576127e261256a565b5b828201905092915050565b600060408201905081810360008301526128088185612021565b9050818103602083015261281c8184612021565b90509392505050565b7f455243313135353a2073657474696e6720617070726f76616c2073746174757360008201527f20666f722073656c660000000000000000000000000000000000000000000000602082015250565b6000612881602983611b0a565b915061288c82612825565b604082019050919050565b600060208201905081810360008301526128b081612874565b9050919050565b7f455243313135353a206d696e7420746f20746865207a65726f2061646472657360008201527f7300000000000000000000000000000000000000000000000000000000000000602082015250565b6000612913602183611b0a565b915061291e826128b7565b604082019050919050565b6000602082019050818103600083015261294281612906565b9050919050565b600060408201905061295e600083018561190f565b61296b602083018461190f565b9392505050565b61297b8161196d565b82525050565b600081519050919050565b600082825260208201905092915050565b60006129a882612981565b6129b2818561298c565b93506129c2818560208601611b1b565b6129cb81611b4e565b840191505092915050565b600060a0820190506129eb6000830188612972565b6129f86020830187612972565b8181036040830152612a0a8186612021565b90508181036060830152612a1e8185612021565b90508181036080830152612a32818461299d565b90509695505050505050565b600081519050612a4d81611a43565b92915050565b600060208284031215612a6957612a68611943565b5b6000612a7784828501612a3e565b91505092915050565b60008160e01c9050919050565b600060033d1115612aac5760046000803e612aa9600051612a80565b90505b90565b600060443d1015612abf57612b42565b612ac7611939565b60043d036004823e80513d602482011167ffffffffffffffff82111715612aef575050612b42565b808201805167ffffffffffffffff811115612b0d5750505050612b42565b80602083010160043d038501811115612b2a575050505050612b42565b612b3982602001850186611bee565b82955050505050505b90565b7f455243313135353a207472616e7366657220746f206e6f6e204552433131353560008201527f526563656976657220696d706c656d656e746572000000000000000000000000602082015250565b6000612ba1603483611b0a565b9150612bac82612b45565b604082019050919050565b60006020820190508181036000830152612bd081612b94565b9050919050565b7f455243313135353a204552433131353552656365697665722072656a6563746560008201527f6420746f6b656e73000000000000000000000000000000000000000000000000602082015250565b6000612c33602883611b0a565b9150612c3e82612bd7565b604082019050919050565b60006020820190508181036000830152612c6281612c26565b9050919050565b600060a082019050612c7e6000830188612972565b612c8b6020830187612972565b612c98604083018661190f565b612ca5606083018561190f565b8181036080830152612cb7818461299d565b90509695505050505050565b7f455243313135353a206275726e20616d6f756e74206578636565647320746f7460008201527f616c537570706c79000000000000000000000000000000000000000000000000602082015250565b6000612d1f602883611b0a565b9150612d2a82612cc3565b604082019050919050565b60006020820190508181036000830152612d4e81612d12565b905091905056fea2646970667358221220f9bb6cc53f551375d4b3cc938c19e6066ecffbecf868392d6cdd6a3e63df4a6964736f6c63430008090033",
  "linkReferences": {},
  "deployedLinkReferences": {}
}