{
  "_format": "hh-sol-artifact-1",
  "contractName": "Market",
  "sourceName": "contracts/market/Market.sol",
  "abi": [
    {
      "inputs": [
        {
          "internalType": "address",
          "name": "midi_",
          "type": "address"
        },
        {
          "internalType": "address[]",
          "name": "payees_",
          "type": "address[]"
        },
        {
          "internalType": "uint256[]",
          "name": "shares_",
          "type": "uint256[]"
        }
      ],
      "stateMutability": "nonpayable",
      "type": "constructor"
    },
    {
      "anonymous": false,
      "inputs": [
        {
          "indexed": false,
          "internalType": "uint32",
          "name": "fee",
          "type": "uint32"
        }
      ],
      "name": "FeeUpdated",
      "type": "event"
    },
    {
      "anonymous": false,
      "inputs": [
        {
          "indexed": true,
          "internalType": "uint256",
          "name": "tokenId",
          "type": "uint256"
        },
        {
          "indexed": false,
          "internalType": "address",
          "name": "listing",
          "type": "address"
        },
        {
          "indexed": false,
          "internalType": "uint256",
          "name": "amount",
          "type": "uint256"
        },
        {
          "indexed": false,
          "internalType": "uint256",
          "name": "price",
          "type": "uint256"
        },
        {
          "indexed": true,
          "internalType": "address",
          "name": "user",
          "type": "address"
        }
      ],
      "name": "ListingCreated",
      "type": "event"
    },
    {
      "anonymous": false,
      "inputs": [
        {
          "indexed": false,
          "internalType": "address",
          "name": "midi",
          "type": "address"
        }
      ],
      "name": "MidiAddressUpdated",
      "type": "event"
    },
    {
      "anonymous": false,
      "inputs": [
        {
          "indexed": true,
          "internalType": "address",
          "name": "previousOwner",
          "type": "address"
        },
        {
          "indexed": true,
          "internalType": "address",
          "name": "newOwner",
          "type": "address"
        }
      ],
      "name": "OwnershipTransferred",
      "type": "event"
    },
    {
      "anonymous": false,
      "inputs": [
        {
          "indexed": false,
          "internalType": "address",
          "name": "previousAddress",
          "type": "address"
        },
        {
          "indexed": false,
          "internalType": "address",
          "name": "newAddress",
          "type": "address"
        },
        {
          "indexed": false,
          "internalType": "address[]",
          "name": "payees",
          "type": "address[]"
        },
        {
          "indexed": false,
          "internalType": "uint256[]",
          "name": "shares",
          "type": "uint256[]"
        }
      ],
      "name": "PaymentSplitterUpdated",
      "type": "event"
    },
    {
      "inputs": [
        {
          "internalType": "uint256",
          "name": "id",
          "type": "uint256"
        },
        {
          "internalType": "uint256",
          "name": "amount",
          "type": "uint256"
        },
        {
          "internalType": "uint256",
          "name": "price",
          "type": "uint256"
        },
        {
          "internalType": "bytes",
          "name": "data",
          "type": "bytes"
        }
      ],
      "name": "createListing",
      "outputs": [],
      "stateMutability": "nonpayable",
      "type": "function"
    },
    {
      "inputs": [
        {
          "internalType": "address[]",
          "name": "payees_",
          "type": "address[]"
        },
        {
          "internalType": "uint256[]",
          "name": "shares_",
          "type": "uint256[]"
        }
      ],
      "name": "createNewPaymentSplitter",
      "outputs": [],
      "stateMutability": "nonpayable",
      "type": "function"
    },
    {
      "inputs": [],
      "name": "fee",
      "outputs": [
        {
          "internalType": "uint32",
          "name": "",
          "type": "uint32"
        }
      ],
      "stateMutability": "view",
      "type": "function"
    },
    {
      "inputs": [],
      "name": "midi",
      "outputs": [
        {
          "internalType": "address",
          "name": "",
          "type": "address"
        }
      ],
      "stateMutability": "view",
      "type": "function"
    },
    {
      "inputs": [],
      "name": "owner",
      "outputs": [
        {
          "internalType": "address",
          "name": "",
          "type": "address"
        }
      ],
      "stateMutability": "view",
      "type": "function"
    },
    {
      "inputs": [],
      "name": "paymentSplitter",
      "outputs": [
        {
          "internalType": "address",
          "name": "",
          "type": "address"
        }
      ],
      "stateMutability": "view",
      "type": "function"
    },
    {
      "inputs": [],
      "name": "renounceOwnership",
      "outputs": [],
      "stateMutability": "nonpayable",
      "type": "function"
    },
    {
      "inputs": [
        {
          "internalType": "uint32",
          "name": "newFee",
          "type": "uint32"
        }
      ],
      "name": "setFee",
      "outputs": [],
      "stateMutability": "nonpayable",
      "type": "function"
    },
    {
      "inputs": [
        {
          "internalType": "address",
          "name": "newAddress",
          "type": "address"
        }
      ],
      "name": "setMidiAddress",
      "outputs": [],
      "stateMutability": "nonpayable",
      "type": "function"
    },
    {
      "inputs": [
        {
          "internalType": "uint256",
          "name": "id",
          "type": "uint256"
        }
      ],
      "name": "tokenIdToListing",
      "outputs": [
        {
          "internalType": "address[]",
          "name": "",
          "type": "address[]"
        }
      ],
      "stateMutability": "view",
      "type": "function"
    },
    {
      "inputs": [
        {
          "internalType": "address",
          "name": "newOwner",
          "type": "address"
        }
      ],
      "name": "transferOwnership",
      "outputs": [],
      "stateMutability": "nonpayable",
      "type": "function"
    }
  ],
  "bytecode": "0x608060405261012c600060146101000a81548163ffffffff021916908363ffffffff1602179055503480156200003457600080fd5b50604051620088123803806200881283398181016040528101906200005a919062000592565b6200007a6200006e620001ab60201b60201c565b620001b360201b60201c565b604051620000889062000277565b604051809103906000f080158015620000a5573d6000803e3d6000fd5b50600260006101000a81548173ffffffffffffffffffffffffffffffffffffffff021916908373ffffffffffffffffffffffffffffffffffffffff16021790555082600160006101000a81548173ffffffffffffffffffffffffffffffffffffffff021916908373ffffffffffffffffffffffffffffffffffffffff1602179055508181604051620001379062000285565b62000144929190620007c8565b604051809103906000f08015801562000161573d6000803e3d6000fd5b50600360006101000a81548173ffffffffffffffffffffffffffffffffffffffff021916908373ffffffffffffffffffffffffffffffffffffffff16021790555050505062000803565b600033905090565b60008060009054906101000a900473ffffffffffffffffffffffffffffffffffffffff169050816000806101000a81548173ffffffffffffffffffffffffffffffffffffffff021916908373ffffffffffffffffffffffffffffffffffffffff1602179055508173ffffffffffffffffffffffffffffffffffffffff168173ffffffffffffffffffffffffffffffffffffffff167f8be0079c531659141344cd1fd0a4f28419497f9722a3daafe3b4186f6b6457e060405160405180910390a35050565b611daf80620046be83390190565b6123a5806200646d83390190565b6000604051905090565b600080fd5b600080fd5b600073ffffffffffffffffffffffffffffffffffffffff82169050919050565b6000620002d482620002a7565b9050919050565b620002e681620002c7565b8114620002f257600080fd5b50565b6000815190506200030681620002db565b92915050565b600080fd5b6000601f19601f8301169050919050565b7f4e487b7100000000000000000000000000000000000000000000000000000000600052604160045260246000fd5b6200035c8262000311565b810181811067ffffffffffffffff821117156200037e576200037d62000322565b5b80604052505050565b60006200039362000293565b9050620003a1828262000351565b919050565b600067ffffffffffffffff821115620003c457620003c362000322565b5b602082029050602081019050919050565b600080fd5b6000620003f1620003eb84620003a6565b62000387565b90508083825260208201905060208402830185811115620004175762000416620003d5565b5b835b818110156200044457806200042f8882620002f5565b84526020840193505060208101905062000419565b5050509392505050565b600082601f8301126200046657620004656200030c565b5b815162000478848260208601620003da565b91505092915050565b600067ffffffffffffffff8211156200049f576200049e62000322565b5b602082029050602081019050919050565b6000819050919050565b620004c581620004b0565b8114620004d157600080fd5b50565b600081519050620004e581620004ba565b92915050565b600062000502620004fc8462000481565b62000387565b90508083825260208201905060208402830185811115620005285762000527620003d5565b5b835b81811015620005555780620005408882620004d4565b8452602084019350506020810190506200052a565b5050509392505050565b600082601f8301126200057757620005766200030c565b5b815162000589848260208601620004eb565b91505092915050565b600080600060608486031215620005ae57620005ad6200029d565b5b6000620005be86828701620002f5565b935050602084015167ffffffffffffffff811115620005e257620005e1620002a2565b5b620005f0868287016200044e565b925050604084015167ffffffffffffffff811115620006145762000613620002a2565b5b62000622868287016200055f565b9150509250925092565b600081519050919050565b600082825260208201905092915050565b6000819050602082019050919050565b6200066381620002c7565b82525050565b600062000677838362000658565b60208301905092915050565b6000602082019050919050565b60006200069d826200062c565b620006a9818562000637565b9350620006b68362000648565b8060005b83811015620006ed578151620006d1888262000669565b9750620006de8362000683565b925050600181019050620006ba565b5085935050505092915050565b600081519050919050565b600082825260208201905092915050565b6000819050602082019050919050565b6200073181620004b0565b82525050565b600062000745838362000726565b60208301905092915050565b6000602082019050919050565b60006200076b82620006fa565b62000777818562000705565b9350620007848362000716565b8060005b83811015620007bb5781516200079f888262000737565b9750620007ac8362000751565b92505060018101905062000788565b5085935050505092915050565b60006040820190508181036000830152620007e4818562000690565b90508181036020830152620007fa81846200075e565b90509392505050565b613eab80620008136000396000f3fe60806040523480156200001157600080fd5b5060043610620000b85760003560e01c8063accdce2f116200007b578063accdce2f146200014d578063da65f56a146200016d578063ddca3f43146200018d578063ed4a6b0c14620001af578063f2fde38b14620001d1578063ffde808d14620001f157620000b8565b80631ab971ab14620000bd57806344662d6314620000dd578063715018a614620000fd578063731ef8b714620001095780638da5cb5b146200012b575b600080fd5b620000db6004803603810190620000d5919062000d28565b62000227565b005b620000fb6004803603810190620000f5919062000ef7565b620002a0565b005b6200010762000705565b005b620001136200071d565b60405162000122919062000fcd565b60405180910390f35b6200013562000747565b60405162000144919062000fcd565b60405180910390f35b6200016b60048036038101906200016591906200101b565b62000770565b005b6200018b6004803603810190620001859190620011fe565b62000819565b005b620001976200092b565b604051620001a6919062001294565b60405180910390f35b620001b962000944565b604051620001c8919062000fcd565b60405180910390f35b620001ef6004803603810190620001e991906200101b565b6200096e565b005b6200020f6004803603810190620002099190620012b1565b620009f9565b6040516200021e9190620013b1565b60405180910390f35b6200023162000a9c565b80600060146101000a81548163ffffffff021916908363ffffffff1602179055507f3753267f040932c94b3d98627b49823cd3d734305b65980f309af13c1eb4d437600060149054906101000a900463ffffffff1660405162000295919062001294565b60405180910390a150565b82600160009054906101000a900473ffffffffffffffffffffffffffffffffffffffff1673ffffffffffffffffffffffffffffffffffffffff1662fdd58e33876040518363ffffffff1660e01b8152600401620002ff929190620013e6565b60206040518083038186803b1580156200031857600080fd5b505afa1580156200032d573d6000803e3d6000fd5b505050506040513d601f19601f820116820180604052508101906200035391906200142a565b101562000397576040517f08c379a00000000000000000000000000000000000000000000000000000000081526004016200038e90620014bd565b60405180910390fd5b60008211620003dd576040517f08c379a0000000000000000000000000000000000000000000000000000000008152600401620003d4906200152f565b60405180910390fd5b600160009054906101000a900473ffffffffffffffffffffffffffffffffffffffff1673ffffffffffffffffffffffffffffffffffffffff1663e985e9c533306040518363ffffffff1660e01b81526004016200043c92919062001551565b60206040518083038186803b1580156200045557600080fd5b505afa1580156200046a573d6000803e3d6000fd5b505050506040513d601f19601f82011682018060405250810190620004909190620015bb565b620004d2576040517f08c379a0000000000000000000000000000000000000000000000000000000008152600401620004c9906200163d565b60405180910390fd5b600062000501600260009054906101000a900473ffffffffffffffffffffffffffffffffffffffff1662000b21565b90508073ffffffffffffffffffffffffffffffffffffffff166363a24b7a843387600160009054906101000a900473ffffffffffffffffffffffffffffffffffffffff168a6040518663ffffffff1660e01b8152600401620005689594939291906200165f565b600060405180830381600087803b1580156200058357600080fd5b505af115801562000598573d6000803e3d6000fd5b5050505060046000868152602001908152602001600020819080600181540180825580915050600190039060005260206000200160009091909190916101000a81548173ffffffffffffffffffffffffffffffffffffffff021916908373ffffffffffffffffffffffffffffffffffffffff160217905550600160009054906101000a900473ffffffffffffffffffffffffffffffffffffffff1673ffffffffffffffffffffffffffffffffffffffff1663f242432a33838888876040518663ffffffff1660e01b8152600401620006759594939291906200174f565b600060405180830381600087803b1580156200069057600080fd5b505af1158015620006a5573d6000803e3d6000fd5b505050503373ffffffffffffffffffffffffffffffffffffffff16857f1231f44c2e64110a2aa2e05ab9c961fa6c8eb7e30782b85020c51b934baa1d8c838787604051620006f693929190620017b3565b60405180910390a35050505050565b6200070f62000a9c565b6200071b600062000bf9565b565b6000600160009054906101000a900473ffffffffffffffffffffffffffffffffffffffff16905090565b60008060009054906101000a900473ffffffffffffffffffffffffffffffffffffffff16905090565b6200077a62000a9c565b80600160006101000a81548173ffffffffffffffffffffffffffffffffffffffff021916908373ffffffffffffffffffffffffffffffffffffffff1602179055507f7c8793fd82cb384d468c82130c2b961f81c576716ff46795e82c4c2924feb8c4600160009054906101000a900473ffffffffffffffffffffffffffffffffffffffff166040516200080e919062000fcd565b60405180910390a150565b6200082362000a9c565b6000600360009054906101000a900473ffffffffffffffffffffffffffffffffffffffff16905082826040516200085a9062000cc5565b62000867929190620018be565b604051809103906000f08015801562000884573d6000803e3d6000fd5b50600360006101000a81548173ffffffffffffffffffffffffffffffffffffffff021916908373ffffffffffffffffffffffffffffffffffffffff1602179055507fda403ba3492ae6e1e8bcfc8bfac4c0b9df0c253f08575f95f75db962194284a281600360009054906101000a900473ffffffffffffffffffffffffffffffffffffffff1685856040516200091e9493929190620018f9565b60405180910390a1505050565b60008060149054906101000a900463ffffffff16905090565b6000600360009054906101000a900473ffffffffffffffffffffffffffffffffffffffff16905090565b6200097862000a9c565b600073ffffffffffffffffffffffffffffffffffffffff168173ffffffffffffffffffffffffffffffffffffffff161415620009eb576040517f08c379a0000000000000000000000000000000000000000000000000000000008152600401620009e290620019ca565b60405180910390fd5b620009f68162000bf9565b50565b60606004600083815260200190815260200160002080548060200260200160405190810160405280929190818152602001828054801562000a9057602002820191906000526020600020905b8160009054906101000a900473ffffffffffffffffffffffffffffffffffffffff1673ffffffffffffffffffffffffffffffffffffffff168152602001906001019080831162000a45575b50505050509050919050565b62000aa662000cbd565b73ffffffffffffffffffffffffffffffffffffffff1662000ac662000747565b73ffffffffffffffffffffffffffffffffffffffff161462000b1f576040517f08c379a000000000000000000000000000000000000000000000000000000000815260040162000b169062001a3c565b60405180910390fd5b565b60006040517f3d602d80600a3d3981f3363d3d373d3d3d363d7300000000000000000000000081528260601b60148201527f5af43d82803e903d91602b57fd5bf3000000000000000000000000000000000060288201526037816000f0915050600073ffffffffffffffffffffffffffffffffffffffff168173ffffffffffffffffffffffffffffffffffffffff16141562000bf4576040517f08c379a000000000000000000000000000000000000000000000000000000000815260040162000beb9062001aae565b60405180910390fd5b919050565b60008060009054906101000a900473ffffffffffffffffffffffffffffffffffffffff169050816000806101000a81548173ffffffffffffffffffffffffffffffffffffffff021916908373ffffffffffffffffffffffffffffffffffffffff1602179055508173ffffffffffffffffffffffffffffffffffffffff168173ffffffffffffffffffffffffffffffffffffffff167f8be0079c531659141344cd1fd0a4f28419497f9722a3daafe3b4186f6b6457e060405160405180910390a35050565b600033905090565b6123a58062001ad183390190565b6000604051905090565b600080fd5b600080fd5b600063ffffffff82169050919050565b62000d028162000ce7565b811462000d0e57600080fd5b50565b60008135905062000d228162000cf7565b92915050565b60006020828403121562000d415762000d4062000cdd565b5b600062000d518482850162000d11565b91505092915050565b6000819050919050565b62000d6f8162000d5a565b811462000d7b57600080fd5b50565b60008135905062000d8f8162000d64565b92915050565b600080fd5b600080fd5b6000601f19601f8301169050919050565b7f4e487b7100000000000000000000000000000000000000000000000000000000600052604160045260246000fd5b62000dea8262000d9f565b810181811067ffffffffffffffff8211171562000e0c5762000e0b62000db0565b5b80604052505050565b600062000e2162000cd3565b905062000e2f828262000ddf565b919050565b600067ffffffffffffffff82111562000e525762000e5162000db0565b5b62000e5d8262000d9f565b9050602081019050919050565b82818337600083830152505050565b600062000e9062000e8a8462000e34565b62000e15565b90508281526020810184848401111562000eaf5762000eae62000d9a565b5b62000ebc84828562000e6a565b509392505050565b600082601f83011262000edc5762000edb62000d95565b5b813562000eee84826020860162000e79565b91505092915050565b6000806000806080858703121562000f145762000f1362000cdd565b5b600062000f248782880162000d7e565b945050602062000f378782880162000d7e565b935050604062000f4a8782880162000d7e565b925050606085013567ffffffffffffffff81111562000f6e5762000f6d62000ce2565b5b62000f7c8782880162000ec4565b91505092959194509250565b600073ffffffffffffffffffffffffffffffffffffffff82169050919050565b600062000fb58262000f88565b9050919050565b62000fc78162000fa8565b82525050565b600060208201905062000fe4600083018462000fbc565b92915050565b62000ff58162000fa8565b81146200100157600080fd5b50565b600081359050620010158162000fea565b92915050565b60006020828403121562001034576200103362000cdd565b5b6000620010448482850162001004565b91505092915050565b600067ffffffffffffffff8211156200106b576200106a62000db0565b5b602082029050602081019050919050565b600080fd5b60006200109862001092846200104d565b62000e15565b90508083825260208201905060208402830185811115620010be57620010bd6200107c565b5b835b81811015620010eb5780620010d6888262001004565b845260208401935050602081019050620010c0565b5050509392505050565b600082601f8301126200110d576200110c62000d95565b5b81356200111f84826020860162001081565b91505092915050565b600067ffffffffffffffff82111562001146576200114562000db0565b5b602082029050602081019050919050565b60006200116e620011688462001128565b62000e15565b905080838252602082019050602084028301858111156200119457620011936200107c565b5b835b81811015620011c15780620011ac888262000d7e565b84526020840193505060208101905062001196565b5050509392505050565b600082601f830112620011e357620011e262000d95565b5b8135620011f584826020860162001157565b91505092915050565b6000806040838503121562001218576200121762000cdd565b5b600083013567ffffffffffffffff81111562001239576200123862000ce2565b5b6200124785828601620010f5565b925050602083013567ffffffffffffffff8111156200126b576200126a62000ce2565b5b6200127985828601620011cb565b9150509250929050565b6200128e8162000ce7565b82525050565b6000602082019050620012ab600083018462001283565b92915050565b600060208284031215620012ca57620012c962000cdd565b5b6000620012da8482850162000d7e565b91505092915050565b600081519050919050565b600082825260208201905092915050565b6000819050602082019050919050565b6200131a8162000fa8565b82525050565b60006200132e83836200130f565b60208301905092915050565b6000602082019050919050565b60006200135482620012e3565b620013608185620012ee565b93506200136d83620012ff565b8060005b83811015620013a457815162001388888262001320565b975062001395836200133a565b92505060018101905062001371565b5085935050505092915050565b60006020820190508181036000830152620013cd818462001347565b905092915050565b620013e08162000d5a565b82525050565b6000604082019050620013fd600083018562000fbc565b6200140c6020830184620013d5565b9392505050565b600081519050620014248162000d64565b92915050565b60006020828403121562001443576200144262000cdd565b5b6000620014538482850162001413565b91505092915050565b600082825260208201905092915050565b7f496e73756666696369656e742066756e64730000000000000000000000000000600082015250565b6000620014a56012836200145c565b9150620014b2826200146d565b602082019050919050565b60006020820190508181036000830152620014d88162001496565b9050919050565b7f496e76616c696420707269636500000000000000000000000000000000000000600082015250565b600062001517600d836200145c565b91506200152482620014df565b602082019050919050565b600060208201905081810360008301526200154a8162001508565b9050919050565b600060408201905062001568600083018562000fbc565b62001577602083018462000fbc565b9392505050565b60008115159050919050565b62001595816200157e565b8114620015a157600080fd5b50565b600081519050620015b5816200158a565b92915050565b600060208284031215620015d457620015d362000cdd565b5b6000620015e484828501620015a4565b91505092915050565b7f4d494449206e6f7420617070726f766564000000000000000000000000000000600082015250565b6000620016256011836200145c565b91506200163282620015ed565b602082019050919050565b60006020820190508181036000830152620016588162001616565b9050919050565b600060a082019050620016766000830188620013d5565b62001685602083018762000fbc565b620016946040830186620013d5565b620016a3606083018562000fbc565b620016b26080830184620013d5565b9695505050505050565b600081519050919050565b600082825260208201905092915050565b60005b83811015620016f8578082015181840152602081019050620016db565b8381111562001708576000848401525b50505050565b60006200171b82620016bc565b620017278185620016c7565b935062001739818560208601620016d8565b620017448162000d9f565b840191505092915050565b600060a08201905062001766600083018862000fbc565b62001775602083018762000fbc565b620017846040830186620013d5565b620017936060830185620013d5565b8181036080830152620017a781846200170e565b90509695505050505050565b6000606082019050620017ca600083018662000fbc565b620017d96020830185620013d5565b620017e86040830184620013d5565b949350505050565b600081519050919050565b600082825260208201905092915050565b6000819050602082019050919050565b620018278162000d5a565b82525050565b60006200183b83836200181c565b60208301905092915050565b6000602082019050919050565b60006200186182620017f0565b6200186d8185620017fb565b93506200187a836200180c565b8060005b83811015620018b15781516200189588826200182d565b9750620018a28362001847565b9250506001810190506200187e565b5085935050505092915050565b60006040820190508181036000830152620018da818562001347565b90508181036020830152620018f0818462001854565b90509392505050565b600060808201905062001910600083018762000fbc565b6200191f602083018662000fbc565b818103604083015262001933818562001347565b9050818103606083015262001949818462001854565b905095945050505050565b7f4f776e61626c653a206e6577206f776e657220697320746865207a65726f206160008201527f6464726573730000000000000000000000000000000000000000000000000000602082015250565b6000620019b26026836200145c565b9150620019bf8262001954565b604082019050919050565b60006020820190508181036000830152620019e581620019a3565b9050919050565b7f4f776e61626c653a2063616c6c6572206973206e6f7420746865206f776e6572600082015250565b600062001a246020836200145c565b915062001a3182620019ec565b602082019050919050565b6000602082019050818103600083015262001a578162001a15565b9050919050565b7f455243313136373a20637265617465206661696c656400000000000000000000600082015250565b600062001a966016836200145c565b915062001aa38262001a5e565b602082019050919050565b6000602082019050818103600083015262001ac98162001a87565b905091905056fe6080604052604051620023a5380380620023a5833981810160405281019062000029919062000668565b805182511462000070576040517f08c379a0000000000000000000000000000000000000000000000000000000008152600401620000679062000774565b60405180910390fd5b6000825111620000b7576040517f08c379a0000000000000000000000000000000000000000000000000000000008152600401620000ae90620007e6565b60405180910390fd5b60005b8251811015620001265762000110838281518110620000de57620000dd62000808565b5b6020026020010151838381518110620000fc57620000fb62000808565b5b60200260200101516200012f60201b60201c565b80806200011d9062000866565b915050620000ba565b50505062000b02565b600073ffffffffffffffffffffffffffffffffffffffff168273ffffffffffffffffffffffffffffffffffffffff161415620001a2576040517f08c379a000000000000000000000000000000000000000000000000000000000815260040162000199906200092a565b60405180910390fd5b60008111620001e8576040517f08c379a0000000000000000000000000000000000000000000000000000000008152600401620001df906200099c565b60405180910390fd5b6000600260008473ffffffffffffffffffffffffffffffffffffffff1673ffffffffffffffffffffffffffffffffffffffff16815260200190815260200160002054146200026d576040517f08c379a0000000000000000000000000000000000000000000000000000000008152600401620002649062000a34565b60405180910390fd5b6004829080600181540180825580915050600190039060005260206000200160009091909190916101000a81548173ffffffffffffffffffffffffffffffffffffffff021916908373ffffffffffffffffffffffffffffffffffffffff16021790555080600260008473ffffffffffffffffffffffffffffffffffffffff1673ffffffffffffffffffffffffffffffffffffffff168152602001908152602001600020819055508060005462000324919062000a56565b6000819055507f40c340f65e17194d14ddddb073d3c9f888e3cb52b5aae0c6c7706b4fbc905fac82826040516200035d92919062000ad5565b60405180910390a15050565b6000604051905090565b600080fd5b600080fd5b600080fd5b6000601f19601f8301169050919050565b7f4e487b7100000000000000000000000000000000000000000000000000000000600052604160045260246000fd5b620003cd8262000382565b810181811067ffffffffffffffff82111715620003ef57620003ee62000393565b5b80604052505050565b60006200040462000369565b9050620004128282620003c2565b919050565b600067ffffffffffffffff82111562000435576200043462000393565b5b602082029050602081019050919050565b600080fd5b600073ffffffffffffffffffffffffffffffffffffffff82169050919050565b600062000478826200044b565b9050919050565b6200048a816200046b565b81146200049657600080fd5b50565b600081519050620004aa816200047f565b92915050565b6000620004c7620004c18462000417565b620003f8565b90508083825260208201905060208402830185811115620004ed57620004ec62000446565b5b835b818110156200051a578062000505888262000499565b845260208401935050602081019050620004ef565b5050509392505050565b600082601f8301126200053c576200053b6200037d565b5b81516200054e848260208601620004b0565b91505092915050565b600067ffffffffffffffff82111562000575576200057462000393565b5b602082029050602081019050919050565b6000819050919050565b6200059b8162000586565b8114620005a757600080fd5b50565b600081519050620005bb8162000590565b92915050565b6000620005d8620005d28462000557565b620003f8565b90508083825260208201905060208402830185811115620005fe57620005fd62000446565b5b835b818110156200062b5780620006168882620005aa565b84526020840193505060208101905062000600565b5050509392505050565b600082601f8301126200064d576200064c6200037d565b5b81516200065f848260208601620005c1565b91505092915050565b6000806040838503121562000682576200068162000373565b5b600083015167ffffffffffffffff811115620006a357620006a262000378565b5b620006b18582860162000524565b925050602083015167ffffffffffffffff811115620006d557620006d462000378565b5b620006e38582860162000635565b9150509250929050565b600082825260208201905092915050565b7f5061796d656e7453706c69747465723a2070617965657320616e64207368617260008201527f6573206c656e677468206d69736d617463680000000000000000000000000000602082015250565b60006200075c603283620006ed565b91506200076982620006fe565b604082019050919050565b600060208201905081810360008301526200078f816200074d565b9050919050565b7f5061796d656e7453706c69747465723a206e6f20706179656573000000000000600082015250565b6000620007ce601a83620006ed565b9150620007db8262000796565b602082019050919050565b600060208201905081810360008301526200080181620007bf565b9050919050565b7f4e487b7100000000000000000000000000000000000000000000000000000000600052603260045260246000fd5b7f4e487b7100000000000000000000000000000000000000000000000000000000600052601160045260246000fd5b6000620008738262000586565b91507fffffffffffffffffffffffffffffffffffffffffffffffffffffffffffffffff821415620008a957620008a862000837565b5b600182019050919050565b7f5061796d656e7453706c69747465723a206163636f756e74206973207468652060008201527f7a65726f20616464726573730000000000000000000000000000000000000000602082015250565b600062000912602c83620006ed565b91506200091f82620008b4565b604082019050919050565b60006020820190508181036000830152620009458162000903565b9050919050565b7f5061796d656e7453706c69747465723a20736861726573206172652030000000600082015250565b600062000984601d83620006ed565b915062000991826200094c565b602082019050919050565b60006020820190508181036000830152620009b78162000975565b9050919050565b7f5061796d656e7453706c69747465723a206163636f756e7420616c726561647960008201527f2068617320736861726573000000000000000000000000000000000000000000602082015250565b600062000a1c602b83620006ed565b915062000a2982620009be565b604082019050919050565b6000602082019050818103600083015262000a4f8162000a0d565b9050919050565b600062000a638262000586565b915062000a708362000586565b9250827fffffffffffffffffffffffffffffffffffffffffffffffffffffffffffffffff0382111562000aa85762000aa762000837565b5b828201905092915050565b62000abe816200046b565b82525050565b62000acf8162000586565b82525050565b600060408201905062000aec600083018562000ab3565b62000afb602083018462000ac4565b9392505050565b6118938062000b126000396000f3fe6080604052600436106100a05760003560e01c80639852595c116100645780639852595c146101e3578063a3f8eace14610220578063c45ac0501461025d578063ce7c2ac21461029a578063d79779b2146102d7578063e33b7de314610314576100e7565b806319165587146100ec5780633a98ef3914610115578063406072a91461014057806348b750441461017d5780638b83209b146101a6576100e7565b366100e7577f6ef95f06320e7a25a04a175ca677b7052bdd97131872c2192525a629f51be7706100ce61033f565b346040516100dd929190610e5a565b60405180910390a1005b600080fd5b3480156100f857600080fd5b50610113600480360381019061010e9190610ec6565b610347565b005b34801561012157600080fd5b5061012a6104d0565b6040516101379190610ef3565b60405180910390f35b34801561014c57600080fd5b5061016760048036038101906101629190610f78565b6104d9565b6040516101749190610ef3565b60405180910390f35b34801561018957600080fd5b506101a4600480360381019061019f9190610f78565b610560565b005b3480156101b257600080fd5b506101cd60048036038101906101c89190610fe4565b61077d565b6040516101da9190611011565b60405180910390f35b3480156101ef57600080fd5b5061020a6004803603810190610205919061102c565b6107c5565b6040516102179190610ef3565b60405180910390f35b34801561022c57600080fd5b506102476004803603810190610242919061102c565b61080e565b6040516102549190610ef3565b60405180910390f35b34801561026957600080fd5b50610284600480360381019061027f9190610f78565b610841565b6040516102919190610ef3565b60405180910390f35b3480156102a657600080fd5b506102c160048036038101906102bc919061102c565b6108ff565b6040516102ce9190610ef3565b60405180910390f35b3480156102e357600080fd5b506102fe60048036038101906102f99190611059565b610948565b60405161030b9190610ef3565b60405180910390f35b34801561032057600080fd5b50610329610991565b6040516103369190610ef3565b60405180910390f35b600033905090565b6000600260008373ffffffffffffffffffffffffffffffffffffffff1673ffffffffffffffffffffffffffffffffffffffff16815260200190815260200160002054116103c9576040517f08c379a00000000000000000000000000000000000000000000000000000000081526004016103c090611109565b60405180910390fd5b60006103d48261080e565b9050600081141561041a576040517f08c379a00000000000000000000000000000000000000000000000000000000081526004016104119061119b565b60405180910390fd5b80600360008473ffffffffffffffffffffffffffffffffffffffff1673ffffffffffffffffffffffffffffffffffffffff168152602001908152602001600020600082825461046991906111ea565b92505081905550806001600082825461048291906111ea565b92505081905550610493828261099b565b7fdf20fd1e76bc69d672e4814fafb2c449bba3a5369d8359adf9e05e6fde87b05682826040516104c492919061129f565b60405180910390a15050565b60008054905090565b6000600660008473ffffffffffffffffffffffffffffffffffffffff1673ffffffffffffffffffffffffffffffffffffffff16815260200190815260200160002060008373ffffffffffffffffffffffffffffffffffffffff1673ffffffffffffffffffffffffffffffffffffffff16815260200190815260200160002054905092915050565b6000600260008373ffffffffffffffffffffffffffffffffffffffff1673ffffffffffffffffffffffffffffffffffffffff16815260200190815260200160002054116105e2576040517f08c379a00000000000000000000000000000000000000000000000000000000081526004016105d990611109565b60405180910390fd5b60006105ee8383610841565b90506000811415610634576040517f08c379a000000000000000000000000000000000000000000000000000000000815260040161062b9061119b565b60405180910390fd5b80600660008573ffffffffffffffffffffffffffffffffffffffff1673ffffffffffffffffffffffffffffffffffffffff16815260200190815260200160002060008473ffffffffffffffffffffffffffffffffffffffff1673ffffffffffffffffffffffffffffffffffffffff16815260200190815260200160002060008282546106c091906111ea565b9250508190555080600560008573ffffffffffffffffffffffffffffffffffffffff1673ffffffffffffffffffffffffffffffffffffffff168152602001908152602001600020600082825461071691906111ea565b92505081905550610728838383610a8f565b8273ffffffffffffffffffffffffffffffffffffffff167f3be5b7a71e84ed12875d241991c70855ac5817d847039e17a9d895c1ceb0f18a8383604051610770929190610e5a565b60405180910390a2505050565b600060048281548110610793576107926112c8565b5b9060005260206000200160009054906101000a900473ffffffffffffffffffffffffffffffffffffffff169050919050565b6000600360008373ffffffffffffffffffffffffffffffffffffffff1673ffffffffffffffffffffffffffffffffffffffff168152602001908152602001600020549050919050565b600080610819610991565b4761082491906111ea565b90506108398382610834866107c5565b610b15565b915050919050565b60008061084d84610948565b8473ffffffffffffffffffffffffffffffffffffffff166370a08231306040518263ffffffff1660e01b81526004016108869190611011565b60206040518083038186803b15801561089e57600080fd5b505afa1580156108b2573d6000803e3d6000fd5b505050506040513d601f19601f820116820180604052508101906108d6919061130c565b6108e091906111ea565b90506108f683826108f187876104d9565b610b15565b91505092915050565b6000600260008373ffffffffffffffffffffffffffffffffffffffff1673ffffffffffffffffffffffffffffffffffffffff168152602001908152602001600020549050919050565b6000600560008373ffffffffffffffffffffffffffffffffffffffff1673ffffffffffffffffffffffffffffffffffffffff168152602001908152602001600020549050919050565b6000600154905090565b804710156109de576040517f08c379a00000000000000000000000000000000000000000000000000000000081526004016109d590611385565b60405180910390fd5b60008273ffffffffffffffffffffffffffffffffffffffff1682604051610a04906113d6565b60006040518083038185875af1925050503d8060008114610a41576040519150601f19603f3d011682016040523d82523d6000602084013e610a46565b606091505b5050905080610a8a576040517f08c379a0000000000000000000000000000000000000000000000000000000008152600401610a819061145d565b60405180910390fd5b505050565b610b108363a9059cbb60e01b8484604051602401610aae929190610e5a565b604051602081830303815290604052907bffffffffffffffffffffffffffffffffffffffffffffffffffffffff19166020820180517bffffffffffffffffffffffffffffffffffffffffffffffffffffffff8381831617835250505050610b83565b505050565b600081600054600260008773ffffffffffffffffffffffffffffffffffffffff1673ffffffffffffffffffffffffffffffffffffffff1681526020019081526020016000205485610b66919061147d565b610b709190611506565b610b7a9190611537565b90509392505050565b6000610be5826040518060400160405280602081526020017f5361666545524332303a206c6f772d6c6576656c2063616c6c206661696c65648152508573ffffffffffffffffffffffffffffffffffffffff16610c4a9092919063ffffffff16565b9050600081511115610c455780806020019051810190610c0591906115a3565b610c44576040517f08c379a0000000000000000000000000000000000000000000000000000000008152600401610c3b90611642565b60405180910390fd5b5b505050565b6060610c598484600085610c62565b90509392505050565b606082471015610ca7576040517f08c379a0000000000000000000000000000000000000000000000000000000008152600401610c9e906116d4565b60405180910390fd5b610cb085610d76565b610cef576040517f08c379a0000000000000000000000000000000000000000000000000000000008152600401610ce690611740565b60405180910390fd5b6000808673ffffffffffffffffffffffffffffffffffffffff168587604051610d1891906117cf565b60006040518083038185875af1925050503d8060008114610d55576040519150601f19603f3d011682016040523d82523d6000602084013e610d5a565b606091505b5091509150610d6a828286610d99565b92505050949350505050565b6000808273ffffffffffffffffffffffffffffffffffffffff163b119050919050565b60608315610da957829050610df9565b600083511115610dbc5782518084602001fd5b816040517f08c379a0000000000000000000000000000000000000000000000000000000008152600401610df0919061183b565b60405180910390fd5b9392505050565b600073ffffffffffffffffffffffffffffffffffffffff82169050919050565b6000610e2b82610e00565b9050919050565b610e3b81610e20565b82525050565b6000819050919050565b610e5481610e41565b82525050565b6000604082019050610e6f6000830185610e32565b610e7c6020830184610e4b565b9392505050565b600080fd5b6000610e9382610e00565b9050919050565b610ea381610e88565b8114610eae57600080fd5b50565b600081359050610ec081610e9a565b92915050565b600060208284031215610edc57610edb610e83565b5b6000610eea84828501610eb1565b91505092915050565b6000602082019050610f086000830184610e4b565b92915050565b6000610f1982610e20565b9050919050565b610f2981610f0e565b8114610f3457600080fd5b50565b600081359050610f4681610f20565b92915050565b610f5581610e20565b8114610f6057600080fd5b50565b600081359050610f7281610f4c565b92915050565b60008060408385031215610f8f57610f8e610e83565b5b6000610f9d85828601610f37565b9250506020610fae85828601610f63565b9150509250929050565b610fc181610e41565b8114610fcc57600080fd5b50565b600081359050610fde81610fb8565b92915050565b600060208284031215610ffa57610ff9610e83565b5b600061100884828501610fcf565b91505092915050565b60006020820190506110266000830184610e32565b92915050565b60006020828403121561104257611041610e83565b5b600061105084828501610f63565b91505092915050565b60006020828403121561106f5761106e610e83565b5b600061107d84828501610f37565b91505092915050565b600082825260208201905092915050565b7f5061796d656e7453706c69747465723a206163636f756e7420686173206e6f2060008201527f7368617265730000000000000000000000000000000000000000000000000000602082015250565b60006110f3602683611086565b91506110fe82611097565b604082019050919050565b60006020820190508181036000830152611122816110e6565b9050919050565b7f5061796d656e7453706c69747465723a206163636f756e74206973206e6f742060008201527f647565207061796d656e74000000000000000000000000000000000000000000602082015250565b6000611185602b83611086565b915061119082611129565b604082019050919050565b600060208201905081810360008301526111b481611178565b9050919050565b7f4e487b7100000000000000000000000000000000000000000000000000000000600052601160045260246000fd5b60006111f582610e41565b915061120083610e41565b9250827fffffffffffffffffffffffffffffffffffffffffffffffffffffffffffffffff03821115611235576112346111bb565b5b828201905092915050565b6000819050919050565b600061126561126061125b84610e00565b611240565b610e00565b9050919050565b60006112778261124a565b9050919050565b60006112898261126c565b9050919050565b6112998161127e565b82525050565b60006040820190506112b46000830185611290565b6112c16020830184610e4b565b9392505050565b7f4e487b7100000000000000000000000000000000000000000000000000000000600052603260045260246000fd5b60008151905061130681610fb8565b92915050565b60006020828403121561132257611321610e83565b5b6000611330848285016112f7565b91505092915050565b7f416464726573733a20696e73756666696369656e742062616c616e6365000000600082015250565b600061136f601d83611086565b915061137a82611339565b602082019050919050565b6000602082019050818103600083015261139e81611362565b9050919050565b600081905092915050565b50565b60006113c06000836113a5565b91506113cb826113b0565b600082019050919050565b60006113e1826113b3565b9150819050919050565b7f416464726573733a20756e61626c6520746f2073656e642076616c75652c207260008201527f6563697069656e74206d61792068617665207265766572746564000000000000602082015250565b6000611447603a83611086565b9150611452826113eb565b604082019050919050565b600060208201905081810360008301526114768161143a565b9050919050565b600061148882610e41565b915061149383610e41565b9250817fffffffffffffffffffffffffffffffffffffffffffffffffffffffffffffffff04831182151516156114cc576114cb6111bb565b5b828202905092915050565b7f4e487b7100000000000000000000000000000000000000000000000000000000600052601260045260246000fd5b600061151182610e41565b915061151c83610e41565b92508261152c5761152b6114d7565b5b828204905092915050565b600061154282610e41565b915061154d83610e41565b9250828210156115605761155f6111bb565b5b828203905092915050565b60008115159050919050565b6115808161156b565b811461158b57600080fd5b50565b60008151905061159d81611577565b92915050565b6000602082840312156115b9576115b8610e83565b5b60006115c78482850161158e565b91505092915050565b7f5361666545524332303a204552433230206f7065726174696f6e20646964206e60008201527f6f74207375636365656400000000000000000000000000000000000000000000602082015250565b600061162c602a83611086565b9150611637826115d0565b604082019050919050565b6000602082019050818103600083015261165b8161161f565b9050919050565b7f416464726573733a20696e73756666696369656e742062616c616e636520666f60008201527f722063616c6c0000000000000000000000000000000000000000000000000000602082015250565b60006116be602683611086565b91506116c982611662565b604082019050919050565b600060208201905081810360008301526116ed816116b1565b9050919050565b7f416464726573733a2063616c6c20746f206e6f6e2d636f6e7472616374000000600082015250565b600061172a601d83611086565b9150611735826116f4565b602082019050919050565b600060208201905081810360008301526117598161171d565b9050919050565b600081519050919050565b60005b8381101561178957808201518184015260208101905061176e565b83811115611798576000848401525b50505050565b60006117a982611760565b6117b381856113a5565b93506117c381856020860161176b565b80840191505092915050565b60006117db828461179e565b915081905092915050565b600081519050919050565b6000601f19601f8301169050919050565b600061180d826117e6565b6118178185611086565b935061182781856020860161176b565b611830816117f1565b840191505092915050565b600060208201905081810360008301526118558184611802565b90509291505056fea2646970667358221220fb355fc1654a2703376e38cd7b73c9bed7b7f9dd5101a0a5dbc492bac51f50e064736f6c63430008090033a2646970667358221220eefd65e21849fcd37bf68ee44e077cf23e5b3aa2f17294ea91929c919def538e64736f6c63430008090033608060405234801561001057600080fd5b5061002d61002261003260201b60201c565b61003a60201b60201c565b6100fe565b600033905090565b60008060009054906101000a900473ffffffffffffffffffffffffffffffffffffffff169050816000806101000a81548173ffffffffffffffffffffffffffffffffffffffff021916908373ffffffffffffffffffffffffffffffffffffffff1602179055508173ffffffffffffffffffffffffffffffffffffffff168173ffffffffffffffffffffffffffffffffffffffff167f8be0079c531659141344cd1fd0a4f28419497f9722a3daafe3b4186f6b6457e060405160405180910390a35050565b611ca28061010d6000396000f3fe6080604052600436106100fe5760003560e01c806363a24b7a11610095578063a035b1fe11610064578063a035b1fe146102e0578063bc197c811461030b578063ca6a715e14610348578063f23a6e611461035f578063f2fde38b1461039c576100fe565b806363a24b7a1461024a578063715018a6146102735780638da5cb5b1461028a57806391f7cfb9146102b5576100fe565b80631a39d8ef116100d15780631a39d8ef146101c15780633ccfd60b146101ec5780635bf8633a14610203578063631f6d071461022e576100fe565b806301ffc9a71461010357806308551a53146101405780631747a57b1461016b57806317d70f7c14610196575b600080fd5b34801561010f57600080fd5b5061012a6004803603810190610125919061102d565b6103c5565b6040516101379190611075565b60405180910390f35b34801561014c57600080fd5b5061015561043f565b60405161016291906110d1565b60405180910390f35b34801561017757600080fd5b50610180610469565b60405161018d9190611075565b60405180910390f35b3480156101a257600080fd5b506101ab610480565b6040516101b89190611105565b60405180910390f35b3480156101cd57600080fd5b506101d661048a565b6040516101e39190611105565b60405180910390f35b3480156101f857600080fd5b50610201610494565b005b34801561020f57600080fd5b5061021861073d565b60405161022591906110d1565b60405180910390f35b6102486004803603810190610243919061114c565b610767565b005b34801561025657600080fd5b50610271600480360381019061026c91906111a5565b610910565b005b34801561027f57600080fd5b50610288610b09565b005b34801561029657600080fd5b5061029f610b1d565b6040516102ac91906110d1565b60405180910390f35b3480156102c157600080fd5b506102ca610b46565b6040516102d79190611105565b60405180910390f35b3480156102ec57600080fd5b506102f5610b50565b6040516103029190611105565b60405180910390f35b34801561031757600080fd5b50610332600480360381019061032d919061142e565b610b5a565b60405161033f919061150c565b60405180910390f35b34801561035457600080fd5b5061035d610b6f565b005b34801561036b57600080fd5b5061038660048036038101906103819190611527565b610d51565b604051610393919061150c565b60405180910390f35b3480156103a857600080fd5b506103c360048036038101906103be91906115be565b610d66565b005b60007f4e2312e0000000000000000000000000000000000000000000000000000000007bffffffffffffffffffffffffffffffffffffffffffffffffffffffff1916827bffffffffffffffffffffffffffffffffffffffffffffffffffffffff19161480610438575061043782610dea565b5b9050919050565b6000600260009054906101000a900473ffffffffffffffffffffffffffffffffffffffff16905090565b6000600560009054906101000a900460ff16905090565b6000600654905090565b6000600354905090565b600260009054906101000a900473ffffffffffffffffffffffffffffffffffffffff1673ffffffffffffffffffffffffffffffffffffffff166104d5610e54565b73ffffffffffffffffffffffffffffffffffffffff161461052b576040517f08c379a000000000000000000000000000000000000000000000000000000000815260040161052290611648565b60405180910390fd5b6000612710610538610b1d565b73ffffffffffffffffffffffffffffffffffffffff1663ddca3f436040518163ffffffff1660e01b815260040160206040518083038186803b15801561057d57600080fd5b505afa158015610591573d6000803e3d6000fd5b505050506040513d601f19601f820116820180604052508101906105b591906116a4565b63ffffffff166001546105c89190611700565b6105d29190611789565b90506105dc610b1d565b73ffffffffffffffffffffffffffffffffffffffff1663ed4a6b0c6040518163ffffffff1660e01b815260040160206040518083038186803b15801561062157600080fd5b505afa158015610635573d6000803e3d6000fd5b505050506040513d601f19601f8201168201806040525081019061065991906117cf565b73ffffffffffffffffffffffffffffffffffffffff166108fc829081150290604051600060405180830381858888f1935050505015801561069e573d6000803e3d6000fd5b506106a7610e54565b73ffffffffffffffffffffffffffffffffffffffff166108fc82476106cc91906117fc565b9081150290604051600060405180830381858888f193505050501580156106f7573d6000803e3d6000fd5b507faabe3b6b0ad8c0ab6438ff5876c4ed25e6c7f087ae0e449786d05b8ba46685ce814761072591906117fc565b6040516107329190611105565b60405180910390a150565b6000600560019054906101000a900473ffffffffffffffffffffffffffffffffffffffff16905090565b60008160045461077791906117fc565b10156107b8576040517f08c379a00000000000000000000000000000000000000000000000000000000081526004016107af9061187c565b60405180910390fd5b806001546107c69190611700565b3414610807576040517f08c379a00000000000000000000000000000000000000000000000000000000081526004016107fe906118e8565b60405180910390fd5b60011515600560009054906101000a900460ff1615151461085d576040517f08c379a000000000000000000000000000000000000000000000000000000000815260040161085490611954565b60405180910390fd5b8060045461086b91906117fc565b600481905550600560019054906101000a900473ffffffffffffffffffffffffffffffffffffffff1673ffffffffffffffffffffffffffffffffffffffff1663f242432a306108b8610e54565b600654856040518563ffffffff1660e01b81526004016108db94939291906119ab565b600060405180830381600087803b1580156108f557600080fd5b505af1158015610909573d6000803e3d6000fd5b5050505050565b60008060159054906101000a900460ff1615905080801561094357506001600060149054906101000a900460ff1660ff16105b80610972575061095230610e5c565b15801561097157506001600060149054906101000a900460ff1660ff16145b5b6109b1576040517f08c379a00000000000000000000000000000000000000000000000000000000081526004016109a890611a75565b60405180910390fd5b6001600060146101000a81548160ff021916908360ff16021790555080156109ef576001600060156101000a81548160ff0219169083151502179055505b8560018190555084600260006101000a81548173ffffffffffffffffffffffffffffffffffffffff021916908373ffffffffffffffffffffffffffffffffffffffff16021790555083600381905550836004819055506001600560006101000a81548160ff02191690831515021790555082600560016101000a81548173ffffffffffffffffffffffffffffffffffffffff021916908373ffffffffffffffffffffffffffffffffffffffff160217905550816006819055508015610b015760008060156101000a81548160ff0219169083151502179055507f7f26b83ff96e1f2b6a682f133852f6798a09c465da95921460cefb38474024986001604051610af89190611ae7565b60405180910390a15b505050505050565b610b11610e7f565b610b1b6000610efd565b565b60008060009054906101000a900473ffffffffffffffffffffffffffffffffffffffff16905090565b6000600454905090565b6000600154905090565b600063bc197c8160e01b905095945050505050565b60011515600560009054906101000a900460ff16151514610bc5576040517f08c379a0000000000000000000000000000000000000000000000000000000008152600401610bbc90611b4e565b60405180910390fd5b600260009054906101000a900473ffffffffffffffffffffffffffffffffffffffff1673ffffffffffffffffffffffffffffffffffffffff16610c06610e54565b73ffffffffffffffffffffffffffffffffffffffff1614610c5c576040517f08c379a0000000000000000000000000000000000000000000000000000000008152600401610c5390611648565b60405180910390fd5b6000600454905060006004819055506000600560006101000a81548160ff021916908315150217905550600560019054906101000a900473ffffffffffffffffffffffffffffffffffffffff1673ffffffffffffffffffffffffffffffffffffffff1663f242432a30610ccd610e54565b600654856040518563ffffffff1660e01b8152600401610cf094939291906119ab565b600060405180830381600087803b158015610d0a57600080fd5b505af1158015610d1e573d6000803e3d6000fd5b505050507fb553adaea1ed525af76ca57692f787bc6c0ddc7512b88cb8ce28d9a6cb0a76d460405160405180910390a150565b600063f23a6e6160e01b905095945050505050565b610d6e610e7f565b600073ffffffffffffffffffffffffffffffffffffffff168173ffffffffffffffffffffffffffffffffffffffff161415610dde576040517f08c379a0000000000000000000000000000000000000000000000000000000008152600401610dd590611be0565b60405180910390fd5b610de781610efd565b50565b60007f01ffc9a7000000000000000000000000000000000000000000000000000000007bffffffffffffffffffffffffffffffffffffffffffffffffffffffff1916827bffffffffffffffffffffffffffffffffffffffffffffffffffffffff1916149050919050565b600033905090565b6000808273ffffffffffffffffffffffffffffffffffffffff163b119050919050565b610e87610e54565b73ffffffffffffffffffffffffffffffffffffffff16610ea5610b1d565b73ffffffffffffffffffffffffffffffffffffffff1614610efb576040517f08c379a0000000000000000000000000000000000000000000000000000000008152600401610ef290611c4c565b60405180910390fd5b565b60008060009054906101000a900473ffffffffffffffffffffffffffffffffffffffff169050816000806101000a81548173ffffffffffffffffffffffffffffffffffffffff021916908373ffffffffffffffffffffffffffffffffffffffff1602179055508173ffffffffffffffffffffffffffffffffffffffff168173ffffffffffffffffffffffffffffffffffffffff167f8be0079c531659141344cd1fd0a4f28419497f9722a3daafe3b4186f6b6457e060405160405180910390a35050565b6000604051905090565b600080fd5b600080fd5b60007fffffffff0000000000000000000000000000000000000000000000000000000082169050919050565b61100a81610fd5565b811461101557600080fd5b50565b60008135905061102781611001565b92915050565b60006020828403121561104357611042610fcb565b5b600061105184828501611018565b91505092915050565b60008115159050919050565b61106f8161105a565b82525050565b600060208201905061108a6000830184611066565b92915050565b600073ffffffffffffffffffffffffffffffffffffffff82169050919050565b60006110bb82611090565b9050919050565b6110cb816110b0565b82525050565b60006020820190506110e660008301846110c2565b92915050565b6000819050919050565b6110ff816110ec565b82525050565b600060208201905061111a60008301846110f6565b92915050565b611129816110ec565b811461113457600080fd5b50565b60008135905061114681611120565b92915050565b60006020828403121561116257611161610fcb565b5b600061117084828501611137565b91505092915050565b611182816110b0565b811461118d57600080fd5b50565b60008135905061119f81611179565b92915050565b600080600080600060a086880312156111c1576111c0610fcb565b5b60006111cf88828901611137565b95505060206111e088828901611190565b94505060406111f188828901611137565b935050606061120288828901611190565b925050608061121388828901611137565b9150509295509295909350565b600080fd5b6000601f19601f8301169050919050565b7f4e487b7100000000000000000000000000000000000000000000000000000000600052604160045260246000fd5b61126e82611225565b810181811067ffffffffffffffff8211171561128d5761128c611236565b5b80604052505050565b60006112a0610fc1565b90506112ac8282611265565b919050565b600067ffffffffffffffff8211156112cc576112cb611236565b5b602082029050602081019050919050565b600080fd5b60006112f56112f0846112b1565b611296565b90508083825260208201905060208402830185811115611318576113176112dd565b5b835b81811015611341578061132d8882611137565b84526020840193505060208101905061131a565b5050509392505050565b600082601f8301126113605761135f611220565b5b81356113708482602086016112e2565b91505092915050565b600080fd5b600067ffffffffffffffff82111561139957611398611236565b5b6113a282611225565b9050602081019050919050565b82818337600083830152505050565b60006113d16113cc8461137e565b611296565b9050828152602081018484840111156113ed576113ec611379565b5b6113f88482856113af565b509392505050565b600082601f83011261141557611414611220565b5b81356114258482602086016113be565b91505092915050565b600080600080600060a0868803121561144a57611449610fcb565b5b600061145888828901611190565b955050602061146988828901611190565b945050604086013567ffffffffffffffff81111561148a57611489610fd0565b5b6114968882890161134b565b935050606086013567ffffffffffffffff8111156114b7576114b6610fd0565b5b6114c38882890161134b565b925050608086013567ffffffffffffffff8111156114e4576114e3610fd0565b5b6114f088828901611400565b9150509295509295909350565b61150681610fd5565b82525050565b600060208201905061152160008301846114fd565b92915050565b600080600080600060a0868803121561154357611542610fcb565b5b600061155188828901611190565b955050602061156288828901611190565b945050604061157388828901611137565b935050606061158488828901611137565b925050608086013567ffffffffffffffff8111156115a5576115a4610fd0565b5b6115b188828901611400565b9150509295509295909350565b6000602082840312156115d4576115d3610fcb565b5b60006115e284828501611190565b91505092915050565b600082825260208201905092915050565b7f556e617574686f72697a65640000000000000000000000000000000000000000600082015250565b6000611632600c836115eb565b915061163d826115fc565b602082019050919050565b6000602082019050818103600083015261166181611625565b9050919050565b600063ffffffff82169050919050565b61168181611668565b811461168c57600080fd5b50565b60008151905061169e81611678565b92915050565b6000602082840312156116ba576116b9610fcb565b5b60006116c88482850161168f565b91505092915050565b7f4e487b7100000000000000000000000000000000000000000000000000000000600052601160045260246000fd5b600061170b826110ec565b9150611716836110ec565b9250817fffffffffffffffffffffffffffffffffffffffffffffffffffffffffffffffff048311821515161561174f5761174e6116d1565b5b828202905092915050565b7f4e487b7100000000000000000000000000000000000000000000000000000000600052601260045260246000fd5b6000611794826110ec565b915061179f836110ec565b9250826117af576117ae61175a565b5b828204905092915050565b6000815190506117c981611179565b92915050565b6000602082840312156117e5576117e4610fcb565b5b60006117f3848285016117ba565b91505092915050565b6000611807826110ec565b9150611812836110ec565b925082821015611825576118246116d1565b5b828203905092915050565b7f616d6f756e74206e6f7420617661696c61626c65000000000000000000000000600082015250565b60006118666014836115eb565b915061187182611830565b602082019050919050565b6000602082019050818103600083015261189581611859565b9050919050565b7f696e636f7272656374207061796d656e74000000000000000000000000000000600082015250565b60006118d26011836115eb565b91506118dd8261189c565b602082019050919050565b60006020820190508181036000830152611901816118c5565b9050919050565b7f4c697374696e672063616e63656c656400000000000000000000000000000000600082015250565b600061193e6010836115eb565b915061194982611908565b602082019050919050565b6000602082019050818103600083015261196d81611931565b9050919050565b600082825260208201905092915050565b50565b6000611995600083611974565b91506119a082611985565b600082019050919050565b600060a0820190506119c060008301876110c2565b6119cd60208301866110c2565b6119da60408301856110f6565b6119e760608301846110f6565b81810360808301526119f881611988565b905095945050505050565b7f496e697469616c697a61626c653a20636f6e747261637420697320616c72656160008201527f647920696e697469616c697a6564000000000000000000000000000000000000602082015250565b6000611a5f602e836115eb565b9150611a6a82611a03565b604082019050919050565b60006020820190508181036000830152611a8e81611a52565b9050919050565b6000819050919050565b600060ff82169050919050565b6000819050919050565b6000611ad1611acc611ac784611a95565b611aac565b611a9f565b9050919050565b611ae181611ab6565b82525050565b6000602082019050611afc6000830184611ad8565b92915050565b7f4c697374696e672070726576696f75736c792063616e63656c65640000000000600082015250565b6000611b38601b836115eb565b9150611b4382611b02565b602082019050919050565b60006020820190508181036000830152611b6781611b2b565b9050919050565b7f4f776e61626c653a206e6577206f776e657220697320746865207a65726f206160008201527f6464726573730000000000000000000000000000000000000000000000000000602082015250565b6000611bca6026836115eb565b9150611bd582611b6e565b604082019050919050565b60006020820190508181036000830152611bf981611bbd565b9050919050565b7f4f776e61626c653a2063616c6c6572206973206e6f7420746865206f776e6572600082015250565b6000611c366020836115eb565b9150611c4182611c00565b602082019050919050565b60006020820190508181036000830152611c6581611c29565b905091905056fea2646970667358221220f0ebd2b50005b79264be9796517140a324248aeb8c52cd92688fa013ee6a6f1c64736f6c634300080900336080604052604051620023a5380380620023a5833981810160405281019062000029919062000668565b805182511462000070576040517f08c379a0000000000000000000000000000000000000000000000000000000008152600401620000679062000774565b60405180910390fd5b6000825111620000b7576040517f08c379a0000000000000000000000000000000000000000000000000000000008152600401620000ae90620007e6565b60405180910390fd5b60005b8251811015620001265762000110838281518110620000de57620000dd62000808565b5b6020026020010151838381518110620000fc57620000fb62000808565b5b60200260200101516200012f60201b60201c565b80806200011d9062000866565b915050620000ba565b50505062000b02565b600073ffffffffffffffffffffffffffffffffffffffff168273ffffffffffffffffffffffffffffffffffffffff161415620001a2576040517f08c379a000000000000000000000000000000000000000000000000000000000815260040162000199906200092a565b60405180910390fd5b60008111620001e8576040517f08c379a0000000000000000000000000000000000000000000000000000000008152600401620001df906200099c565b60405180910390fd5b6000600260008473ffffffffffffffffffffffffffffffffffffffff1673ffffffffffffffffffffffffffffffffffffffff16815260200190815260200160002054146200026d576040517f08c379a0000000000000000000000000000000000000000000000000000000008152600401620002649062000a34565b60405180910390fd5b6004829080600181540180825580915050600190039060005260206000200160009091909190916101000a81548173ffffffffffffffffffffffffffffffffffffffff021916908373ffffffffffffffffffffffffffffffffffffffff16021790555080600260008473ffffffffffffffffffffffffffffffffffffffff1673ffffffffffffffffffffffffffffffffffffffff168152602001908152602001600020819055508060005462000324919062000a56565b6000819055507f40c340f65e17194d14ddddb073d3c9f888e3cb52b5aae0c6c7706b4fbc905fac82826040516200035d92919062000ad5565b60405180910390a15050565b6000604051905090565b600080fd5b600080fd5b600080fd5b6000601f19601f8301169050919050565b7f4e487b7100000000000000000000000000000000000000000000000000000000600052604160045260246000fd5b620003cd8262000382565b810181811067ffffffffffffffff82111715620003ef57620003ee62000393565b5b80604052505050565b60006200040462000369565b9050620004128282620003c2565b919050565b600067ffffffffffffffff82111562000435576200043462000393565b5b602082029050602081019050919050565b600080fd5b600073ffffffffffffffffffffffffffffffffffffffff82169050919050565b600062000478826200044b565b9050919050565b6200048a816200046b565b81146200049657600080fd5b50565b600081519050620004aa816200047f565b92915050565b6000620004c7620004c18462000417565b620003f8565b90508083825260208201905060208402830185811115620004ed57620004ec62000446565b5b835b818110156200051a578062000505888262000499565b845260208401935050602081019050620004ef565b5050509392505050565b600082601f8301126200053c576200053b6200037d565b5b81516200054e848260208601620004b0565b91505092915050565b600067ffffffffffffffff82111562000575576200057462000393565b5b602082029050602081019050919050565b6000819050919050565b6200059b8162000586565b8114620005a757600080fd5b50565b600081519050620005bb8162000590565b92915050565b6000620005d8620005d28462000557565b620003f8565b90508083825260208201905060208402830185811115620005fe57620005fd62000446565b5b835b818110156200062b5780620006168882620005aa565b84526020840193505060208101905062000600565b5050509392505050565b600082601f8301126200064d576200064c6200037d565b5b81516200065f848260208601620005c1565b91505092915050565b6000806040838503121562000682576200068162000373565b5b600083015167ffffffffffffffff811115620006a357620006a262000378565b5b620006b18582860162000524565b925050602083015167ffffffffffffffff811115620006d557620006d462000378565b5b620006e38582860162000635565b9150509250929050565b600082825260208201905092915050565b7f5061796d656e7453706c69747465723a2070617965657320616e64207368617260008201527f6573206c656e677468206d69736d617463680000000000000000000000000000602082015250565b60006200075c603283620006ed565b91506200076982620006fe565b604082019050919050565b600060208201905081810360008301526200078f816200074d565b9050919050565b7f5061796d656e7453706c69747465723a206e6f20706179656573000000000000600082015250565b6000620007ce601a83620006ed565b9150620007db8262000796565b602082019050919050565b600060208201905081810360008301526200080181620007bf565b9050919050565b7f4e487b7100000000000000000000000000000000000000000000000000000000600052603260045260246000fd5b7f4e487b7100000000000000000000000000000000000000000000000000000000600052601160045260246000fd5b6000620008738262000586565b91507fffffffffffffffffffffffffffffffffffffffffffffffffffffffffffffffff821415620008a957620008a862000837565b5b600182019050919050565b7f5061796d656e7453706c69747465723a206163636f756e74206973207468652060008201527f7a65726f20616464726573730000000000000000000000000000000000000000602082015250565b600062000912602c83620006ed565b91506200091f82620008b4565b604082019050919050565b60006020820190508181036000830152620009458162000903565b9050919050565b7f5061796d656e7453706c69747465723a20736861726573206172652030000000600082015250565b600062000984601d83620006ed565b915062000991826200094c565b602082019050919050565b60006020820190508181036000830152620009b78162000975565b9050919050565b7f5061796d656e7453706c69747465723a206163636f756e7420616c726561647960008201527f2068617320736861726573000000000000000000000000000000000000000000602082015250565b600062000a1c602b83620006ed565b915062000a2982620009be565b604082019050919050565b6000602082019050818103600083015262000a4f8162000a0d565b9050919050565b600062000a638262000586565b915062000a708362000586565b9250827fffffffffffffffffffffffffffffffffffffffffffffffffffffffffffffffff0382111562000aa85762000aa762000837565b5b828201905092915050565b62000abe816200046b565b82525050565b62000acf8162000586565b82525050565b600060408201905062000aec600083018562000ab3565b62000afb602083018462000ac4565b9392505050565b6118938062000b126000396000f3fe6080604052600436106100a05760003560e01c80639852595c116100645780639852595c146101e3578063a3f8eace14610220578063c45ac0501461025d578063ce7c2ac21461029a578063d79779b2146102d7578063e33b7de314610314576100e7565b806319165587146100ec5780633a98ef3914610115578063406072a91461014057806348b750441461017d5780638b83209b146101a6576100e7565b366100e7577f6ef95f06320e7a25a04a175ca677b7052bdd97131872c2192525a629f51be7706100ce61033f565b346040516100dd929190610e5a565b60405180910390a1005b600080fd5b3480156100f857600080fd5b50610113600480360381019061010e9190610ec6565b610347565b005b34801561012157600080fd5b5061012a6104d0565b6040516101379190610ef3565b60405180910390f35b34801561014c57600080fd5b5061016760048036038101906101629190610f78565b6104d9565b6040516101749190610ef3565b60405180910390f35b34801561018957600080fd5b506101a4600480360381019061019f9190610f78565b610560565b005b3480156101b257600080fd5b506101cd60048036038101906101c89190610fe4565b61077d565b6040516101da9190611011565b60405180910390f35b3480156101ef57600080fd5b5061020a6004803603810190610205919061102c565b6107c5565b6040516102179190610ef3565b60405180910390f35b34801561022c57600080fd5b506102476004803603810190610242919061102c565b61080e565b6040516102549190610ef3565b60405180910390f35b34801561026957600080fd5b50610284600480360381019061027f9190610f78565b610841565b6040516102919190610ef3565b60405180910390f35b3480156102a657600080fd5b506102c160048036038101906102bc919061102c565b6108ff565b6040516102ce9190610ef3565b60405180910390f35b3480156102e357600080fd5b506102fe60048036038101906102f99190611059565b610948565b60405161030b9190610ef3565b60405180910390f35b34801561032057600080fd5b50610329610991565b6040516103369190610ef3565b60405180910390f35b600033905090565b6000600260008373ffffffffffffffffffffffffffffffffffffffff1673ffffffffffffffffffffffffffffffffffffffff16815260200190815260200160002054116103c9576040517f08c379a00000000000000000000000000000000000000000000000000000000081526004016103c090611109565b60405180910390fd5b60006103d48261080e565b9050600081141561041a576040517f08c379a00000000000000000000000000000000000000000000000000000000081526004016104119061119b565b60405180910390fd5b80600360008473ffffffffffffffffffffffffffffffffffffffff1673ffffffffffffffffffffffffffffffffffffffff168152602001908152602001600020600082825461046991906111ea565b92505081905550806001600082825461048291906111ea565b92505081905550610493828261099b565b7fdf20fd1e76bc69d672e4814fafb2c449bba3a5369d8359adf9e05e6fde87b05682826040516104c492919061129f565b60405180910390a15050565b60008054905090565b6000600660008473ffffffffffffffffffffffffffffffffffffffff1673ffffffffffffffffffffffffffffffffffffffff16815260200190815260200160002060008373ffffffffffffffffffffffffffffffffffffffff1673ffffffffffffffffffffffffffffffffffffffff16815260200190815260200160002054905092915050565b6000600260008373ffffffffffffffffffffffffffffffffffffffff1673ffffffffffffffffffffffffffffffffffffffff16815260200190815260200160002054116105e2576040517f08c379a00000000000000000000000000000000000000000000000000000000081526004016105d990611109565b60405180910390fd5b60006105ee8383610841565b90506000811415610634576040517f08c379a000000000000000000000000000000000000000000000000000000000815260040161062b9061119b565b60405180910390fd5b80600660008573ffffffffffffffffffffffffffffffffffffffff1673ffffffffffffffffffffffffffffffffffffffff16815260200190815260200160002060008473ffffffffffffffffffffffffffffffffffffffff1673ffffffffffffffffffffffffffffffffffffffff16815260200190815260200160002060008282546106c091906111ea565b9250508190555080600560008573ffffffffffffffffffffffffffffffffffffffff1673ffffffffffffffffffffffffffffffffffffffff168152602001908152602001600020600082825461071691906111ea565b92505081905550610728838383610a8f565b8273ffffffffffffffffffffffffffffffffffffffff167f3be5b7a71e84ed12875d241991c70855ac5817d847039e17a9d895c1ceb0f18a8383604051610770929190610e5a565b60405180910390a2505050565b600060048281548110610793576107926112c8565b5b9060005260206000200160009054906101000a900473ffffffffffffffffffffffffffffffffffffffff169050919050565b6000600360008373ffffffffffffffffffffffffffffffffffffffff1673ffffffffffffffffffffffffffffffffffffffff168152602001908152602001600020549050919050565b600080610819610991565b4761082491906111ea565b90506108398382610834866107c5565b610b15565b915050919050565b60008061084d84610948565b8473ffffffffffffffffffffffffffffffffffffffff166370a08231306040518263ffffffff1660e01b81526004016108869190611011565b60206040518083038186803b15801561089e57600080fd5b505afa1580156108b2573d6000803e3d6000fd5b505050506040513d601f19601f820116820180604052508101906108d6919061130c565b6108e091906111ea565b90506108f683826108f187876104d9565b610b15565b91505092915050565b6000600260008373ffffffffffffffffffffffffffffffffffffffff1673ffffffffffffffffffffffffffffffffffffffff168152602001908152602001600020549050919050565b6000600560008373ffffffffffffffffffffffffffffffffffffffff1673ffffffffffffffffffffffffffffffffffffffff168152602001908152602001600020549050919050565b6000600154905090565b804710156109de576040517f08c379a00000000000000000000000000000000000000000000000000000000081526004016109d590611385565b60405180910390fd5b60008273ffffffffffffffffffffffffffffffffffffffff1682604051610a04906113d6565b60006040518083038185875af1925050503d8060008114610a41576040519150601f19603f3d011682016040523d82523d6000602084013e610a46565b606091505b5050905080610a8a576040517f08c379a0000000000000000000000000000000000000000000000000000000008152600401610a819061145d565b60405180910390fd5b505050565b610b108363a9059cbb60e01b8484604051602401610aae929190610e5a565b604051602081830303815290604052907bffffffffffffffffffffffffffffffffffffffffffffffffffffffff19166020820180517bffffffffffffffffffffffffffffffffffffffffffffffffffffffff8381831617835250505050610b83565b505050565b600081600054600260008773ffffffffffffffffffffffffffffffffffffffff1673ffffffffffffffffffffffffffffffffffffffff1681526020019081526020016000205485610b66919061147d565b610b709190611506565b610b7a9190611537565b90509392505050565b6000610be5826040518060400160405280602081526020017f5361666545524332303a206c6f772d6c6576656c2063616c6c206661696c65648152508573ffffffffffffffffffffffffffffffffffffffff16610c4a9092919063ffffffff16565b9050600081511115610c455780806020019051810190610c0591906115a3565b610c44576040517f08c379a0000000000000000000000000000000000000000000000000000000008152600401610c3b90611642565b60405180910390fd5b5b505050565b6060610c598484600085610c62565b90509392505050565b606082471015610ca7576040517f08c379a0000000000000000000000000000000000000000000000000000000008152600401610c9e906116d4565b60405180910390fd5b610cb085610d76565b610cef576040517f08c379a0000000000000000000000000000000000000000000000000000000008152600401610ce690611740565b60405180910390fd5b6000808673ffffffffffffffffffffffffffffffffffffffff168587604051610d1891906117cf565b60006040518083038185875af1925050503d8060008114610d55576040519150601f19603f3d011682016040523d82523d6000602084013e610d5a565b606091505b5091509150610d6a828286610d99565b92505050949350505050565b6000808273ffffffffffffffffffffffffffffffffffffffff163b119050919050565b60608315610da957829050610df9565b600083511115610dbc5782518084602001fd5b816040517f08c379a0000000000000000000000000000000000000000000000000000000008152600401610df0919061183b565b60405180910390fd5b9392505050565b600073ffffffffffffffffffffffffffffffffffffffff82169050919050565b6000610e2b82610e00565b9050919050565b610e3b81610e20565b82525050565b6000819050919050565b610e5481610e41565b82525050565b6000604082019050610e6f6000830185610e32565b610e7c6020830184610e4b565b9392505050565b600080fd5b6000610e9382610e00565b9050919050565b610ea381610e88565b8114610eae57600080fd5b50565b600081359050610ec081610e9a565b92915050565b600060208284031215610edc57610edb610e83565b5b6000610eea84828501610eb1565b91505092915050565b6000602082019050610f086000830184610e4b565b92915050565b6000610f1982610e20565b9050919050565b610f2981610f0e565b8114610f3457600080fd5b50565b600081359050610f4681610f20565b92915050565b610f5581610e20565b8114610f6057600080fd5b50565b600081359050610f7281610f4c565b92915050565b60008060408385031215610f8f57610f8e610e83565b5b6000610f9d85828601610f37565b9250506020610fae85828601610f63565b9150509250929050565b610fc181610e41565b8114610fcc57600080fd5b50565b600081359050610fde81610fb8565b92915050565b600060208284031215610ffa57610ff9610e83565b5b600061100884828501610fcf565b91505092915050565b60006020820190506110266000830184610e32565b92915050565b60006020828403121561104257611041610e83565b5b600061105084828501610f63565b91505092915050565b60006020828403121561106f5761106e610e83565b5b600061107d84828501610f37565b91505092915050565b600082825260208201905092915050565b7f5061796d656e7453706c69747465723a206163636f756e7420686173206e6f2060008201527f7368617265730000000000000000000000000000000000000000000000000000602082015250565b60006110f3602683611086565b91506110fe82611097565b604082019050919050565b60006020820190508181036000830152611122816110e6565b9050919050565b7f5061796d656e7453706c69747465723a206163636f756e74206973206e6f742060008201527f647565207061796d656e74000000000000000000000000000000000000000000602082015250565b6000611185602b83611086565b915061119082611129565b604082019050919050565b600060208201905081810360008301526111b481611178565b9050919050565b7f4e487b7100000000000000000000000000000000000000000000000000000000600052601160045260246000fd5b60006111f582610e41565b915061120083610e41565b9250827fffffffffffffffffffffffffffffffffffffffffffffffffffffffffffffffff03821115611235576112346111bb565b5b828201905092915050565b6000819050919050565b600061126561126061125b84610e00565b611240565b610e00565b9050919050565b60006112778261124a565b9050919050565b60006112898261126c565b9050919050565b6112998161127e565b82525050565b60006040820190506112b46000830185611290565b6112c16020830184610e4b565b9392505050565b7f4e487b7100000000000000000000000000000000000000000000000000000000600052603260045260246000fd5b60008151905061130681610fb8565b92915050565b60006020828403121561132257611321610e83565b5b6000611330848285016112f7565b91505092915050565b7f416464726573733a20696e73756666696369656e742062616c616e6365000000600082015250565b600061136f601d83611086565b915061137a82611339565b602082019050919050565b6000602082019050818103600083015261139e81611362565b9050919050565b600081905092915050565b50565b60006113c06000836113a5565b91506113cb826113b0565b600082019050919050565b60006113e1826113b3565b9150819050919050565b7f416464726573733a20756e61626c6520746f2073656e642076616c75652c207260008201527f6563697069656e74206d61792068617665207265766572746564000000000000602082015250565b6000611447603a83611086565b9150611452826113eb565b604082019050919050565b600060208201905081810360008301526114768161143a565b9050919050565b600061148882610e41565b915061149383610e41565b9250817fffffffffffffffffffffffffffffffffffffffffffffffffffffffffffffffff04831182151516156114cc576114cb6111bb565b5b828202905092915050565b7f4e487b7100000000000000000000000000000000000000000000000000000000600052601260045260246000fd5b600061151182610e41565b915061151c83610e41565b92508261152c5761152b6114d7565b5b828204905092915050565b600061154282610e41565b915061154d83610e41565b9250828210156115605761155f6111bb565b5b828203905092915050565b60008115159050919050565b6115808161156b565b811461158b57600080fd5b50565b60008151905061159d81611577565b92915050565b6000602082840312156115b9576115b8610e83565b5b60006115c78482850161158e565b91505092915050565b7f5361666545524332303a204552433230206f7065726174696f6e20646964206e60008201527f6f74207375636365656400000000000000000000000000000000000000000000602082015250565b600061162c602a83611086565b9150611637826115d0565b604082019050919050565b6000602082019050818103600083015261165b8161161f565b9050919050565b7f416464726573733a20696e73756666696369656e742062616c616e636520666f60008201527f722063616c6c0000000000000000000000000000000000000000000000000000602082015250565b60006116be602683611086565b91506116c982611662565b604082019050919050565b600060208201905081810360008301526116ed816116b1565b9050919050565b7f416464726573733a2063616c6c20746f206e6f6e2d636f6e7472616374000000600082015250565b600061172a601d83611086565b9150611735826116f4565b602082019050919050565b600060208201905081810360008301526117598161171d565b9050919050565b600081519050919050565b60005b8381101561178957808201518184015260208101905061176e565b83811115611798576000848401525b50505050565b60006117a982611760565b6117b381856113a5565b93506117c381856020860161176b565b80840191505092915050565b60006117db828461179e565b915081905092915050565b600081519050919050565b6000601f19601f8301169050919050565b600061180d826117e6565b6118178185611086565b935061182781856020860161176b565b611830816117f1565b840191505092915050565b600060208201905081810360008301526118558184611802565b90509291505056fea2646970667358221220fb355fc1654a2703376e38cd7b73c9bed7b7f9dd5101a0a5dbc492bac51f50e064736f6c63430008090033",
  "linkReferences": {},
  "deployedLinkReferences": {}
}