{
  "_format": "hh-sol-artifact-1",
  "contractName": "Market",
  "sourceName": "contracts/market/Market.sol",
  "abi": [
    {
      "inputs": [
        {
          "internalType": "address",
          "name": "midi_",
          "type": "address"
        },
        {
          "internalType": "address[]",
          "name": "payees_",
          "type": "address[]"
        },
        {
          "internalType": "uint256[]",
          "name": "shares_",
          "type": "uint256[]"
        }
      ],
      "stateMutability": "nonpayable",
      "type": "constructor"
    },
    {
      "anonymous": false,
      "inputs": [
        {
          "indexed": false,
          "internalType": "uint32",
          "name": "fee",
          "type": "uint32"
        }
      ],
      "name": "FeeUpdated",
      "type": "event"
    },
    {
      "anonymous": false,
      "inputs": [
        {
          "indexed": true,
          "internalType": "uint256",
          "name": "tokenId",
          "type": "uint256"
        },
        {
          "indexed": false,
          "internalType": "address",
          "name": "listing",
          "type": "address"
        },
        {
          "indexed": false,
          "internalType": "uint256",
          "name": "amount",
          "type": "uint256"
        },
        {
          "indexed": false,
          "internalType": "uint256",
          "name": "price",
          "type": "uint256"
        },
        {
          "indexed": true,
          "internalType": "address",
          "name": "user",
          "type": "address"
        }
      ],
      "name": "ListingCreated",
      "type": "event"
    },
    {
      "anonymous": false,
      "inputs": [
        {
          "indexed": false,
          "internalType": "address",
          "name": "midi",
          "type": "address"
        }
      ],
      "name": "MidiAddressUpdated",
      "type": "event"
    },
    {
      "anonymous": false,
      "inputs": [
        {
          "indexed": true,
          "internalType": "address",
          "name": "previousOwner",
          "type": "address"
        },
        {
          "indexed": true,
          "internalType": "address",
          "name": "newOwner",
          "type": "address"
        }
      ],
      "name": "OwnershipTransferred",
      "type": "event"
    },
    {
      "anonymous": false,
      "inputs": [
        {
          "indexed": false,
          "internalType": "address",
          "name": "previousAddress",
          "type": "address"
        },
        {
          "indexed": false,
          "internalType": "address",
          "name": "newAddress",
          "type": "address"
        },
        {
          "indexed": false,
          "internalType": "address[]",
          "name": "payees",
          "type": "address[]"
        },
        {
          "indexed": false,
          "internalType": "uint256[]",
          "name": "shares",
          "type": "uint256[]"
        }
      ],
      "name": "PaymentSplitterUpdated",
      "type": "event"
    },
    {
      "inputs": [
        {
          "internalType": "uint256",
          "name": "id",
          "type": "uint256"
        },
        {
          "internalType": "uint256",
          "name": "amount",
          "type": "uint256"
        },
        {
          "internalType": "uint256",
          "name": "price",
          "type": "uint256"
        },
        {
          "internalType": "bytes",
          "name": "data",
          "type": "bytes"
        }
      ],
      "name": "createListing",
      "outputs": [],
      "stateMutability": "nonpayable",
      "type": "function"
    },
    {
      "inputs": [
        {
          "internalType": "address[]",
          "name": "payees_",
          "type": "address[]"
        },
        {
          "internalType": "uint256[]",
          "name": "shares_",
          "type": "uint256[]"
        }
      ],
      "name": "createNewPaymentSplitter",
      "outputs": [],
      "stateMutability": "nonpayable",
      "type": "function"
    },
    {
      "inputs": [],
      "name": "fee",
      "outputs": [
        {
          "internalType": "uint32",
          "name": "",
          "type": "uint32"
        }
      ],
      "stateMutability": "view",
      "type": "function"
    },
    {
      "inputs": [],
      "name": "midi",
      "outputs": [
        {
          "internalType": "address",
          "name": "",
          "type": "address"
        }
      ],
      "stateMutability": "view",
      "type": "function"
    },
    {
      "inputs": [],
      "name": "owner",
      "outputs": [
        {
          "internalType": "address",
          "name": "",
          "type": "address"
        }
      ],
      "stateMutability": "view",
      "type": "function"
    },
    {
      "inputs": [],
      "name": "paymentSplitter",
      "outputs": [
        {
          "internalType": "address",
          "name": "",
          "type": "address"
        }
      ],
      "stateMutability": "view",
      "type": "function"
    },
    {
      "inputs": [],
      "name": "renounceOwnership",
      "outputs": [],
      "stateMutability": "nonpayable",
      "type": "function"
    },
    {
      "inputs": [
        {
          "internalType": "uint32",
          "name": "newFee",
          "type": "uint32"
        }
      ],
      "name": "setFee",
      "outputs": [],
      "stateMutability": "nonpayable",
      "type": "function"
    },
    {
      "inputs": [
        {
          "internalType": "address",
          "name": "newAddress",
          "type": "address"
        }
      ],
      "name": "setMidiAddress",
      "outputs": [],
      "stateMutability": "nonpayable",
      "type": "function"
    },
    {
      "inputs": [
        {
          "internalType": "uint256",
          "name": "id",
          "type": "uint256"
        }
      ],
      "name": "tokenIdToListing",
      "outputs": [
        {
          "internalType": "address[]",
          "name": "",
          "type": "address[]"
        }
      ],
      "stateMutability": "view",
      "type": "function"
    },
    {
      "inputs": [
        {
          "internalType": "address",
          "name": "newOwner",
          "type": "address"
        }
      ],
      "name": "transferOwnership",
      "outputs": [],
      "stateMutability": "nonpayable",
      "type": "function"
    }
  ],
  "bytecode": "0x608060405261012c600060146101000a81548163ffffffff021916908363ffffffff1602179055503480156200003457600080fd5b50604051620089673803806200896783398181016040528101906200005a919062000592565b6200007a6200006e620001ab60201b60201c565b620001b360201b60201c565b604051620000889062000277565b604051809103906000f080158015620000a5573d6000803e3d6000fd5b50600260006101000a81548173ffffffffffffffffffffffffffffffffffffffff021916908373ffffffffffffffffffffffffffffffffffffffff16021790555082600160006101000a81548173ffffffffffffffffffffffffffffffffffffffff021916908373ffffffffffffffffffffffffffffffffffffffff1602179055508181604051620001379062000285565b62000144929190620007c8565b604051809103906000f08015801562000161573d6000803e3d6000fd5b50600360006101000a81548173ffffffffffffffffffffffffffffffffffffffff021916908373ffffffffffffffffffffffffffffffffffffffff16021790555050505062000803565b600033905090565b60008060009054906101000a900473ffffffffffffffffffffffffffffffffffffffff169050816000806101000a81548173ffffffffffffffffffffffffffffffffffffffff021916908373ffffffffffffffffffffffffffffffffffffffff1602179055508173ffffffffffffffffffffffffffffffffffffffff168173ffffffffffffffffffffffffffffffffffffffff167f8be0079c531659141344cd1fd0a4f28419497f9722a3daafe3b4186f6b6457e060405160405180910390a35050565b611f1680620046ac83390190565b6123a580620065c283390190565b6000604051905090565b600080fd5b600080fd5b600073ffffffffffffffffffffffffffffffffffffffff82169050919050565b6000620002d482620002a7565b9050919050565b620002e681620002c7565b8114620002f257600080fd5b50565b6000815190506200030681620002db565b92915050565b600080fd5b6000601f19601f8301169050919050565b7f4e487b7100000000000000000000000000000000000000000000000000000000600052604160045260246000fd5b6200035c8262000311565b810181811067ffffffffffffffff821117156200037e576200037d62000322565b5b80604052505050565b60006200039362000293565b9050620003a1828262000351565b919050565b600067ffffffffffffffff821115620003c457620003c362000322565b5b602082029050602081019050919050565b600080fd5b6000620003f1620003eb84620003a6565b62000387565b90508083825260208201905060208402830185811115620004175762000416620003d5565b5b835b818110156200044457806200042f8882620002f5565b84526020840193505060208101905062000419565b5050509392505050565b600082601f8301126200046657620004656200030c565b5b815162000478848260208601620003da565b91505092915050565b600067ffffffffffffffff8211156200049f576200049e62000322565b5b602082029050602081019050919050565b6000819050919050565b620004c581620004b0565b8114620004d157600080fd5b50565b600081519050620004e581620004ba565b92915050565b600062000502620004fc8462000481565b62000387565b90508083825260208201905060208402830185811115620005285762000527620003d5565b5b835b81811015620005555780620005408882620004d4565b8452602084019350506020810190506200052a565b5050509392505050565b600082601f8301126200057757620005766200030c565b5b815162000589848260208601620004eb565b91505092915050565b600080600060608486031215620005ae57620005ad6200029d565b5b6000620005be86828701620002f5565b935050602084015167ffffffffffffffff811115620005e257620005e1620002a2565b5b620005f0868287016200044e565b925050604084015167ffffffffffffffff811115620006145762000613620002a2565b5b62000622868287016200055f565b9150509250925092565b600081519050919050565b600082825260208201905092915050565b6000819050602082019050919050565b6200066381620002c7565b82525050565b600062000677838362000658565b60208301905092915050565b6000602082019050919050565b60006200069d826200062c565b620006a9818562000637565b9350620006b68362000648565b8060005b83811015620006ed578151620006d1888262000669565b9750620006de8362000683565b925050600181019050620006ba565b5085935050505092915050565b600081519050919050565b600082825260208201905092915050565b6000819050602082019050919050565b6200073181620004b0565b82525050565b600062000745838362000726565b60208301905092915050565b6000602082019050919050565b60006200076b82620006fa565b62000777818562000705565b9350620007848362000716565b8060005b83811015620007bb5781516200079f888262000737565b9750620007ac8362000751565b92505060018101905062000788565b5085935050505092915050565b60006040820190508181036000830152620007e4818562000690565b90508181036020830152620007fa81846200075e565b90509392505050565b613e9980620008136000396000f3fe60806040523480156200001157600080fd5b5060043610620000b85760003560e01c8063accdce2f116200007b578063accdce2f146200014d578063da65f56a146200016d578063ddca3f43146200018d578063ed4a6b0c14620001af578063f2fde38b14620001d1578063ffde808d14620001f157620000b8565b80631ab971ab14620000bd57806344662d6314620000dd578063715018a614620000fd578063731ef8b714620001095780638da5cb5b146200012b575b600080fd5b620000db6004803603810190620000d5919062000d26565b62000227565b005b620000fb6004803603810190620000f5919062000ef5565b620002a0565b005b6200010762000703565b005b620001136200071b565b60405162000122919062000fcb565b60405180910390f35b6200013562000745565b60405162000144919062000fcb565b60405180910390f35b6200016b600480360381019062000165919062001019565b6200076e565b005b6200018b6004803603810190620001859190620011fc565b62000817565b005b6200019762000929565b604051620001a6919062001292565b60405180910390f35b620001b962000942565b604051620001c8919062000fcb565b60405180910390f35b620001ef6004803603810190620001e9919062001019565b6200096c565b005b6200020f6004803603810190620002099190620012af565b620009f7565b6040516200021e9190620013af565b60405180910390f35b6200023162000a9a565b80600060146101000a81548163ffffffff021916908363ffffffff1602179055507f3753267f040932c94b3d98627b49823cd3d734305b65980f309af13c1eb4d437600060149054906101000a900463ffffffff1660405162000295919062001292565b60405180910390a150565b82600160009054906101000a900473ffffffffffffffffffffffffffffffffffffffff1673ffffffffffffffffffffffffffffffffffffffff1662fdd58e33876040518363ffffffff1660e01b8152600401620002ff929190620013e4565b60206040518083038186803b1580156200031857600080fd5b505afa1580156200032d573d6000803e3d6000fd5b505050506040513d601f19601f8201168201806040525081019062000353919062001428565b101562000397576040517f08c379a00000000000000000000000000000000000000000000000000000000081526004016200038e90620014bb565b60405180910390fd5b60008211620003dd576040517f08c379a0000000000000000000000000000000000000000000000000000000008152600401620003d4906200152d565b60405180910390fd5b600160009054906101000a900473ffffffffffffffffffffffffffffffffffffffff1673ffffffffffffffffffffffffffffffffffffffff1663e985e9c533306040518363ffffffff1660e01b81526004016200043c9291906200154f565b60206040518083038186803b1580156200045557600080fd5b505afa1580156200046a573d6000803e3d6000fd5b505050506040513d601f19601f82011682018060405250810190620004909190620015b9565b620004d2576040517f08c379a0000000000000000000000000000000000000000000000000000000008152600401620004c9906200163b565b60405180910390fd5b600062000501600260009054906101000a900473ffffffffffffffffffffffffffffffffffffffff1662000b1f565b90508073ffffffffffffffffffffffffffffffffffffffff1663e37259e98433600160009054906101000a900473ffffffffffffffffffffffffffffffffffffffff16896040518563ffffffff1660e01b81526004016200056694939291906200165d565b600060405180830381600087803b1580156200058157600080fd5b505af115801562000596573d6000803e3d6000fd5b5050505060046000868152602001908152602001600020819080600181540180825580915050600190039060005260206000200160009091909190916101000a81548173ffffffffffffffffffffffffffffffffffffffff021916908373ffffffffffffffffffffffffffffffffffffffff160217905550600160009054906101000a900473ffffffffffffffffffffffffffffffffffffffff1673ffffffffffffffffffffffffffffffffffffffff1663f242432a33838888876040518663ffffffff1660e01b8152600401620006739594939291906200173d565b600060405180830381600087803b1580156200068e57600080fd5b505af1158015620006a3573d6000803e3d6000fd5b505050503373ffffffffffffffffffffffffffffffffffffffff16857f1231f44c2e64110a2aa2e05ab9c961fa6c8eb7e30782b85020c51b934baa1d8c838787604051620006f493929190620017a1565b60405180910390a35050505050565b6200070d62000a9a565b62000719600062000bf7565b565b6000600160009054906101000a900473ffffffffffffffffffffffffffffffffffffffff16905090565b60008060009054906101000a900473ffffffffffffffffffffffffffffffffffffffff16905090565b6200077862000a9a565b80600160006101000a81548173ffffffffffffffffffffffffffffffffffffffff021916908373ffffffffffffffffffffffffffffffffffffffff1602179055507f7c8793fd82cb384d468c82130c2b961f81c576716ff46795e82c4c2924feb8c4600160009054906101000a900473ffffffffffffffffffffffffffffffffffffffff166040516200080c919062000fcb565b60405180910390a150565b6200082162000a9a565b6000600360009054906101000a900473ffffffffffffffffffffffffffffffffffffffff1690508282604051620008589062000cc3565b62000865929190620018ac565b604051809103906000f08015801562000882573d6000803e3d6000fd5b50600360006101000a81548173ffffffffffffffffffffffffffffffffffffffff021916908373ffffffffffffffffffffffffffffffffffffffff1602179055507fda403ba3492ae6e1e8bcfc8bfac4c0b9df0c253f08575f95f75db962194284a281600360009054906101000a900473ffffffffffffffffffffffffffffffffffffffff1685856040516200091c9493929190620018e7565b60405180910390a1505050565b60008060149054906101000a900463ffffffff16905090565b6000600360009054906101000a900473ffffffffffffffffffffffffffffffffffffffff16905090565b6200097662000a9a565b600073ffffffffffffffffffffffffffffffffffffffff168173ffffffffffffffffffffffffffffffffffffffff161415620009e9576040517f08c379a0000000000000000000000000000000000000000000000000000000008152600401620009e090620019b8565b60405180910390fd5b620009f48162000bf7565b50565b60606004600083815260200190815260200160002080548060200260200160405190810160405280929190818152602001828054801562000a8e57602002820191906000526020600020905b8160009054906101000a900473ffffffffffffffffffffffffffffffffffffffff1673ffffffffffffffffffffffffffffffffffffffff168152602001906001019080831162000a43575b50505050509050919050565b62000aa462000cbb565b73ffffffffffffffffffffffffffffffffffffffff1662000ac462000745565b73ffffffffffffffffffffffffffffffffffffffff161462000b1d576040517f08c379a000000000000000000000000000000000000000000000000000000000815260040162000b149062001a2a565b60405180910390fd5b565b60006040517f3d602d80600a3d3981f3363d3d373d3d3d363d7300000000000000000000000081528260601b60148201527f5af43d82803e903d91602b57fd5bf3000000000000000000000000000000000060288201526037816000f0915050600073ffffffffffffffffffffffffffffffffffffffff168173ffffffffffffffffffffffffffffffffffffffff16141562000bf2576040517f08c379a000000000000000000000000000000000000000000000000000000000815260040162000be99062001a9c565b60405180910390fd5b919050565b60008060009054906101000a900473ffffffffffffffffffffffffffffffffffffffff169050816000806101000a81548173ffffffffffffffffffffffffffffffffffffffff021916908373ffffffffffffffffffffffffffffffffffffffff1602179055508173ffffffffffffffffffffffffffffffffffffffff168173ffffffffffffffffffffffffffffffffffffffff167f8be0079c531659141344cd1fd0a4f28419497f9722a3daafe3b4186f6b6457e060405160405180910390a35050565b600033905090565b6123a58062001abf83390190565b6000604051905090565b600080fd5b600080fd5b600063ffffffff82169050919050565b62000d008162000ce5565b811462000d0c57600080fd5b50565b60008135905062000d208162000cf5565b92915050565b60006020828403121562000d3f5762000d3e62000cdb565b5b600062000d4f8482850162000d0f565b91505092915050565b6000819050919050565b62000d6d8162000d58565b811462000d7957600080fd5b50565b60008135905062000d8d8162000d62565b92915050565b600080fd5b600080fd5b6000601f19601f8301169050919050565b7f4e487b7100000000000000000000000000000000000000000000000000000000600052604160045260246000fd5b62000de88262000d9d565b810181811067ffffffffffffffff8211171562000e0a5762000e0962000dae565b5b80604052505050565b600062000e1f62000cd1565b905062000e2d828262000ddd565b919050565b600067ffffffffffffffff82111562000e505762000e4f62000dae565b5b62000e5b8262000d9d565b9050602081019050919050565b82818337600083830152505050565b600062000e8e62000e888462000e32565b62000e13565b90508281526020810184848401111562000ead5762000eac62000d98565b5b62000eba84828562000e68565b509392505050565b600082601f83011262000eda5762000ed962000d93565b5b813562000eec84826020860162000e77565b91505092915050565b6000806000806080858703121562000f125762000f1162000cdb565b5b600062000f228782880162000d7c565b945050602062000f358782880162000d7c565b935050604062000f488782880162000d7c565b925050606085013567ffffffffffffffff81111562000f6c5762000f6b62000ce0565b5b62000f7a8782880162000ec2565b91505092959194509250565b600073ffffffffffffffffffffffffffffffffffffffff82169050919050565b600062000fb38262000f86565b9050919050565b62000fc58162000fa6565b82525050565b600060208201905062000fe2600083018462000fba565b92915050565b62000ff38162000fa6565b811462000fff57600080fd5b50565b600081359050620010138162000fe8565b92915050565b60006020828403121562001032576200103162000cdb565b5b6000620010428482850162001002565b91505092915050565b600067ffffffffffffffff82111562001069576200106862000dae565b5b602082029050602081019050919050565b600080fd5b60006200109662001090846200104b565b62000e13565b90508083825260208201905060208402830185811115620010bc57620010bb6200107a565b5b835b81811015620010e95780620010d4888262001002565b845260208401935050602081019050620010be565b5050509392505050565b600082601f8301126200110b576200110a62000d93565b5b81356200111d8482602086016200107f565b91505092915050565b600067ffffffffffffffff82111562001144576200114362000dae565b5b602082029050602081019050919050565b60006200116c620011668462001126565b62000e13565b905080838252602082019050602084028301858111156200119257620011916200107a565b5b835b81811015620011bf5780620011aa888262000d7c565b84526020840193505060208101905062001194565b5050509392505050565b600082601f830112620011e157620011e062000d93565b5b8135620011f384826020860162001155565b91505092915050565b6000806040838503121562001216576200121562000cdb565b5b600083013567ffffffffffffffff81111562001237576200123662000ce0565b5b6200124585828601620010f3565b925050602083013567ffffffffffffffff81111562001269576200126862000ce0565b5b6200127785828601620011c9565b9150509250929050565b6200128c8162000ce5565b82525050565b6000602082019050620012a9600083018462001281565b92915050565b600060208284031215620012c857620012c762000cdb565b5b6000620012d88482850162000d7c565b91505092915050565b600081519050919050565b600082825260208201905092915050565b6000819050602082019050919050565b620013188162000fa6565b82525050565b60006200132c83836200130d565b60208301905092915050565b6000602082019050919050565b60006200135282620012e1565b6200135e8185620012ec565b93506200136b83620012fd565b8060005b83811015620013a25781516200138688826200131e565b9750620013938362001338565b9250506001810190506200136f565b5085935050505092915050565b60006020820190508181036000830152620013cb818462001345565b905092915050565b620013de8162000d58565b82525050565b6000604082019050620013fb600083018562000fba565b6200140a6020830184620013d3565b9392505050565b600081519050620014228162000d62565b92915050565b60006020828403121562001441576200144062000cdb565b5b6000620014518482850162001411565b91505092915050565b600082825260208201905092915050565b7f496e73756666696369656e742066756e64730000000000000000000000000000600082015250565b6000620014a36012836200145a565b9150620014b0826200146b565b602082019050919050565b60006020820190508181036000830152620014d68162001494565b9050919050565b7f496e76616c696420707269636500000000000000000000000000000000000000600082015250565b600062001515600d836200145a565b91506200152282620014dd565b602082019050919050565b60006020820190508181036000830152620015488162001506565b9050919050565b600060408201905062001566600083018562000fba565b62001575602083018462000fba565b9392505050565b60008115159050919050565b62001593816200157c565b81146200159f57600080fd5b50565b600081519050620015b38162001588565b92915050565b600060208284031215620015d257620015d162000cdb565b5b6000620015e284828501620015a2565b91505092915050565b7f4d494449206e6f7420617070726f766564000000000000000000000000000000600082015250565b6000620016236011836200145a565b91506200163082620015eb565b602082019050919050565b60006020820190508181036000830152620016568162001614565b9050919050565b6000608082019050620016746000830187620013d3565b62001683602083018662000fba565b62001692604083018562000fba565b620016a16060830184620013d3565b95945050505050565b600081519050919050565b600082825260208201905092915050565b60005b83811015620016e6578082015181840152602081019050620016c9565b83811115620016f6576000848401525b50505050565b60006200170982620016aa565b620017158185620016b5565b935062001727818560208601620016c6565b620017328162000d9d565b840191505092915050565b600060a08201905062001754600083018862000fba565b62001763602083018762000fba565b620017726040830186620013d3565b620017816060830185620013d3565b8181036080830152620017958184620016fc565b90509695505050505050565b6000606082019050620017b8600083018662000fba565b620017c76020830185620013d3565b620017d66040830184620013d3565b949350505050565b600081519050919050565b600082825260208201905092915050565b6000819050602082019050919050565b620018158162000d58565b82525050565b60006200182983836200180a565b60208301905092915050565b6000602082019050919050565b60006200184f82620017de565b6200185b8185620017e9565b93506200186883620017fa565b8060005b838110156200189f5781516200188388826200181b565b9750620018908362001835565b9250506001810190506200186c565b5085935050505092915050565b60006040820190508181036000830152620018c8818562001345565b90508181036020830152620018de818462001842565b90509392505050565b6000608082019050620018fe600083018762000fba565b6200190d602083018662000fba565b818103604083015262001921818562001345565b9050818103606083015262001937818462001842565b905095945050505050565b7f4f776e61626c653a206e6577206f776e657220697320746865207a65726f206160008201527f6464726573730000000000000000000000000000000000000000000000000000602082015250565b6000620019a06026836200145a565b9150620019ad8262001942565b604082019050919050565b60006020820190508181036000830152620019d38162001991565b9050919050565b7f4f776e61626c653a2063616c6c6572206973206e6f7420746865206f776e6572600082015250565b600062001a126020836200145a565b915062001a1f82620019da565b602082019050919050565b6000602082019050818103600083015262001a458162001a03565b9050919050565b7f455243313136373a20637265617465206661696c656400000000000000000000600082015250565b600062001a846016836200145a565b915062001a918262001a4c565b602082019050919050565b6000602082019050818103600083015262001ab78162001a75565b905091905056fe6080604052604051620023a5380380620023a5833981810160405281019062000029919062000668565b805182511462000070576040517f08c379a0000000000000000000000000000000000000000000000000000000008152600401620000679062000774565b60405180910390fd5b6000825111620000b7576040517f08c379a0000000000000000000000000000000000000000000000000000000008152600401620000ae90620007e6565b60405180910390fd5b60005b8251811015620001265762000110838281518110620000de57620000dd62000808565b5b6020026020010151838381518110620000fc57620000fb62000808565b5b60200260200101516200012f60201b60201c565b80806200011d9062000866565b915050620000ba565b50505062000b02565b600073ffffffffffffffffffffffffffffffffffffffff168273ffffffffffffffffffffffffffffffffffffffff161415620001a2576040517f08c379a000000000000000000000000000000000000000000000000000000000815260040162000199906200092a565b60405180910390fd5b60008111620001e8576040517f08c379a0000000000000000000000000000000000000000000000000000000008152600401620001df906200099c565b60405180910390fd5b6000600260008473ffffffffffffffffffffffffffffffffffffffff1673ffffffffffffffffffffffffffffffffffffffff16815260200190815260200160002054146200026d576040517f08c379a0000000000000000000000000000000000000000000000000000000008152600401620002649062000a34565b60405180910390fd5b6004829080600181540180825580915050600190039060005260206000200160009091909190916101000a81548173ffffffffffffffffffffffffffffffffffffffff021916908373ffffffffffffffffffffffffffffffffffffffff16021790555080600260008473ffffffffffffffffffffffffffffffffffffffff1673ffffffffffffffffffffffffffffffffffffffff168152602001908152602001600020819055508060005462000324919062000a56565b6000819055507f40c340f65e17194d14ddddb073d3c9f888e3cb52b5aae0c6c7706b4fbc905fac82826040516200035d92919062000ad5565b60405180910390a15050565b6000604051905090565b600080fd5b600080fd5b600080fd5b6000601f19601f8301169050919050565b7f4e487b7100000000000000000000000000000000000000000000000000000000600052604160045260246000fd5b620003cd8262000382565b810181811067ffffffffffffffff82111715620003ef57620003ee62000393565b5b80604052505050565b60006200040462000369565b9050620004128282620003c2565b919050565b600067ffffffffffffffff82111562000435576200043462000393565b5b602082029050602081019050919050565b600080fd5b600073ffffffffffffffffffffffffffffffffffffffff82169050919050565b600062000478826200044b565b9050919050565b6200048a816200046b565b81146200049657600080fd5b50565b600081519050620004aa816200047f565b92915050565b6000620004c7620004c18462000417565b620003f8565b90508083825260208201905060208402830185811115620004ed57620004ec62000446565b5b835b818110156200051a578062000505888262000499565b845260208401935050602081019050620004ef565b5050509392505050565b600082601f8301126200053c576200053b6200037d565b5b81516200054e848260208601620004b0565b91505092915050565b600067ffffffffffffffff82111562000575576200057462000393565b5b602082029050602081019050919050565b6000819050919050565b6200059b8162000586565b8114620005a757600080fd5b50565b600081519050620005bb8162000590565b92915050565b6000620005d8620005d28462000557565b620003f8565b90508083825260208201905060208402830185811115620005fe57620005fd62000446565b5b835b818110156200062b5780620006168882620005aa565b84526020840193505060208101905062000600565b5050509392505050565b600082601f8301126200064d576200064c6200037d565b5b81516200065f848260208601620005c1565b91505092915050565b6000806040838503121562000682576200068162000373565b5b600083015167ffffffffffffffff811115620006a357620006a262000378565b5b620006b18582860162000524565b925050602083015167ffffffffffffffff811115620006d557620006d462000378565b5b620006e38582860162000635565b9150509250929050565b600082825260208201905092915050565b7f5061796d656e7453706c69747465723a2070617965657320616e64207368617260008201527f6573206c656e677468206d69736d617463680000000000000000000000000000602082015250565b60006200075c603283620006ed565b91506200076982620006fe565b604082019050919050565b600060208201905081810360008301526200078f816200074d565b9050919050565b7f5061796d656e7453706c69747465723a206e6f20706179656573000000000000600082015250565b6000620007ce601a83620006ed565b9150620007db8262000796565b602082019050919050565b600060208201905081810360008301526200080181620007bf565b9050919050565b7f4e487b7100000000000000000000000000000000000000000000000000000000600052603260045260246000fd5b7f4e487b7100000000000000000000000000000000000000000000000000000000600052601160045260246000fd5b6000620008738262000586565b91507fffffffffffffffffffffffffffffffffffffffffffffffffffffffffffffffff821415620008a957620008a862000837565b5b600182019050919050565b7f5061796d656e7453706c69747465723a206163636f756e74206973207468652060008201527f7a65726f20616464726573730000000000000000000000000000000000000000602082015250565b600062000912602c83620006ed565b91506200091f82620008b4565b604082019050919050565b60006020820190508181036000830152620009458162000903565b9050919050565b7f5061796d656e7453706c69747465723a20736861726573206172652030000000600082015250565b600062000984601d83620006ed565b915062000991826200094c565b602082019050919050565b60006020820190508181036000830152620009b78162000975565b9050919050565b7f5061796d656e7453706c69747465723a206163636f756e7420616c726561647960008201527f2068617320736861726573000000000000000000000000000000000000000000602082015250565b600062000a1c602b83620006ed565b915062000a2982620009be565b604082019050919050565b6000602082019050818103600083015262000a4f8162000a0d565b9050919050565b600062000a638262000586565b915062000a708362000586565b9250827fffffffffffffffffffffffffffffffffffffffffffffffffffffffffffffffff0382111562000aa85762000aa762000837565b5b828201905092915050565b62000abe816200046b565b82525050565b62000acf8162000586565b82525050565b600060408201905062000aec600083018562000ab3565b62000afb602083018462000ac4565b9392505050565b6118938062000b126000396000f3fe6080604052600436106100a05760003560e01c80639852595c116100645780639852595c146101e3578063a3f8eace14610220578063c45ac0501461025d578063ce7c2ac21461029a578063d79779b2146102d7578063e33b7de314610314576100e7565b806319165587146100ec5780633a98ef3914610115578063406072a91461014057806348b750441461017d5780638b83209b146101a6576100e7565b366100e7577f6ef95f06320e7a25a04a175ca677b7052bdd97131872c2192525a629f51be7706100ce61033f565b346040516100dd929190610e5a565b60405180910390a1005b600080fd5b3480156100f857600080fd5b50610113600480360381019061010e9190610ec6565b610347565b005b34801561012157600080fd5b5061012a6104d0565b6040516101379190610ef3565b60405180910390f35b34801561014c57600080fd5b5061016760048036038101906101629190610f78565b6104d9565b6040516101749190610ef3565b60405180910390f35b34801561018957600080fd5b506101a4600480360381019061019f9190610f78565b610560565b005b3480156101b257600080fd5b506101cd60048036038101906101c89190610fe4565b61077d565b6040516101da9190611011565b60405180910390f35b3480156101ef57600080fd5b5061020a6004803603810190610205919061102c565b6107c5565b6040516102179190610ef3565b60405180910390f35b34801561022c57600080fd5b506102476004803603810190610242919061102c565b61080e565b6040516102549190610ef3565b60405180910390f35b34801561026957600080fd5b50610284600480360381019061027f9190610f78565b610841565b6040516102919190610ef3565b60405180910390f35b3480156102a657600080fd5b506102c160048036038101906102bc919061102c565b6108ff565b6040516102ce9190610ef3565b60405180910390f35b3480156102e357600080fd5b506102fe60048036038101906102f99190611059565b610948565b60405161030b9190610ef3565b60405180910390f35b34801561032057600080fd5b50610329610991565b6040516103369190610ef3565b60405180910390f35b600033905090565b6000600260008373ffffffffffffffffffffffffffffffffffffffff1673ffffffffffffffffffffffffffffffffffffffff16815260200190815260200160002054116103c9576040517f08c379a00000000000000000000000000000000000000000000000000000000081526004016103c090611109565b60405180910390fd5b60006103d48261080e565b9050600081141561041a576040517f08c379a00000000000000000000000000000000000000000000000000000000081526004016104119061119b565b60405180910390fd5b80600360008473ffffffffffffffffffffffffffffffffffffffff1673ffffffffffffffffffffffffffffffffffffffff168152602001908152602001600020600082825461046991906111ea565b92505081905550806001600082825461048291906111ea565b92505081905550610493828261099b565b7fdf20fd1e76bc69d672e4814fafb2c449bba3a5369d8359adf9e05e6fde87b05682826040516104c492919061129f565b60405180910390a15050565b60008054905090565b6000600660008473ffffffffffffffffffffffffffffffffffffffff1673ffffffffffffffffffffffffffffffffffffffff16815260200190815260200160002060008373ffffffffffffffffffffffffffffffffffffffff1673ffffffffffffffffffffffffffffffffffffffff16815260200190815260200160002054905092915050565b6000600260008373ffffffffffffffffffffffffffffffffffffffff1673ffffffffffffffffffffffffffffffffffffffff16815260200190815260200160002054116105e2576040517f08c379a00000000000000000000000000000000000000000000000000000000081526004016105d990611109565b60405180910390fd5b60006105ee8383610841565b90506000811415610634576040517f08c379a000000000000000000000000000000000000000000000000000000000815260040161062b9061119b565b60405180910390fd5b80600660008573ffffffffffffffffffffffffffffffffffffffff1673ffffffffffffffffffffffffffffffffffffffff16815260200190815260200160002060008473ffffffffffffffffffffffffffffffffffffffff1673ffffffffffffffffffffffffffffffffffffffff16815260200190815260200160002060008282546106c091906111ea565b9250508190555080600560008573ffffffffffffffffffffffffffffffffffffffff1673ffffffffffffffffffffffffffffffffffffffff168152602001908152602001600020600082825461071691906111ea565b92505081905550610728838383610a8f565b8273ffffffffffffffffffffffffffffffffffffffff167f3be5b7a71e84ed12875d241991c70855ac5817d847039e17a9d895c1ceb0f18a8383604051610770929190610e5a565b60405180910390a2505050565b600060048281548110610793576107926112c8565b5b9060005260206000200160009054906101000a900473ffffffffffffffffffffffffffffffffffffffff169050919050565b6000600360008373ffffffffffffffffffffffffffffffffffffffff1673ffffffffffffffffffffffffffffffffffffffff168152602001908152602001600020549050919050565b600080610819610991565b4761082491906111ea565b90506108398382610834866107c5565b610b15565b915050919050565b60008061084d84610948565b8473ffffffffffffffffffffffffffffffffffffffff166370a08231306040518263ffffffff1660e01b81526004016108869190611011565b60206040518083038186803b15801561089e57600080fd5b505afa1580156108b2573d6000803e3d6000fd5b505050506040513d601f19601f820116820180604052508101906108d6919061130c565b6108e091906111ea565b90506108f683826108f187876104d9565b610b15565b91505092915050565b6000600260008373ffffffffffffffffffffffffffffffffffffffff1673ffffffffffffffffffffffffffffffffffffffff168152602001908152602001600020549050919050565b6000600560008373ffffffffffffffffffffffffffffffffffffffff1673ffffffffffffffffffffffffffffffffffffffff168152602001908152602001600020549050919050565b6000600154905090565b804710156109de576040517f08c379a00000000000000000000000000000000000000000000000000000000081526004016109d590611385565b60405180910390fd5b60008273ffffffffffffffffffffffffffffffffffffffff1682604051610a04906113d6565b60006040518083038185875af1925050503d8060008114610a41576040519150601f19603f3d011682016040523d82523d6000602084013e610a46565b606091505b5050905080610a8a576040517f08c379a0000000000000000000000000000000000000000000000000000000008152600401610a819061145d565b60405180910390fd5b505050565b610b108363a9059cbb60e01b8484604051602401610aae929190610e5a565b604051602081830303815290604052907bffffffffffffffffffffffffffffffffffffffffffffffffffffffff19166020820180517bffffffffffffffffffffffffffffffffffffffffffffffffffffffff8381831617835250505050610b83565b505050565b600081600054600260008773ffffffffffffffffffffffffffffffffffffffff1673ffffffffffffffffffffffffffffffffffffffff1681526020019081526020016000205485610b66919061147d565b610b709190611506565b610b7a9190611537565b90509392505050565b6000610be5826040518060400160405280602081526020017f5361666545524332303a206c6f772d6c6576656c2063616c6c206661696c65648152508573ffffffffffffffffffffffffffffffffffffffff16610c4a9092919063ffffffff16565b9050600081511115610c455780806020019051810190610c0591906115a3565b610c44576040517f08c379a0000000000000000000000000000000000000000000000000000000008152600401610c3b90611642565b60405180910390fd5b5b505050565b6060610c598484600085610c62565b90509392505050565b606082471015610ca7576040517f08c379a0000000000000000000000000000000000000000000000000000000008152600401610c9e906116d4565b60405180910390fd5b610cb085610d76565b610cef576040517f08c379a0000000000000000000000000000000000000000000000000000000008152600401610ce690611740565b60405180910390fd5b6000808673ffffffffffffffffffffffffffffffffffffffff168587604051610d1891906117cf565b60006040518083038185875af1925050503d8060008114610d55576040519150601f19603f3d011682016040523d82523d6000602084013e610d5a565b606091505b5091509150610d6a828286610d99565b92505050949350505050565b6000808273ffffffffffffffffffffffffffffffffffffffff163b119050919050565b60608315610da957829050610df9565b600083511115610dbc5782518084602001fd5b816040517f08c379a0000000000000000000000000000000000000000000000000000000008152600401610df0919061183b565b60405180910390fd5b9392505050565b600073ffffffffffffffffffffffffffffffffffffffff82169050919050565b6000610e2b82610e00565b9050919050565b610e3b81610e20565b82525050565b6000819050919050565b610e5481610e41565b82525050565b6000604082019050610e6f6000830185610e32565b610e7c6020830184610e4b565b9392505050565b600080fd5b6000610e9382610e00565b9050919050565b610ea381610e88565b8114610eae57600080fd5b50565b600081359050610ec081610e9a565b92915050565b600060208284031215610edc57610edb610e83565b5b6000610eea84828501610eb1565b91505092915050565b6000602082019050610f086000830184610e4b565b92915050565b6000610f1982610e20565b9050919050565b610f2981610f0e565b8114610f3457600080fd5b50565b600081359050610f4681610f20565b92915050565b610f5581610e20565b8114610f6057600080fd5b50565b600081359050610f7281610f4c565b92915050565b60008060408385031215610f8f57610f8e610e83565b5b6000610f9d85828601610f37565b9250506020610fae85828601610f63565b9150509250929050565b610fc181610e41565b8114610fcc57600080fd5b50565b600081359050610fde81610fb8565b92915050565b600060208284031215610ffa57610ff9610e83565b5b600061100884828501610fcf565b91505092915050565b60006020820190506110266000830184610e32565b92915050565b60006020828403121561104257611041610e83565b5b600061105084828501610f63565b91505092915050565b60006020828403121561106f5761106e610e83565b5b600061107d84828501610f37565b91505092915050565b600082825260208201905092915050565b7f5061796d656e7453706c69747465723a206163636f756e7420686173206e6f2060008201527f7368617265730000000000000000000000000000000000000000000000000000602082015250565b60006110f3602683611086565b91506110fe82611097565b604082019050919050565b60006020820190508181036000830152611122816110e6565b9050919050565b7f5061796d656e7453706c69747465723a206163636f756e74206973206e6f742060008201527f647565207061796d656e74000000000000000000000000000000000000000000602082015250565b6000611185602b83611086565b915061119082611129565b604082019050919050565b600060208201905081810360008301526111b481611178565b9050919050565b7f4e487b7100000000000000000000000000000000000000000000000000000000600052601160045260246000fd5b60006111f582610e41565b915061120083610e41565b9250827fffffffffffffffffffffffffffffffffffffffffffffffffffffffffffffffff03821115611235576112346111bb565b5b828201905092915050565b6000819050919050565b600061126561126061125b84610e00565b611240565b610e00565b9050919050565b60006112778261124a565b9050919050565b60006112898261126c565b9050919050565b6112998161127e565b82525050565b60006040820190506112b46000830185611290565b6112c16020830184610e4b565b9392505050565b7f4e487b7100000000000000000000000000000000000000000000000000000000600052603260045260246000fd5b60008151905061130681610fb8565b92915050565b60006020828403121561132257611321610e83565b5b6000611330848285016112f7565b91505092915050565b7f416464726573733a20696e73756666696369656e742062616c616e6365000000600082015250565b600061136f601d83611086565b915061137a82611339565b602082019050919050565b6000602082019050818103600083015261139e81611362565b9050919050565b600081905092915050565b50565b60006113c06000836113a5565b91506113cb826113b0565b600082019050919050565b60006113e1826113b3565b9150819050919050565b7f416464726573733a20756e61626c6520746f2073656e642076616c75652c207260008201527f6563697069656e74206d61792068617665207265766572746564000000000000602082015250565b6000611447603a83611086565b9150611452826113eb565b604082019050919050565b600060208201905081810360008301526114768161143a565b9050919050565b600061148882610e41565b915061149383610e41565b9250817fffffffffffffffffffffffffffffffffffffffffffffffffffffffffffffffff04831182151516156114cc576114cb6111bb565b5b828202905092915050565b7f4e487b7100000000000000000000000000000000000000000000000000000000600052601260045260246000fd5b600061151182610e41565b915061151c83610e41565b92508261152c5761152b6114d7565b5b828204905092915050565b600061154282610e41565b915061154d83610e41565b9250828210156115605761155f6111bb565b5b828203905092915050565b60008115159050919050565b6115808161156b565b811461158b57600080fd5b50565b60008151905061159d81611577565b92915050565b6000602082840312156115b9576115b8610e83565b5b60006115c78482850161158e565b91505092915050565b7f5361666545524332303a204552433230206f7065726174696f6e20646964206e60008201527f6f74207375636365656400000000000000000000000000000000000000000000602082015250565b600061162c602a83611086565b9150611637826115d0565b604082019050919050565b6000602082019050818103600083015261165b8161161f565b9050919050565b7f416464726573733a20696e73756666696369656e742062616c616e636520666f60008201527f722063616c6c0000000000000000000000000000000000000000000000000000602082015250565b60006116be602683611086565b91506116c982611662565b604082019050919050565b600060208201905081810360008301526116ed816116b1565b9050919050565b7f416464726573733a2063616c6c20746f206e6f6e2d636f6e7472616374000000600082015250565b600061172a601d83611086565b9150611735826116f4565b602082019050919050565b600060208201905081810360008301526117598161171d565b9050919050565b600081519050919050565b60005b8381101561178957808201518184015260208101905061176e565b83811115611798576000848401525b50505050565b60006117a982611760565b6117b381856113a5565b93506117c381856020860161176b565b80840191505092915050565b60006117db828461179e565b915081905092915050565b600081519050919050565b6000601f19601f8301169050919050565b600061180d826117e6565b6118178185611086565b935061182781856020860161176b565b611830816117f1565b840191505092915050565b600060208201905081810360008301526118558184611802565b90509291505056fea2646970667358221220fb355fc1654a2703376e38cd7b73c9bed7b7f9dd5101a0a5dbc492bac51f50e064736f6c63430008090033a26469706673582212200bb91ecb5951971024c9864c1263ce081158fa9148952f3f42e7630d3275f64c64736f6c63430008090033608060405234801561001057600080fd5b50611ef6806100206000396000f3fe6080604052600436106100e85760003560e01c8063715018a61161008a578063ca6a715e11610059578063ca6a715e146102b3578063e37259e9146102ca578063f23a6e61146102f3578063f2fde38b14610330576100e8565b8063715018a6146102095780638da5cb5b14610220578063a035b1fe1461024b578063bc197c8114610276576100e8565b806317d70f7c116100c657806317d70f7c146101805780631c45202d146101ab5780633ccfd60b146101c75780635bf8633a146101de576100e8565b806301ffc9a7146100ed57806308551a531461012a5780631747a57b14610155575b600080fd5b3480156100f957600080fd5b50610114600480360381019061010f9190611185565b610359565b60405161012191906111cd565b60405180910390f35b34801561013657600080fd5b5061013f6103d3565b60405161014c9190611229565b60405180910390f35b34801561016157600080fd5b5061016a6103fd565b60405161017791906111cd565b60405180910390f35b34801561018c57600080fd5b50610195610414565b6040516101a2919061125d565b60405180910390f35b6101c560048036038101906101c091906112d0565b61041e565b005b3480156101d357600080fd5b506101dc610658565b005b3480156101ea57600080fd5b506101f36108fa565b6040516102009190611229565b60405180910390f35b34801561021557600080fd5b5061021e610924565b005b34801561022c57600080fd5b50610235610938565b6040516102429190611229565b60405180910390f35b34801561025757600080fd5b50610260610962565b60405161026d919061125d565b60405180910390f35b34801561028257600080fd5b5061029d6004803603810190610298919061151e565b61096c565b6040516102aa91906115fc565b60405180910390f35b3480156102bf57600080fd5b506102c8610981565b005b3480156102d657600080fd5b506102f160048036038101906102ec9190611617565b610c00565b005b3480156102ff57600080fd5b5061031a6004803603810190610315919061167e565b610ded565b60405161032791906115fc565b60405180910390f35b34801561033c57600080fd5b5061035760048036038101906103529190611715565b610e02565b005b60007f4e2312e0000000000000000000000000000000000000000000000000000000007bffffffffffffffffffffffffffffffffffffffffffffffffffffffff1916827bffffffffffffffffffffffffffffffffffffffffffffffffffffffff191614806103cc57506103cb82610e86565b5b9050919050565b6000606660009054906101000a900473ffffffffffffffffffffffffffffffffffffffff16905090565b6000606660149054906101000a900460ff16905090565b6000606854905090565b600082606760009054906101000a900473ffffffffffffffffffffffffffffffffffffffff1673ffffffffffffffffffffffffffffffffffffffff1662fdd58e306068546040518363ffffffff1660e01b815260040161047f929190611742565b60206040518083038186803b15801561049757600080fd5b505afa1580156104ab573d6000803e3d6000fd5b505050506040513d601f19601f820116820180604052508101906104cf9190611780565b6104d991906117dc565b101561051a576040517f08c379a00000000000000000000000000000000000000000000000000000000081526004016105119061186d565b60405180910390fd5b81606554610528919061188d565b3414610569576040517f08c379a000000000000000000000000000000000000000000000000000000000815260040161056090611933565b60405180910390fd5b60011515606660149054906101000a900460ff161515146105bf576040517f08c379a00000000000000000000000000000000000000000000000000000000081526004016105b69061199f565b60405180910390fd5b606760009054906101000a900473ffffffffffffffffffffffffffffffffffffffff1673ffffffffffffffffffffffffffffffffffffffff1663f242432a3083606854866040518563ffffffff1660e01b815260040161062294939291906119f6565b600060405180830381600087803b15801561063c57600080fd5b505af1158015610650573d6000803e3d6000fd5b505050505050565b606660009054906101000a900473ffffffffffffffffffffffffffffffffffffffff1673ffffffffffffffffffffffffffffffffffffffff16610699610ef0565b73ffffffffffffffffffffffffffffffffffffffff16146106ef576040517f08c379a00000000000000000000000000000000000000000000000000000000081526004016106e690611a9a565b60405180910390fd5b60006127106106fc610938565b73ffffffffffffffffffffffffffffffffffffffff1663ddca3f436040518163ffffffff1660e01b815260040160206040518083038186803b15801561074157600080fd5b505afa158015610755573d6000803e3d6000fd5b505050506040513d601f19601f820116820180604052508101906107799190611af6565b63ffffffff164761078a919061188d565b6107949190611b52565b9050600081476107a491906117dc565b90506107ae610938565b73ffffffffffffffffffffffffffffffffffffffff1663ed4a6b0c6040518163ffffffff1660e01b815260040160206040518083038186803b1580156107f357600080fd5b505afa158015610807573d6000803e3d6000fd5b505050506040513d601f19601f8201168201806040525081019061082b9190611b98565b73ffffffffffffffffffffffffffffffffffffffff166108fc839081150290604051600060405180830381858888f19350505050158015610870573d6000803e3d6000fd5b50610879610ef0565b73ffffffffffffffffffffffffffffffffffffffff166108fc829081150290604051600060405180830381858888f193505050501580156108be573d6000803e3d6000fd5b507faabe3b6b0ad8c0ab6438ff5876c4ed25e6c7f087ae0e449786d05b8ba46685ce816040516108ee919061125d565b60405180910390a15050565b6000606760009054906101000a900473ffffffffffffffffffffffffffffffffffffffff16905090565b61092c610ef8565b6109366000610f76565b565b6000603360009054906101000a900473ffffffffffffffffffffffffffffffffffffffff16905090565b6000606554905090565b600063bc197c8160e01b905095945050505050565b60011515606660149054906101000a900460ff161515146109d7576040517f08c379a00000000000000000000000000000000000000000000000000000000081526004016109ce90611c11565b60405180910390fd5b606660009054906101000a900473ffffffffffffffffffffffffffffffffffffffff1673ffffffffffffffffffffffffffffffffffffffff16610a18610ef0565b73ffffffffffffffffffffffffffffffffffffffff1614610a6e576040517f08c379a0000000000000000000000000000000000000000000000000000000008152600401610a6590611a9a565b60405180910390fd5b6000606660146101000a81548160ff021916908315150217905550606760009054906101000a900473ffffffffffffffffffffffffffffffffffffffff1673ffffffffffffffffffffffffffffffffffffffff1663f242432a30610ad0610ef0565b606854606760009054906101000a900473ffffffffffffffffffffffffffffffffffffffff1673ffffffffffffffffffffffffffffffffffffffff1662fdd58e306068546040518363ffffffff1660e01b8152600401610b31929190611742565b60206040518083038186803b158015610b4957600080fd5b505afa158015610b5d573d6000803e3d6000fd5b505050506040513d601f19601f82011682018060405250810190610b819190611780565b6040518563ffffffff1660e01b8152600401610ba094939291906119f6565b600060405180830381600087803b158015610bba57600080fd5b505af1158015610bce573d6000803e3d6000fd5b505050507fb553adaea1ed525af76ca57692f787bc6c0ddc7512b88cb8ce28d9a6cb0a76d460405160405180910390a1565b60008060019054906101000a900460ff16159050808015610c315750600160008054906101000a900460ff1660ff16105b80610c5e5750610c403061103c565b158015610c5d5750600160008054906101000a900460ff1660ff16145b5b610c9d576040517f08c379a0000000000000000000000000000000000000000000000000000000008152600401610c9490611ca3565b60405180910390fd5b60016000806101000a81548160ff021916908360ff1602179055508015610cda576001600060016101000a81548160ff0219169083151502179055505b610ce261105f565b8460658190555083606660006101000a81548173ffffffffffffffffffffffffffffffffffffffff021916908373ffffffffffffffffffffffffffffffffffffffff1602179055506001606660146101000a81548160ff02191690831515021790555082606760006101000a81548173ffffffffffffffffffffffffffffffffffffffff021916908373ffffffffffffffffffffffffffffffffffffffff160217905550816068819055508015610de65760008060016101000a81548160ff0219169083151502179055507f7f26b83ff96e1f2b6a682f133852f6798a09c465da95921460cefb38474024986001604051610ddd9190611d15565b60405180910390a15b5050505050565b600063f23a6e6160e01b905095945050505050565b610e0a610ef8565b600073ffffffffffffffffffffffffffffffffffffffff168173ffffffffffffffffffffffffffffffffffffffff161415610e7a576040517f08c379a0000000000000000000000000000000000000000000000000000000008152600401610e7190611da2565b60405180910390fd5b610e8381610f76565b50565b60007f01ffc9a7000000000000000000000000000000000000000000000000000000007bffffffffffffffffffffffffffffffffffffffffffffffffffffffff1916827bffffffffffffffffffffffffffffffffffffffffffffffffffffffff1916149050919050565b600033905090565b610f00610ef0565b73ffffffffffffffffffffffffffffffffffffffff16610f1e610938565b73ffffffffffffffffffffffffffffffffffffffff1614610f74576040517f08c379a0000000000000000000000000000000000000000000000000000000008152600401610f6b90611e0e565b60405180910390fd5b565b6000603360009054906101000a900473ffffffffffffffffffffffffffffffffffffffff16905081603360006101000a81548173ffffffffffffffffffffffffffffffffffffffff021916908373ffffffffffffffffffffffffffffffffffffffff1602179055508173ffffffffffffffffffffffffffffffffffffffff168173ffffffffffffffffffffffffffffffffffffffff167f8be0079c531659141344cd1fd0a4f28419497f9722a3daafe3b4186f6b6457e060405160405180910390a35050565b6000808273ffffffffffffffffffffffffffffffffffffffff163b119050919050565b600060019054906101000a900460ff166110ae576040517f08c379a00000000000000000000000000000000000000000000000000000000081526004016110a590611ea0565b60405180910390fd5b6110b66110b8565b565b600060019054906101000a900460ff16611107576040517f08c379a00000000000000000000000000000000000000000000000000000000081526004016110fe90611ea0565b60405180910390fd5b611117611112610ef0565b610f76565b565b6000604051905090565b600080fd5b600080fd5b60007fffffffff0000000000000000000000000000000000000000000000000000000082169050919050565b6111628161112d565b811461116d57600080fd5b50565b60008135905061117f81611159565b92915050565b60006020828403121561119b5761119a611123565b5b60006111a984828501611170565b91505092915050565b60008115159050919050565b6111c7816111b2565b82525050565b60006020820190506111e260008301846111be565b92915050565b600073ffffffffffffffffffffffffffffffffffffffff82169050919050565b6000611213826111e8565b9050919050565b61122381611208565b82525050565b600060208201905061123e600083018461121a565b92915050565b6000819050919050565b61125781611244565b82525050565b6000602082019050611272600083018461124e565b92915050565b61128181611244565b811461128c57600080fd5b50565b60008135905061129e81611278565b92915050565b6112ad81611208565b81146112b857600080fd5b50565b6000813590506112ca816112a4565b92915050565b600080604083850312156112e7576112e6611123565b5b60006112f58582860161128f565b9250506020611306858286016112bb565b9150509250929050565b600080fd5b6000601f19601f8301169050919050565b7f4e487b7100000000000000000000000000000000000000000000000000000000600052604160045260246000fd5b61135e82611315565b810181811067ffffffffffffffff8211171561137d5761137c611326565b5b80604052505050565b6000611390611119565b905061139c8282611355565b919050565b600067ffffffffffffffff8211156113bc576113bb611326565b5b602082029050602081019050919050565b600080fd5b60006113e56113e0846113a1565b611386565b90508083825260208201905060208402830185811115611408576114076113cd565b5b835b81811015611431578061141d888261128f565b84526020840193505060208101905061140a565b5050509392505050565b600082601f8301126114505761144f611310565b5b81356114608482602086016113d2565b91505092915050565b600080fd5b600067ffffffffffffffff82111561148957611488611326565b5b61149282611315565b9050602081019050919050565b82818337600083830152505050565b60006114c16114bc8461146e565b611386565b9050828152602081018484840111156114dd576114dc611469565b5b6114e884828561149f565b509392505050565b600082601f83011261150557611504611310565b5b81356115158482602086016114ae565b91505092915050565b600080600080600060a0868803121561153a57611539611123565b5b6000611548888289016112bb565b9550506020611559888289016112bb565b945050604086013567ffffffffffffffff81111561157a57611579611128565b5b6115868882890161143b565b935050606086013567ffffffffffffffff8111156115a7576115a6611128565b5b6115b38882890161143b565b925050608086013567ffffffffffffffff8111156115d4576115d3611128565b5b6115e0888289016114f0565b9150509295509295909350565b6115f68161112d565b82525050565b600060208201905061161160008301846115ed565b92915050565b6000806000806080858703121561163157611630611123565b5b600061163f8782880161128f565b9450506020611650878288016112bb565b9350506040611661878288016112bb565b92505060606116728782880161128f565b91505092959194509250565b600080600080600060a0868803121561169a57611699611123565b5b60006116a8888289016112bb565b95505060206116b9888289016112bb565b94505060406116ca8882890161128f565b93505060606116db8882890161128f565b925050608086013567ffffffffffffffff8111156116fc576116fb611128565b5b611708888289016114f0565b9150509295509295909350565b60006020828403121561172b5761172a611123565b5b6000611739848285016112bb565b91505092915050565b6000604082019050611757600083018561121a565b611764602083018461124e565b9392505050565b60008151905061177a81611278565b92915050565b60006020828403121561179657611795611123565b5b60006117a48482850161176b565b91505092915050565b7f4e487b7100000000000000000000000000000000000000000000000000000000600052601160045260246000fd5b60006117e782611244565b91506117f283611244565b925082821015611805576118046117ad565b5b828203905092915050565b600082825260208201905092915050565b7f616d6f756e74206e6f7420617661696c61626c65000000000000000000000000600082015250565b6000611857601483611810565b915061186282611821565b602082019050919050565b600060208201905081810360008301526118868161184a565b9050919050565b600061189882611244565b91506118a383611244565b9250817fffffffffffffffffffffffffffffffffffffffffffffffffffffffffffffffff04831182151516156118dc576118db6117ad565b5b828202905092915050565b7f696e636f7272656374207061796d656e74000000000000000000000000000000600082015250565b600061191d601183611810565b9150611928826118e7565b602082019050919050565b6000602082019050818103600083015261194c81611910565b9050919050565b7f4c697374696e672063616e63656c656400000000000000000000000000000000600082015250565b6000611989601083611810565b915061199482611953565b602082019050919050565b600060208201905081810360008301526119b88161197c565b9050919050565b600082825260208201905092915050565b50565b60006119e06000836119bf565b91506119eb826119d0565b600082019050919050565b600060a082019050611a0b600083018761121a565b611a18602083018661121a565b611a25604083018561124e565b611a32606083018461124e565b8181036080830152611a43816119d3565b905095945050505050565b7f556e617574686f72697a65640000000000000000000000000000000000000000600082015250565b6000611a84600c83611810565b9150611a8f82611a4e565b602082019050919050565b60006020820190508181036000830152611ab381611a77565b9050919050565b600063ffffffff82169050919050565b611ad381611aba565b8114611ade57600080fd5b50565b600081519050611af081611aca565b92915050565b600060208284031215611b0c57611b0b611123565b5b6000611b1a84828501611ae1565b91505092915050565b7f4e487b7100000000000000000000000000000000000000000000000000000000600052601260045260246000fd5b6000611b5d82611244565b9150611b6883611244565b925082611b7857611b77611b23565b5b828204905092915050565b600081519050611b92816112a4565b92915050565b600060208284031215611bae57611bad611123565b5b6000611bbc84828501611b83565b91505092915050565b7f4c697374696e672070726576696f75736c792063616e63656c65640000000000600082015250565b6000611bfb601b83611810565b9150611c0682611bc5565b602082019050919050565b60006020820190508181036000830152611c2a81611bee565b9050919050565b7f496e697469616c697a61626c653a20636f6e747261637420697320616c72656160008201527f647920696e697469616c697a6564000000000000000000000000000000000000602082015250565b6000611c8d602e83611810565b9150611c9882611c31565b604082019050919050565b60006020820190508181036000830152611cbc81611c80565b9050919050565b6000819050919050565b600060ff82169050919050565b6000819050919050565b6000611cff611cfa611cf584611cc3565b611cda565b611ccd565b9050919050565b611d0f81611ce4565b82525050565b6000602082019050611d2a6000830184611d06565b92915050565b7f4f776e61626c653a206e6577206f776e657220697320746865207a65726f206160008201527f6464726573730000000000000000000000000000000000000000000000000000602082015250565b6000611d8c602683611810565b9150611d9782611d30565b604082019050919050565b60006020820190508181036000830152611dbb81611d7f565b9050919050565b7f4f776e61626c653a2063616c6c6572206973206e6f7420746865206f776e6572600082015250565b6000611df8602083611810565b9150611e0382611dc2565b602082019050919050565b60006020820190508181036000830152611e2781611deb565b9050919050565b7f496e697469616c697a61626c653a20636f6e7472616374206973206e6f74206960008201527f6e697469616c697a696e67000000000000000000000000000000000000000000602082015250565b6000611e8a602b83611810565b9150611e9582611e2e565b604082019050919050565b60006020820190508181036000830152611eb981611e7d565b905091905056fea2646970667358221220b8720aa375ae67ac8017c0c68cbd4254e8f1627b7e6164b3f020a3c7b756732464736f6c634300080900336080604052604051620023a5380380620023a5833981810160405281019062000029919062000668565b805182511462000070576040517f08c379a0000000000000000000000000000000000000000000000000000000008152600401620000679062000774565b60405180910390fd5b6000825111620000b7576040517f08c379a0000000000000000000000000000000000000000000000000000000008152600401620000ae90620007e6565b60405180910390fd5b60005b8251811015620001265762000110838281518110620000de57620000dd62000808565b5b6020026020010151838381518110620000fc57620000fb62000808565b5b60200260200101516200012f60201b60201c565b80806200011d9062000866565b915050620000ba565b50505062000b02565b600073ffffffffffffffffffffffffffffffffffffffff168273ffffffffffffffffffffffffffffffffffffffff161415620001a2576040517f08c379a000000000000000000000000000000000000000000000000000000000815260040162000199906200092a565b60405180910390fd5b60008111620001e8576040517f08c379a0000000000000000000000000000000000000000000000000000000008152600401620001df906200099c565b60405180910390fd5b6000600260008473ffffffffffffffffffffffffffffffffffffffff1673ffffffffffffffffffffffffffffffffffffffff16815260200190815260200160002054146200026d576040517f08c379a0000000000000000000000000000000000000000000000000000000008152600401620002649062000a34565b60405180910390fd5b6004829080600181540180825580915050600190039060005260206000200160009091909190916101000a81548173ffffffffffffffffffffffffffffffffffffffff021916908373ffffffffffffffffffffffffffffffffffffffff16021790555080600260008473ffffffffffffffffffffffffffffffffffffffff1673ffffffffffffffffffffffffffffffffffffffff168152602001908152602001600020819055508060005462000324919062000a56565b6000819055507f40c340f65e17194d14ddddb073d3c9f888e3cb52b5aae0c6c7706b4fbc905fac82826040516200035d92919062000ad5565b60405180910390a15050565b6000604051905090565b600080fd5b600080fd5b600080fd5b6000601f19601f8301169050919050565b7f4e487b7100000000000000000000000000000000000000000000000000000000600052604160045260246000fd5b620003cd8262000382565b810181811067ffffffffffffffff82111715620003ef57620003ee62000393565b5b80604052505050565b60006200040462000369565b9050620004128282620003c2565b919050565b600067ffffffffffffffff82111562000435576200043462000393565b5b602082029050602081019050919050565b600080fd5b600073ffffffffffffffffffffffffffffffffffffffff82169050919050565b600062000478826200044b565b9050919050565b6200048a816200046b565b81146200049657600080fd5b50565b600081519050620004aa816200047f565b92915050565b6000620004c7620004c18462000417565b620003f8565b90508083825260208201905060208402830185811115620004ed57620004ec62000446565b5b835b818110156200051a578062000505888262000499565b845260208401935050602081019050620004ef565b5050509392505050565b600082601f8301126200053c576200053b6200037d565b5b81516200054e848260208601620004b0565b91505092915050565b600067ffffffffffffffff82111562000575576200057462000393565b5b602082029050602081019050919050565b6000819050919050565b6200059b8162000586565b8114620005a757600080fd5b50565b600081519050620005bb8162000590565b92915050565b6000620005d8620005d28462000557565b620003f8565b90508083825260208201905060208402830185811115620005fe57620005fd62000446565b5b835b818110156200062b5780620006168882620005aa565b84526020840193505060208101905062000600565b5050509392505050565b600082601f8301126200064d576200064c6200037d565b5b81516200065f848260208601620005c1565b91505092915050565b6000806040838503121562000682576200068162000373565b5b600083015167ffffffffffffffff811115620006a357620006a262000378565b5b620006b18582860162000524565b925050602083015167ffffffffffffffff811115620006d557620006d462000378565b5b620006e38582860162000635565b9150509250929050565b600082825260208201905092915050565b7f5061796d656e7453706c69747465723a2070617965657320616e64207368617260008201527f6573206c656e677468206d69736d617463680000000000000000000000000000602082015250565b60006200075c603283620006ed565b91506200076982620006fe565b604082019050919050565b600060208201905081810360008301526200078f816200074d565b9050919050565b7f5061796d656e7453706c69747465723a206e6f20706179656573000000000000600082015250565b6000620007ce601a83620006ed565b9150620007db8262000796565b602082019050919050565b600060208201905081810360008301526200080181620007bf565b9050919050565b7f4e487b7100000000000000000000000000000000000000000000000000000000600052603260045260246000fd5b7f4e487b7100000000000000000000000000000000000000000000000000000000600052601160045260246000fd5b6000620008738262000586565b91507fffffffffffffffffffffffffffffffffffffffffffffffffffffffffffffffff821415620008a957620008a862000837565b5b600182019050919050565b7f5061796d656e7453706c69747465723a206163636f756e74206973207468652060008201527f7a65726f20616464726573730000000000000000000000000000000000000000602082015250565b600062000912602c83620006ed565b91506200091f82620008b4565b604082019050919050565b60006020820190508181036000830152620009458162000903565b9050919050565b7f5061796d656e7453706c69747465723a20736861726573206172652030000000600082015250565b600062000984601d83620006ed565b915062000991826200094c565b602082019050919050565b60006020820190508181036000830152620009b78162000975565b9050919050565b7f5061796d656e7453706c69747465723a206163636f756e7420616c726561647960008201527f2068617320736861726573000000000000000000000000000000000000000000602082015250565b600062000a1c602b83620006ed565b915062000a2982620009be565b604082019050919050565b6000602082019050818103600083015262000a4f8162000a0d565b9050919050565b600062000a638262000586565b915062000a708362000586565b9250827fffffffffffffffffffffffffffffffffffffffffffffffffffffffffffffffff0382111562000aa85762000aa762000837565b5b828201905092915050565b62000abe816200046b565b82525050565b62000acf8162000586565b82525050565b600060408201905062000aec600083018562000ab3565b62000afb602083018462000ac4565b9392505050565b6118938062000b126000396000f3fe6080604052600436106100a05760003560e01c80639852595c116100645780639852595c146101e3578063a3f8eace14610220578063c45ac0501461025d578063ce7c2ac21461029a578063d79779b2146102d7578063e33b7de314610314576100e7565b806319165587146100ec5780633a98ef3914610115578063406072a91461014057806348b750441461017d5780638b83209b146101a6576100e7565b366100e7577f6ef95f06320e7a25a04a175ca677b7052bdd97131872c2192525a629f51be7706100ce61033f565b346040516100dd929190610e5a565b60405180910390a1005b600080fd5b3480156100f857600080fd5b50610113600480360381019061010e9190610ec6565b610347565b005b34801561012157600080fd5b5061012a6104d0565b6040516101379190610ef3565b60405180910390f35b34801561014c57600080fd5b5061016760048036038101906101629190610f78565b6104d9565b6040516101749190610ef3565b60405180910390f35b34801561018957600080fd5b506101a4600480360381019061019f9190610f78565b610560565b005b3480156101b257600080fd5b506101cd60048036038101906101c89190610fe4565b61077d565b6040516101da9190611011565b60405180910390f35b3480156101ef57600080fd5b5061020a6004803603810190610205919061102c565b6107c5565b6040516102179190610ef3565b60405180910390f35b34801561022c57600080fd5b506102476004803603810190610242919061102c565b61080e565b6040516102549190610ef3565b60405180910390f35b34801561026957600080fd5b50610284600480360381019061027f9190610f78565b610841565b6040516102919190610ef3565b60405180910390f35b3480156102a657600080fd5b506102c160048036038101906102bc919061102c565b6108ff565b6040516102ce9190610ef3565b60405180910390f35b3480156102e357600080fd5b506102fe60048036038101906102f99190611059565b610948565b60405161030b9190610ef3565b60405180910390f35b34801561032057600080fd5b50610329610991565b6040516103369190610ef3565b60405180910390f35b600033905090565b6000600260008373ffffffffffffffffffffffffffffffffffffffff1673ffffffffffffffffffffffffffffffffffffffff16815260200190815260200160002054116103c9576040517f08c379a00000000000000000000000000000000000000000000000000000000081526004016103c090611109565b60405180910390fd5b60006103d48261080e565b9050600081141561041a576040517f08c379a00000000000000000000000000000000000000000000000000000000081526004016104119061119b565b60405180910390fd5b80600360008473ffffffffffffffffffffffffffffffffffffffff1673ffffffffffffffffffffffffffffffffffffffff168152602001908152602001600020600082825461046991906111ea565b92505081905550806001600082825461048291906111ea565b92505081905550610493828261099b565b7fdf20fd1e76bc69d672e4814fafb2c449bba3a5369d8359adf9e05e6fde87b05682826040516104c492919061129f565b60405180910390a15050565b60008054905090565b6000600660008473ffffffffffffffffffffffffffffffffffffffff1673ffffffffffffffffffffffffffffffffffffffff16815260200190815260200160002060008373ffffffffffffffffffffffffffffffffffffffff1673ffffffffffffffffffffffffffffffffffffffff16815260200190815260200160002054905092915050565b6000600260008373ffffffffffffffffffffffffffffffffffffffff1673ffffffffffffffffffffffffffffffffffffffff16815260200190815260200160002054116105e2576040517f08c379a00000000000000000000000000000000000000000000000000000000081526004016105d990611109565b60405180910390fd5b60006105ee8383610841565b90506000811415610634576040517f08c379a000000000000000000000000000000000000000000000000000000000815260040161062b9061119b565b60405180910390fd5b80600660008573ffffffffffffffffffffffffffffffffffffffff1673ffffffffffffffffffffffffffffffffffffffff16815260200190815260200160002060008473ffffffffffffffffffffffffffffffffffffffff1673ffffffffffffffffffffffffffffffffffffffff16815260200190815260200160002060008282546106c091906111ea565b9250508190555080600560008573ffffffffffffffffffffffffffffffffffffffff1673ffffffffffffffffffffffffffffffffffffffff168152602001908152602001600020600082825461071691906111ea565b92505081905550610728838383610a8f565b8273ffffffffffffffffffffffffffffffffffffffff167f3be5b7a71e84ed12875d241991c70855ac5817d847039e17a9d895c1ceb0f18a8383604051610770929190610e5a565b60405180910390a2505050565b600060048281548110610793576107926112c8565b5b9060005260206000200160009054906101000a900473ffffffffffffffffffffffffffffffffffffffff169050919050565b6000600360008373ffffffffffffffffffffffffffffffffffffffff1673ffffffffffffffffffffffffffffffffffffffff168152602001908152602001600020549050919050565b600080610819610991565b4761082491906111ea565b90506108398382610834866107c5565b610b15565b915050919050565b60008061084d84610948565b8473ffffffffffffffffffffffffffffffffffffffff166370a08231306040518263ffffffff1660e01b81526004016108869190611011565b60206040518083038186803b15801561089e57600080fd5b505afa1580156108b2573d6000803e3d6000fd5b505050506040513d601f19601f820116820180604052508101906108d6919061130c565b6108e091906111ea565b90506108f683826108f187876104d9565b610b15565b91505092915050565b6000600260008373ffffffffffffffffffffffffffffffffffffffff1673ffffffffffffffffffffffffffffffffffffffff168152602001908152602001600020549050919050565b6000600560008373ffffffffffffffffffffffffffffffffffffffff1673ffffffffffffffffffffffffffffffffffffffff168152602001908152602001600020549050919050565b6000600154905090565b804710156109de576040517f08c379a00000000000000000000000000000000000000000000000000000000081526004016109d590611385565b60405180910390fd5b60008273ffffffffffffffffffffffffffffffffffffffff1682604051610a04906113d6565b60006040518083038185875af1925050503d8060008114610a41576040519150601f19603f3d011682016040523d82523d6000602084013e610a46565b606091505b5050905080610a8a576040517f08c379a0000000000000000000000000000000000000000000000000000000008152600401610a819061145d565b60405180910390fd5b505050565b610b108363a9059cbb60e01b8484604051602401610aae929190610e5a565b604051602081830303815290604052907bffffffffffffffffffffffffffffffffffffffffffffffffffffffff19166020820180517bffffffffffffffffffffffffffffffffffffffffffffffffffffffff8381831617835250505050610b83565b505050565b600081600054600260008773ffffffffffffffffffffffffffffffffffffffff1673ffffffffffffffffffffffffffffffffffffffff1681526020019081526020016000205485610b66919061147d565b610b709190611506565b610b7a9190611537565b90509392505050565b6000610be5826040518060400160405280602081526020017f5361666545524332303a206c6f772d6c6576656c2063616c6c206661696c65648152508573ffffffffffffffffffffffffffffffffffffffff16610c4a9092919063ffffffff16565b9050600081511115610c455780806020019051810190610c0591906115a3565b610c44576040517f08c379a0000000000000000000000000000000000000000000000000000000008152600401610c3b90611642565b60405180910390fd5b5b505050565b6060610c598484600085610c62565b90509392505050565b606082471015610ca7576040517f08c379a0000000000000000000000000000000000000000000000000000000008152600401610c9e906116d4565b60405180910390fd5b610cb085610d76565b610cef576040517f08c379a0000000000000000000000000000000000000000000000000000000008152600401610ce690611740565b60405180910390fd5b6000808673ffffffffffffffffffffffffffffffffffffffff168587604051610d1891906117cf565b60006040518083038185875af1925050503d8060008114610d55576040519150601f19603f3d011682016040523d82523d6000602084013e610d5a565b606091505b5091509150610d6a828286610d99565b92505050949350505050565b6000808273ffffffffffffffffffffffffffffffffffffffff163b119050919050565b60608315610da957829050610df9565b600083511115610dbc5782518084602001fd5b816040517f08c379a0000000000000000000000000000000000000000000000000000000008152600401610df0919061183b565b60405180910390fd5b9392505050565b600073ffffffffffffffffffffffffffffffffffffffff82169050919050565b6000610e2b82610e00565b9050919050565b610e3b81610e20565b82525050565b6000819050919050565b610e5481610e41565b82525050565b6000604082019050610e6f6000830185610e32565b610e7c6020830184610e4b565b9392505050565b600080fd5b6000610e9382610e00565b9050919050565b610ea381610e88565b8114610eae57600080fd5b50565b600081359050610ec081610e9a565b92915050565b600060208284031215610edc57610edb610e83565b5b6000610eea84828501610eb1565b91505092915050565b6000602082019050610f086000830184610e4b565b92915050565b6000610f1982610e20565b9050919050565b610f2981610f0e565b8114610f3457600080fd5b50565b600081359050610f4681610f20565b92915050565b610f5581610e20565b8114610f6057600080fd5b50565b600081359050610f7281610f4c565b92915050565b60008060408385031215610f8f57610f8e610e83565b5b6000610f9d85828601610f37565b9250506020610fae85828601610f63565b9150509250929050565b610fc181610e41565b8114610fcc57600080fd5b50565b600081359050610fde81610fb8565b92915050565b600060208284031215610ffa57610ff9610e83565b5b600061100884828501610fcf565b91505092915050565b60006020820190506110266000830184610e32565b92915050565b60006020828403121561104257611041610e83565b5b600061105084828501610f63565b91505092915050565b60006020828403121561106f5761106e610e83565b5b600061107d84828501610f37565b91505092915050565b600082825260208201905092915050565b7f5061796d656e7453706c69747465723a206163636f756e7420686173206e6f2060008201527f7368617265730000000000000000000000000000000000000000000000000000602082015250565b60006110f3602683611086565b91506110fe82611097565b604082019050919050565b60006020820190508181036000830152611122816110e6565b9050919050565b7f5061796d656e7453706c69747465723a206163636f756e74206973206e6f742060008201527f647565207061796d656e74000000000000000000000000000000000000000000602082015250565b6000611185602b83611086565b915061119082611129565b604082019050919050565b600060208201905081810360008301526111b481611178565b9050919050565b7f4e487b7100000000000000000000000000000000000000000000000000000000600052601160045260246000fd5b60006111f582610e41565b915061120083610e41565b9250827fffffffffffffffffffffffffffffffffffffffffffffffffffffffffffffffff03821115611235576112346111bb565b5b828201905092915050565b6000819050919050565b600061126561126061125b84610e00565b611240565b610e00565b9050919050565b60006112778261124a565b9050919050565b60006112898261126c565b9050919050565b6112998161127e565b82525050565b60006040820190506112b46000830185611290565b6112c16020830184610e4b565b9392505050565b7f4e487b7100000000000000000000000000000000000000000000000000000000600052603260045260246000fd5b60008151905061130681610fb8565b92915050565b60006020828403121561132257611321610e83565b5b6000611330848285016112f7565b91505092915050565b7f416464726573733a20696e73756666696369656e742062616c616e6365000000600082015250565b600061136f601d83611086565b915061137a82611339565b602082019050919050565b6000602082019050818103600083015261139e81611362565b9050919050565b600081905092915050565b50565b60006113c06000836113a5565b91506113cb826113b0565b600082019050919050565b60006113e1826113b3565b9150819050919050565b7f416464726573733a20756e61626c6520746f2073656e642076616c75652c207260008201527f6563697069656e74206d61792068617665207265766572746564000000000000602082015250565b6000611447603a83611086565b9150611452826113eb565b604082019050919050565b600060208201905081810360008301526114768161143a565b9050919050565b600061148882610e41565b915061149383610e41565b9250817fffffffffffffffffffffffffffffffffffffffffffffffffffffffffffffffff04831182151516156114cc576114cb6111bb565b5b828202905092915050565b7f4e487b7100000000000000000000000000000000000000000000000000000000600052601260045260246000fd5b600061151182610e41565b915061151c83610e41565b92508261152c5761152b6114d7565b5b828204905092915050565b600061154282610e41565b915061154d83610e41565b9250828210156115605761155f6111bb565b5b828203905092915050565b60008115159050919050565b6115808161156b565b811461158b57600080fd5b50565b60008151905061159d81611577565b92915050565b6000602082840312156115b9576115b8610e83565b5b60006115c78482850161158e565b91505092915050565b7f5361666545524332303a204552433230206f7065726174696f6e20646964206e60008201527f6f74207375636365656400000000000000000000000000000000000000000000602082015250565b600061162c602a83611086565b9150611637826115d0565b604082019050919050565b6000602082019050818103600083015261165b8161161f565b9050919050565b7f416464726573733a20696e73756666696369656e742062616c616e636520666f60008201527f722063616c6c0000000000000000000000000000000000000000000000000000602082015250565b60006116be602683611086565b91506116c982611662565b604082019050919050565b600060208201905081810360008301526116ed816116b1565b9050919050565b7f416464726573733a2063616c6c20746f206e6f6e2d636f6e7472616374000000600082015250565b600061172a601d83611086565b9150611735826116f4565b602082019050919050565b600060208201905081810360008301526117598161171d565b9050919050565b600081519050919050565b60005b8381101561178957808201518184015260208101905061176e565b83811115611798576000848401525b50505050565b60006117a982611760565b6117b381856113a5565b93506117c381856020860161176b565b80840191505092915050565b60006117db828461179e565b915081905092915050565b600081519050919050565b6000601f19601f8301169050919050565b600061180d826117e6565b6118178185611086565b935061182781856020860161176b565b611830816117f1565b840191505092915050565b600060208201905081810360008301526118558184611802565b90509291505056fea2646970667358221220fb355fc1654a2703376e38cd7b73c9bed7b7f9dd5101a0a5dbc492bac51f50e064736f6c63430008090033",
  "linkReferences": {},
  "deployedLinkReferences": {}
}